{
	"Solidity/PrisonerDillemaGame.sol": {
		"PrisonersDilemmaGame": {
			"abi": [
				{
					"inputs": [
						{
							"internalType": "contract PrisonerDilemmaCoin",
							"name": "_pdcToken",
							"type": "address"
						},
						{
							"internalType": "uint256",
							"name": "_entryFee",
							"type": "uint256"
						},
						{
							"internalType": "uint256",
							"name": "_roundDuration",
							"type": "uint256"
						}
					],
					"stateMutability": "nonpayable",
					"type": "constructor"
				},
				{
					"anonymous": false,
					"inputs": [
						{
							"indexed": true,
							"internalType": "address",
							"name": "player",
							"type": "address"
						},
						{
							"indexed": false,
							"internalType": "bool",
							"name": "choice",
							"type": "bool"
						}
					],
					"name": "ChoiceMade",
					"type": "event"
				},
				{
					"anonymous": false,
					"inputs": [
						{
							"indexed": true,
							"internalType": "address",
							"name": "player",
							"type": "address"
						},
						{
							"indexed": false,
							"internalType": "uint256",
							"name": "reward",
							"type": "uint256"
						}
					],
					"name": "Payout",
					"type": "event"
				},
				{
					"anonymous": false,
					"inputs": [
						{
							"indexed": true,
							"internalType": "address",
							"name": "player",
							"type": "address"
						},
						{
							"indexed": false,
							"internalType": "uint256",
							"name": "amount",
							"type": "uint256"
						}
					],
					"name": "PlayerJoined",
					"type": "event"
				},
				{
					"anonymous": false,
					"inputs": [
						{
							"indexed": false,
							"internalType": "uint256",
							"name": "round",
							"type": "uint256"
						}
					],
					"name": "RoundFinalized",
					"type": "event"
				},
				{
					"inputs": [
						{
							"internalType": "bool",
							"name": "_betray",
							"type": "bool"
						},
						{
							"internalType": "uint256",
							"name": "_nonce",
							"type": "uint256"
						}
					],
					"name": "commitChoice",
					"outputs": [],
					"stateMutability": "nonpayable",
					"type": "function"
				},
				{
					"inputs": [],
					"name": "currentRound",
					"outputs": [
						{
							"internalType": "uint256",
							"name": "",
							"type": "uint256"
						}
					],
					"stateMutability": "view",
					"type": "function"
				},
				{
					"inputs": [],
					"name": "entryFee",
					"outputs": [
						{
							"internalType": "uint256",
							"name": "",
							"type": "uint256"
						}
					],
					"stateMutability": "view",
					"type": "function"
				},
				{
					"inputs": [],
					"name": "finalizeRound",
					"outputs": [],
					"stateMutability": "nonpayable",
					"type": "function"
				},
				{
					"inputs": [],
					"name": "joinGame",
					"outputs": [],
					"stateMutability": "nonpayable",
					"type": "function"
				},
				{
					"inputs": [],
					"name": "owner",
					"outputs": [
						{
							"internalType": "address",
							"name": "",
							"type": "address"
						}
					],
					"stateMutability": "view",
					"type": "function"
				},
				{
					"inputs": [
						{
							"internalType": "uint256",
							"name": "",
							"type": "uint256"
						}
					],
					"name": "participants",
					"outputs": [
						{
							"internalType": "address",
							"name": "",
							"type": "address"
						}
					],
					"stateMutability": "view",
					"type": "function"
				},
				{
					"inputs": [],
					"name": "pdcToken",
					"outputs": [
						{
							"internalType": "contract PrisonerDilemmaCoin",
							"name": "",
							"type": "address"
						}
					],
					"stateMutability": "view",
					"type": "function"
				},
				{
					"inputs": [
						{
							"internalType": "address",
							"name": "",
							"type": "address"
						}
					],
					"name": "players",
					"outputs": [
						{
							"internalType": "uint256",
							"name": "deposit",
							"type": "uint256"
						},
						{
							"internalType": "bytes32",
							"name": "commitment",
							"type": "bytes32"
						},
						{
							"internalType": "bool",
							"name": "hasChosen",
							"type": "bool"
						},
						{
							"internalType": "bool",
							"name": "hasRevealed",
							"type": "bool"
						},
						{
							"internalType": "bool",
							"name": "choice",
							"type": "bool"
						},
						{
							"internalType": "uint256",
							"name": "roundJoined",
							"type": "uint256"
						}
					],
					"stateMutability": "view",
					"type": "function"
				},
				{
					"inputs": [],
					"name": "roundDuration",
					"outputs": [
						{
							"internalType": "uint256",
							"name": "",
							"type": "uint256"
						}
					],
					"stateMutability": "view",
					"type": "function"
				},
				{
					"inputs": [],
					"name": "roundEndTime",
					"outputs": [
						{
							"internalType": "uint256",
							"name": "",
							"type": "uint256"
						}
					],
					"stateMutability": "view",
					"type": "function"
				}
			],
			"devdoc": {
				"kind": "dev",
				"methods": {},
				"version": 1
			},
			"evm": {
				"assembly": "    /* \"Solidity/PrisonerDillemaGame.sol\":130:5861  contract PrisonersDilemmaGame {\r... */\n  mstore(0x40, 0x80)\n    /* \"Solidity/PrisonerDillemaGame.sol\":1668:2132  constructor(PrisonerDilemmaCoin _pdcToken, uint256 _entryFee, uint256 _roundDuration) {\r... */\n  callvalue\n  dup1\n  iszero\n  tag_1\n  jumpi\n  0x00\n  dup1\n  revert\ntag_1:\n  pop\n  mload(0x40)\n  sub(codesize, bytecodeSize)\n  dup1\n  bytecodeSize\n  dup4\n  codecopy\n  dup2\n  dup2\n  add\n  0x40\n  mstore\n  dup2\n  add\n  swap1\n  tag_2\n  swap2\n  swap1\n  tag_3\n  jump\t// in\ntag_2:\n    /* \"Solidity/PrisonerDillemaGame.sol\":1785:1786  0 */\n  0x00\n    /* \"Solidity/PrisonerDillemaGame.sol\":1773:1782  _entryFee */\n  dup3\n    /* \"Solidity/PrisonerDillemaGame.sol\":1773:1786  _entryFee > 0 */\n  gt\n    /* \"Solidity/PrisonerDillemaGame.sol\":1765:1826  require(_entryFee > 0, \"Entry fee must be greater than zero\") */\n  tag_6\n  jumpi\n  mload(0x40)\n  0x08c379a000000000000000000000000000000000000000000000000000000000\n  dup2\n  mstore\n  0x04\n  add\n  tag_7\n  swap1\n  tag_8\n  jump\t// in\ntag_7:\n  mload(0x40)\n  dup1\n  swap2\n  sub\n  swap1\n  revert\ntag_6:\n    /* \"Solidity/PrisonerDillemaGame.sol\":1862:1863  0 */\n  0x00\n    /* \"Solidity/PrisonerDillemaGame.sol\":1845:1859  _roundDuration */\n  dup2\n    /* \"Solidity/PrisonerDillemaGame.sol\":1845:1863  _roundDuration > 0 */\n  gt\n    /* \"Solidity/PrisonerDillemaGame.sol\":1837:1908  require(_roundDuration > 0, \"Round duration must be greater than zero\") */\n  tag_9\n  jumpi\n  mload(0x40)\n  0x08c379a000000000000000000000000000000000000000000000000000000000\n  dup2\n  mstore\n  0x04\n  add\n  tag_10\n  swap1\n  tag_11\n  jump\t// in\ntag_10:\n  mload(0x40)\n  dup1\n  swap2\n  sub\n  swap1\n  revert\ntag_9:\n    /* \"Solidity/PrisonerDillemaGame.sol\":1930:1939  _pdcToken */\n  dup3\n    /* \"Solidity/PrisonerDillemaGame.sol\":1919:1927  pdcToken */\n  0x00\n  dup1\n    /* \"Solidity/PrisonerDillemaGame.sol\":1919:1939  pdcToken = _pdcToken */\n  0x0100\n  exp\n  dup2\n  sload\n  dup2\n  0xffffffffffffffffffffffffffffffffffffffff\n  mul\n  not\n  and\n  swap1\n  dup4\n  0xffffffffffffffffffffffffffffffffffffffff\n  and\n  mul\n  or\n  swap1\n  sstore\n  pop\n    /* \"Solidity/PrisonerDillemaGame.sol\":1961:1970  _entryFee */\n  dup2\n    /* \"Solidity/PrisonerDillemaGame.sol\":1950:1958  entryFee */\n  0x01\n    /* \"Solidity/PrisonerDillemaGame.sol\":1950:1970  entryFee = _entryFee */\n  dup2\n  swap1\n  sstore\n  pop\n    /* \"Solidity/PrisonerDillemaGame.sol\":1997:2011  _roundDuration */\n  dup1\n    /* \"Solidity/PrisonerDillemaGame.sol\":1981:1994  roundDuration */\n  0x02\n    /* \"Solidity/PrisonerDillemaGame.sol\":1981:2011  roundDuration = _roundDuration */\n  dup2\n  swap1\n  sstore\n  pop\n    /* \"Solidity/PrisonerDillemaGame.sol\":2030:2040  msg.sender */\n  caller\n    /* \"Solidity/PrisonerDillemaGame.sol\":2022:2027  owner */\n  0x04\n  0x00\n    /* \"Solidity/PrisonerDillemaGame.sol\":2022:2040  owner = msg.sender */\n  0x0100\n  exp\n  dup2\n  sload\n  dup2\n  0xffffffffffffffffffffffffffffffffffffffff\n  mul\n  not\n  and\n  swap1\n  dup4\n  0xffffffffffffffffffffffffffffffffffffffff\n  and\n  mul\n  or\n  swap1\n  sstore\n  pop\n    /* \"Solidity/PrisonerDillemaGame.sol\":2066:2067  1 */\n  0x01\n    /* \"Solidity/PrisonerDillemaGame.sol\":2051:2063  currentRound */\n  0x05\n    /* \"Solidity/PrisonerDillemaGame.sol\":2051:2067  currentRound = 1 */\n  dup2\n  swap1\n  sstore\n  pop\n    /* \"Solidity/PrisonerDillemaGame.sol\":2111:2124  roundDuration */\n  sload(0x02)\n    /* \"Solidity/PrisonerDillemaGame.sol\":2093:2108  block.timestamp */\n  timestamp\n    /* \"Solidity/PrisonerDillemaGame.sol\":2093:2124  block.timestamp + roundDuration */\n  tag_12\n  swap2\n  swap1\n  tag_13\n  jump\t// in\ntag_12:\n    /* \"Solidity/PrisonerDillemaGame.sol\":2078:2090  roundEndTime */\n  0x03\n    /* \"Solidity/PrisonerDillemaGame.sol\":2078:2124  roundEndTime = block.timestamp + roundDuration */\n  dup2\n  swap1\n  sstore\n  pop\n    /* \"Solidity/PrisonerDillemaGame.sol\":1668:2132  constructor(PrisonerDilemmaCoin _pdcToken, uint256 _entryFee, uint256 _roundDuration) {\r... */\n  pop\n  pop\n  pop\n    /* \"Solidity/PrisonerDillemaGame.sol\":130:5861  contract PrisonersDilemmaGame {\r... */\n  jump(tag_14)\n    /* \"#utility.yul\":7:202   */\ntag_16:\n    /* \"#utility.yul\":90:95   */\n  0x00\n    /* \"#utility.yul\":121:127   */\n  dup2\n    /* \"#utility.yul\":115:128   */\n  mload\n    /* \"#utility.yul\":106:128   */\n  swap1\n  pop\n    /* \"#utility.yul\":137:196   */\n  tag_18\n    /* \"#utility.yul\":190:195   */\n  dup2\n    /* \"#utility.yul\":137:196   */\n  tag_19\n  jump\t// in\ntag_18:\n    /* \"#utility.yul\":7:202   */\n  swap3\n  swap2\n  pop\n  pop\n  jump\t// out\n    /* \"#utility.yul\":208:351   */\ntag_20:\n    /* \"#utility.yul\":265:270   */\n  0x00\n    /* \"#utility.yul\":296:302   */\n  dup2\n    /* \"#utility.yul\":290:303   */\n  mload\n    /* \"#utility.yul\":281:303   */\n  swap1\n  pop\n    /* \"#utility.yul\":312:345   */\n  tag_22\n    /* \"#utility.yul\":339:344   */\n  dup2\n    /* \"#utility.yul\":312:345   */\n  tag_23\n  jump\t// in\ntag_22:\n    /* \"#utility.yul\":208:351   */\n  swap3\n  swap2\n  pop\n  pop\n  jump\t// out\n    /* \"#utility.yul\":357:1072   */\ntag_3:\n    /* \"#utility.yul\":471:477   */\n  0x00\n    /* \"#utility.yul\":479:485   */\n  dup1\n    /* \"#utility.yul\":487:493   */\n  0x00\n    /* \"#utility.yul\":536:538   */\n  0x60\n    /* \"#utility.yul\":524:533   */\n  dup5\n    /* \"#utility.yul\":515:522   */\n  dup7\n    /* \"#utility.yul\":511:534   */\n  sub\n    /* \"#utility.yul\":507:539   */\n  slt\n    /* \"#utility.yul\":504:623   */\n  iszero\n  tag_25\n  jumpi\n    /* \"#utility.yul\":542:621   */\n  tag_26\n  tag_27\n  jump\t// in\ntag_26:\n    /* \"#utility.yul\":504:623   */\ntag_25:\n    /* \"#utility.yul\":662:663   */\n  0x00\n    /* \"#utility.yul\":687:777   */\n  tag_28\n    /* \"#utility.yul\":769:776   */\n  dup7\n    /* \"#utility.yul\":760:766   */\n  dup3\n    /* \"#utility.yul\":749:758   */\n  dup8\n    /* \"#utility.yul\":745:767   */\n  add\n    /* \"#utility.yul\":687:777   */\n  tag_16\n  jump\t// in\ntag_28:\n    /* \"#utility.yul\":677:777   */\n  swap4\n  pop\n    /* \"#utility.yul\":633:787   */\n  pop\n    /* \"#utility.yul\":826:828   */\n  0x20\n    /* \"#utility.yul\":852:916   */\n  tag_29\n    /* \"#utility.yul\":908:915   */\n  dup7\n    /* \"#utility.yul\":899:905   */\n  dup3\n    /* \"#utility.yul\":888:897   */\n  dup8\n    /* \"#utility.yul\":884:906   */\n  add\n    /* \"#utility.yul\":852:916   */\n  tag_20\n  jump\t// in\ntag_29:\n    /* \"#utility.yul\":842:916   */\n  swap3\n  pop\n    /* \"#utility.yul\":797:926   */\n  pop\n    /* \"#utility.yul\":965:967   */\n  0x40\n    /* \"#utility.yul\":991:1055   */\n  tag_30\n    /* \"#utility.yul\":1047:1054   */\n  dup7\n    /* \"#utility.yul\":1038:1044   */\n  dup3\n    /* \"#utility.yul\":1027:1036   */\n  dup8\n    /* \"#utility.yul\":1023:1045   */\n  add\n    /* \"#utility.yul\":991:1055   */\n  tag_20\n  jump\t// in\ntag_30:\n    /* \"#utility.yul\":981:1055   */\n  swap2\n  pop\n    /* \"#utility.yul\":936:1065   */\n  pop\n    /* \"#utility.yul\":357:1072   */\n  swap3\n  pop\n  swap3\n  pop\n  swap3\n  jump\t// out\n    /* \"#utility.yul\":1078:1444   */\ntag_31:\n    /* \"#utility.yul\":1220:1223   */\n  0x00\n    /* \"#utility.yul\":1241:1308   */\n  tag_33\n    /* \"#utility.yul\":1305:1307   */\n  0x23\n    /* \"#utility.yul\":1300:1303   */\n  dup4\n    /* \"#utility.yul\":1241:1308   */\n  tag_34\n  jump\t// in\ntag_33:\n    /* \"#utility.yul\":1234:1308   */\n  swap2\n  pop\n    /* \"#utility.yul\":1317:1410   */\n  tag_35\n    /* \"#utility.yul\":1406:1409   */\n  dup3\n    /* \"#utility.yul\":1317:1410   */\n  tag_36\n  jump\t// in\ntag_35:\n    /* \"#utility.yul\":1435:1437   */\n  0x40\n    /* \"#utility.yul\":1430:1433   */\n  dup3\n    /* \"#utility.yul\":1426:1438   */\n  add\n    /* \"#utility.yul\":1419:1438   */\n  swap1\n  pop\n    /* \"#utility.yul\":1078:1444   */\n  swap2\n  swap1\n  pop\n  jump\t// out\n    /* \"#utility.yul\":1450:1816   */\ntag_37:\n    /* \"#utility.yul\":1592:1595   */\n  0x00\n    /* \"#utility.yul\":1613:1680   */\n  tag_39\n    /* \"#utility.yul\":1677:1679   */\n  0x28\n    /* \"#utility.yul\":1672:1675   */\n  dup4\n    /* \"#utility.yul\":1613:1680   */\n  tag_34\n  jump\t// in\ntag_39:\n    /* \"#utility.yul\":1606:1680   */\n  swap2\n  pop\n    /* \"#utility.yul\":1689:1782   */\n  tag_40\n    /* \"#utility.yul\":1778:1781   */\n  dup3\n    /* \"#utility.yul\":1689:1782   */\n  tag_41\n  jump\t// in\ntag_40:\n    /* \"#utility.yul\":1807:1809   */\n  0x40\n    /* \"#utility.yul\":1802:1805   */\n  dup3\n    /* \"#utility.yul\":1798:1810   */\n  add\n    /* \"#utility.yul\":1791:1810   */\n  swap1\n  pop\n    /* \"#utility.yul\":1450:1816   */\n  swap2\n  swap1\n  pop\n  jump\t// out\n    /* \"#utility.yul\":1822:2241   */\ntag_8:\n    /* \"#utility.yul\":1988:1992   */\n  0x00\n    /* \"#utility.yul\":2026:2028   */\n  0x20\n    /* \"#utility.yul\":2015:2024   */\n  dup3\n    /* \"#utility.yul\":2011:2029   */\n  add\n    /* \"#utility.yul\":2003:2029   */\n  swap1\n  pop\n    /* \"#utility.yul\":2075:2084   */\n  dup2\n    /* \"#utility.yul\":2069:2073   */\n  dup2\n    /* \"#utility.yul\":2065:2085   */\n  sub\n    /* \"#utility.yul\":2061:2062   */\n  0x00\n    /* \"#utility.yul\":2050:2059   */\n  dup4\n    /* \"#utility.yul\":2046:2063   */\n  add\n    /* \"#utility.yul\":2039:2086   */\n  mstore\n    /* \"#utility.yul\":2103:2234   */\n  tag_43\n    /* \"#utility.yul\":2229:2233   */\n  dup2\n    /* \"#utility.yul\":2103:2234   */\n  tag_31\n  jump\t// in\ntag_43:\n    /* \"#utility.yul\":2095:2234   */\n  swap1\n  pop\n    /* \"#utility.yul\":1822:2241   */\n  swap2\n  swap1\n  pop\n  jump\t// out\n    /* \"#utility.yul\":2247:2666   */\ntag_11:\n    /* \"#utility.yul\":2413:2417   */\n  0x00\n    /* \"#utility.yul\":2451:2453   */\n  0x20\n    /* \"#utility.yul\":2440:2449   */\n  dup3\n    /* \"#utility.yul\":2436:2454   */\n  add\n    /* \"#utility.yul\":2428:2454   */\n  swap1\n  pop\n    /* \"#utility.yul\":2500:2509   */\n  dup2\n    /* \"#utility.yul\":2494:2498   */\n  dup2\n    /* \"#utility.yul\":2490:2510   */\n  sub\n    /* \"#utility.yul\":2486:2487   */\n  0x00\n    /* \"#utility.yul\":2475:2484   */\n  dup4\n    /* \"#utility.yul\":2471:2488   */\n  add\n    /* \"#utility.yul\":2464:2511   */\n  mstore\n    /* \"#utility.yul\":2528:2659   */\n  tag_45\n    /* \"#utility.yul\":2654:2658   */\n  dup2\n    /* \"#utility.yul\":2528:2659   */\n  tag_37\n  jump\t// in\ntag_45:\n    /* \"#utility.yul\":2520:2659   */\n  swap1\n  pop\n    /* \"#utility.yul\":2247:2666   */\n  swap2\n  swap1\n  pop\n  jump\t// out\n    /* \"#utility.yul\":2753:2922   */\ntag_34:\n    /* \"#utility.yul\":2837:2848   */\n  0x00\n    /* \"#utility.yul\":2871:2877   */\n  dup3\n    /* \"#utility.yul\":2866:2869   */\n  dup3\n    /* \"#utility.yul\":2859:2878   */\n  mstore\n    /* \"#utility.yul\":2911:2915   */\n  0x20\n    /* \"#utility.yul\":2906:2909   */\n  dup3\n    /* \"#utility.yul\":2902:2916   */\n  add\n    /* \"#utility.yul\":2887:2916   */\n  swap1\n  pop\n    /* \"#utility.yul\":2753:2922   */\n  swap3\n  swap2\n  pop\n  pop\n  jump\t// out\n    /* \"#utility.yul\":2928:3233   */\ntag_13:\n    /* \"#utility.yul\":2968:2971   */\n  0x00\n    /* \"#utility.yul\":2987:3007   */\n  tag_50\n    /* \"#utility.yul\":3005:3006   */\n  dup3\n    /* \"#utility.yul\":2987:3007   */\n  tag_51\n  jump\t// in\ntag_50:\n    /* \"#utility.yul\":2982:3007   */\n  swap2\n  pop\n    /* \"#utility.yul\":3021:3041   */\n  tag_52\n    /* \"#utility.yul\":3039:3040   */\n  dup4\n    /* \"#utility.yul\":3021:3041   */\n  tag_51\n  jump\t// in\ntag_52:\n    /* \"#utility.yul\":3016:3041   */\n  swap3\n  pop\n    /* \"#utility.yul\":3175:3176   */\n  dup3\n    /* \"#utility.yul\":3107:3173   */\n  0xffffffffffffffffffffffffffffffffffffffffffffffffffffffffffffffff\n    /* \"#utility.yul\":3103:3177   */\n  sub\n    /* \"#utility.yul\":3100:3101   */\n  dup3\n    /* \"#utility.yul\":3097:3178   */\n  gt\n    /* \"#utility.yul\":3094:3201   */\n  iszero\n  tag_53\n  jumpi\n    /* \"#utility.yul\":3181:3199   */\n  tag_54\n  tag_55\n  jump\t// in\ntag_54:\n    /* \"#utility.yul\":3094:3201   */\ntag_53:\n    /* \"#utility.yul\":3225:3226   */\n  dup3\n    /* \"#utility.yul\":3222:3223   */\n  dup3\n    /* \"#utility.yul\":3218:3227   */\n  add\n    /* \"#utility.yul\":3211:3227   */\n  swap1\n  pop\n    /* \"#utility.yul\":2928:3233   */\n  swap3\n  swap2\n  pop\n  pop\n  jump\t// out\n    /* \"#utility.yul\":3239:3335   */\ntag_56:\n    /* \"#utility.yul\":3276:3283   */\n  0x00\n    /* \"#utility.yul\":3305:3329   */\n  tag_58\n    /* \"#utility.yul\":3323:3328   */\n  dup3\n    /* \"#utility.yul\":3305:3329   */\n  tag_59\n  jump\t// in\ntag_58:\n    /* \"#utility.yul\":3294:3329   */\n  swap1\n  pop\n    /* \"#utility.yul\":3239:3335   */\n  swap2\n  swap1\n  pop\n  jump\t// out\n    /* \"#utility.yul\":3341:3463   */\ntag_60:\n    /* \"#utility.yul\":3404:3411   */\n  0x00\n    /* \"#utility.yul\":3433:3457   */\n  tag_62\n    /* \"#utility.yul\":3451:3456   */\n  dup3\n    /* \"#utility.yul\":3433:3457   */\n  tag_56\n  jump\t// in\ntag_62:\n    /* \"#utility.yul\":3422:3457   */\n  swap1\n  pop\n    /* \"#utility.yul\":3341:3463   */\n  swap2\n  swap1\n  pop\n  jump\t// out\n    /* \"#utility.yul\":3469:3595   */\ntag_59:\n    /* \"#utility.yul\":3506:3513   */\n  0x00\n    /* \"#utility.yul\":3546:3588   */\n  0xffffffffffffffffffffffffffffffffffffffff\n    /* \"#utility.yul\":3539:3544   */\n  dup3\n    /* \"#utility.yul\":3535:3589   */\n  and\n    /* \"#utility.yul\":3524:3589   */\n  swap1\n  pop\n    /* \"#utility.yul\":3469:3595   */\n  swap2\n  swap1\n  pop\n  jump\t// out\n    /* \"#utility.yul\":3601:3678   */\ntag_51:\n    /* \"#utility.yul\":3638:3645   */\n  0x00\n    /* \"#utility.yul\":3667:3672   */\n  dup2\n    /* \"#utility.yul\":3656:3672   */\n  swap1\n  pop\n    /* \"#utility.yul\":3601:3678   */\n  swap2\n  swap1\n  pop\n  jump\t// out\n    /* \"#utility.yul\":3684:3864   */\ntag_55:\n    /* \"#utility.yul\":3732:3809   */\n  0x4e487b7100000000000000000000000000000000000000000000000000000000\n    /* \"#utility.yul\":3729:3730   */\n  0x00\n    /* \"#utility.yul\":3722:3810   */\n  mstore\n    /* \"#utility.yul\":3829:3833   */\n  0x11\n    /* \"#utility.yul\":3826:3827   */\n  0x04\n    /* \"#utility.yul\":3819:3834   */\n  mstore\n    /* \"#utility.yul\":3853:3857   */\n  0x24\n    /* \"#utility.yul\":3850:3851   */\n  0x00\n    /* \"#utility.yul\":3843:3858   */\n  revert\n    /* \"#utility.yul\":3993:4110   */\ntag_27:\n    /* \"#utility.yul\":4102:4103   */\n  0x00\n    /* \"#utility.yul\":4099:4100   */\n  dup1\n    /* \"#utility.yul\":4092:4104   */\n  revert\n    /* \"#utility.yul\":4116:4338   */\ntag_36:\n    /* \"#utility.yul\":4256:4290   */\n  0x456e74727920666565206d7573742062652067726561746572207468616e207a\n    /* \"#utility.yul\":4252:4253   */\n  0x00\n    /* \"#utility.yul\":4244:4250   */\n  dup3\n    /* \"#utility.yul\":4240:4254   */\n  add\n    /* \"#utility.yul\":4233:4291   */\n  mstore\n    /* \"#utility.yul\":4325:4330   */\n  0x65726f0000000000000000000000000000000000000000000000000000000000\n    /* \"#utility.yul\":4320:4322   */\n  0x20\n    /* \"#utility.yul\":4312:4318   */\n  dup3\n    /* \"#utility.yul\":4308:4323   */\n  add\n    /* \"#utility.yul\":4301:4331   */\n  mstore\n    /* \"#utility.yul\":4116:4338   */\n  pop\n  jump\t// out\n    /* \"#utility.yul\":4344:4571   */\ntag_41:\n    /* \"#utility.yul\":4484:4518   */\n  0x526f756e64206475726174696f6e206d75737420626520677265617465722074\n    /* \"#utility.yul\":4480:4481   */\n  0x00\n    /* \"#utility.yul\":4472:4478   */\n  dup3\n    /* \"#utility.yul\":4468:4482   */\n  add\n    /* \"#utility.yul\":4461:4519   */\n  mstore\n    /* \"#utility.yul\":4553:4563   */\n  0x68616e207a65726f000000000000000000000000000000000000000000000000\n    /* \"#utility.yul\":4548:4550   */\n  0x20\n    /* \"#utility.yul\":4540:4546   */\n  dup3\n    /* \"#utility.yul\":4536:4551   */\n  add\n    /* \"#utility.yul\":4529:4564   */\n  mstore\n    /* \"#utility.yul\":4344:4571   */\n  pop\n  jump\t// out\n    /* \"#utility.yul\":4577:4751   */\ntag_19:\n    /* \"#utility.yul\":4676:4726   */\n  tag_72\n    /* \"#utility.yul\":4720:4725   */\n  dup2\n    /* \"#utility.yul\":4676:4726   */\n  tag_60\n  jump\t// in\ntag_72:\n    /* \"#utility.yul\":4669:4674   */\n  dup2\n    /* \"#utility.yul\":4666:4727   */\n  eq\n    /* \"#utility.yul\":4656:4745   */\n  tag_73\n  jumpi\n    /* \"#utility.yul\":4741:4742   */\n  0x00\n    /* \"#utility.yul\":4738:4739   */\n  dup1\n    /* \"#utility.yul\":4731:4743   */\n  revert\n    /* \"#utility.yul\":4656:4745   */\ntag_73:\n    /* \"#utility.yul\":4577:4751   */\n  pop\n  jump\t// out\n    /* \"#utility.yul\":4757:4879   */\ntag_23:\n    /* \"#utility.yul\":4830:4854   */\n  tag_75\n    /* \"#utility.yul\":4848:4853   */\n  dup2\n    /* \"#utility.yul\":4830:4854   */\n  tag_51\n  jump\t// in\ntag_75:\n    /* \"#utility.yul\":4823:4828   */\n  dup2\n    /* \"#utility.yul\":4820:4855   */\n  eq\n    /* \"#utility.yul\":4810:4873   */\n  tag_76\n  jumpi\n    /* \"#utility.yul\":4869:4870   */\n  0x00\n    /* \"#utility.yul\":4866:4867   */\n  dup1\n    /* \"#utility.yul\":4859:4871   */\n  revert\n    /* \"#utility.yul\":4810:4873   */\ntag_76:\n    /* \"#utility.yul\":4757:4879   */\n  pop\n  jump\t// out\n    /* \"Solidity/PrisonerDillemaGame.sol\":130:5861  contract PrisonersDilemmaGame {\r... */\ntag_14:\n  dataSize(sub_0)\n  dup1\n  dataOffset(sub_0)\n  0x00\n  codecopy\n  0x00\n  return\nstop\n\nsub_0: assembly {\n        /* \"Solidity/PrisonerDillemaGame.sol\":130:5861  contract PrisonersDilemmaGame {\r... */\n      mstore(0x40, 0x80)\n      callvalue\n      dup1\n      iszero\n      tag_1\n      jumpi\n      0x00\n      dup1\n      revert\n    tag_1:\n      pop\n      jumpi(tag_2, lt(calldatasize, 0x04))\n      shr(0xe0, calldataload(0x00))\n      dup1\n      0x8a19c8bc\n      gt\n      tag_14\n      jumpi\n      dup1\n      0x8a19c8bc\n      eq\n      tag_8\n      jumpi\n      dup1\n      0x8da5cb5b\n      eq\n      tag_9\n      jumpi\n      dup1\n      0xd4f77b1c\n      eq\n      tag_10\n      jumpi\n      dup1\n      0xe2eb41ff\n      eq\n      tag_11\n      jumpi\n      dup1\n      0xe40205d6\n      eq\n      tag_12\n      jumpi\n      dup1\n      0xf7cb789a\n      eq\n      tag_13\n      jumpi\n      jump(tag_2)\n    tag_14:\n      dup1\n      0x072ea61c\n      eq\n      tag_3\n      jumpi\n      dup1\n      0x1e820325\n      eq\n      tag_4\n      jumpi\n      dup1\n      0x2967c373\n      eq\n      tag_5\n      jumpi\n      dup1\n      0x35c1d349\n      eq\n      tag_6\n      jumpi\n      dup1\n      0x38983ef8\n      eq\n      tag_7\n      jumpi\n    tag_2:\n      0x00\n      dup1\n      revert\n        /* \"Solidity/PrisonerDillemaGame.sol\":768:791  uint256 public entryFee */\n    tag_3:\n      tag_15\n      tag_16\n      jump\t// in\n    tag_15:\n      mload(0x40)\n      tag_17\n      swap2\n      swap1\n      tag_18\n      jump\t// in\n    tag_17:\n      mload(0x40)\n      dup1\n      swap2\n      sub\n      swap1\n      return\n        /* \"Solidity/PrisonerDillemaGame.sol\":3440:5858  function finalizeRound() external {\r... */\n    tag_4:\n      tag_19\n      tag_20\n      jump\t// in\n    tag_19:\n      stop\n        /* \"Solidity/PrisonerDillemaGame.sol\":672:707  PrisonerDilemmaCoin public pdcToken */\n    tag_5:\n      tag_21\n      tag_22\n      jump\t// in\n    tag_21:\n      mload(0x40)\n      tag_23\n      swap2\n      swap1\n      tag_24\n      jump\t// in\n    tag_23:\n      mload(0x40)\n      dup1\n      swap2\n      sub\n      swap1\n      return\n        /* \"Solidity/PrisonerDillemaGame.sol\":1258:1287  address[] public participants */\n    tag_6:\n      tag_25\n      0x04\n      dup1\n      calldatasize\n      sub\n      dup2\n      add\n      swap1\n      tag_26\n      swap2\n      swap1\n      tag_27\n      jump\t// in\n    tag_26:\n      tag_28\n      jump\t// in\n    tag_25:\n      mload(0x40)\n      tag_29\n      swap2\n      swap1\n      tag_30\n      jump\t// in\n    tag_29:\n      mload(0x40)\n      dup1\n      swap2\n      sub\n      swap1\n      return\n        /* \"Solidity/PrisonerDillemaGame.sol\":2790:3383  function commitChoice(bool _betray, uint256 _nonce) external {\r... */\n    tag_7:\n      tag_31\n      0x04\n      dup1\n      calldatasize\n      sub\n      dup2\n      add\n      swap1\n      tag_32\n      swap2\n      swap1\n      tag_33\n      jump\t// in\n    tag_32:\n      tag_34\n      jump\t// in\n    tag_31:\n      stop\n        /* \"Solidity/PrisonerDillemaGame.sol\":1086:1113  uint256 public currentRound */\n    tag_8:\n      tag_35\n      tag_36\n      jump\t// in\n    tag_35:\n      mload(0x40)\n      tag_37\n      swap2\n      swap1\n      tag_18\n      jump\t// in\n    tag_37:\n      mload(0x40)\n      dup1\n      swap2\n      sub\n      swap1\n      return\n        /* \"Solidity/PrisonerDillemaGame.sol\":1015:1035  address public owner */\n    tag_9:\n      tag_38\n      tag_39\n      jump\t// in\n    tag_38:\n      mload(0x40)\n      tag_40\n      swap2\n      swap1\n      tag_30\n      jump\t// in\n    tag_40:\n      mload(0x40)\n      dup1\n      swap2\n      sub\n      swap1\n      return\n        /* \"Solidity/PrisonerDillemaGame.sol\":2170:2746  function joinGame() external {\r... */\n    tag_10:\n      tag_41\n      tag_42\n      jump\t// in\n    tag_41:\n      stop\n        /* \"Solidity/PrisonerDillemaGame.sol\":1169:1210  mapping(address => Player) public players */\n    tag_11:\n      tag_43\n      0x04\n      dup1\n      calldatasize\n      sub\n      dup2\n      add\n      swap1\n      tag_44\n      swap2\n      swap1\n      tag_45\n      jump\t// in\n    tag_44:\n      tag_46\n      jump\t// in\n    tag_43:\n      mload(0x40)\n      tag_47\n      swap7\n      swap6\n      swap5\n      swap4\n      swap3\n      swap2\n      swap1\n      tag_48\n      jump\t// in\n    tag_47:\n      mload(0x40)\n      dup1\n      swap2\n      sub\n      swap1\n      return\n        /* \"Solidity/PrisonerDillemaGame.sol\":932:959  uint256 public roundEndTime */\n    tag_12:\n      tag_49\n      tag_50\n      jump\t// in\n    tag_49:\n      mload(0x40)\n      tag_51\n      swap2\n      swap1\n      tag_18\n      jump\t// in\n    tag_51:\n      mload(0x40)\n      dup1\n      swap2\n      sub\n      swap1\n      return\n        /* \"Solidity/PrisonerDillemaGame.sol\":844:872  uint256 public roundDuration */\n    tag_13:\n      tag_52\n      tag_53\n      jump\t// in\n    tag_52:\n      mload(0x40)\n      tag_54\n      swap2\n      swap1\n      tag_18\n      jump\t// in\n    tag_54:\n      mload(0x40)\n      dup1\n      swap2\n      sub\n      swap1\n      return\n        /* \"Solidity/PrisonerDillemaGame.sol\":768:791  uint256 public entryFee */\n    tag_16:\n      sload(0x01)\n      dup2\n      jump\t// out\n        /* \"Solidity/PrisonerDillemaGame.sol\":3440:5858  function finalizeRound() external {\r... */\n    tag_20:\n        /* \"Solidity/PrisonerDillemaGame.sol\":3512:3524  roundEndTime */\n      sload(0x03)\n        /* \"Solidity/PrisonerDillemaGame.sol\":3493:3508  block.timestamp */\n      timestamp\n        /* \"Solidity/PrisonerDillemaGame.sol\":3493:3524  block.timestamp >= roundEndTime */\n      lt\n      iszero\n        /* \"Solidity/PrisonerDillemaGame.sol\":3485:3556  require(block.timestamp >= roundEndTime, \"Current round still ongoing\") */\n      tag_56\n      jumpi\n      mload(0x40)\n      0x08c379a000000000000000000000000000000000000000000000000000000000\n      dup2\n      mstore\n      0x04\n      add\n      tag_57\n      swap1\n      tag_58\n      jump\t// in\n    tag_57:\n      mload(0x40)\n      dup1\n      swap2\n      sub\n      swap1\n      revert\n    tag_56:\n        /* \"Solidity/PrisonerDillemaGame.sol\":3590:3591  0 */\n      0x00\n        /* \"Solidity/PrisonerDillemaGame.sol\":3575:3587  currentRound */\n      sload(0x05)\n        /* \"Solidity/PrisonerDillemaGame.sol\":3575:3591  currentRound > 0 */\n      gt\n        /* \"Solidity/PrisonerDillemaGame.sol\":3567:3616  require(currentRound > 0, \"No round to finalize\") */\n      tag_59\n      jumpi\n      mload(0x40)\n      0x08c379a000000000000000000000000000000000000000000000000000000000\n      dup2\n      mstore\n      0x04\n      add\n      tag_60\n      swap1\n      tag_61\n      jump\t// in\n    tag_60:\n      mload(0x40)\n      dup1\n      swap2\n      sub\n      swap1\n      revert\n    tag_59:\n        /* \"Solidity/PrisonerDillemaGame.sol\":3629:3646  uint256 betrayers */\n      0x00\n        /* \"Solidity/PrisonerDillemaGame.sol\":3661:3682  uint256 totalDeposits */\n      dup1\n        /* \"Solidity/PrisonerDillemaGame.sol\":3749:3758  uint256 i */\n      0x00\n        /* \"Solidity/PrisonerDillemaGame.sol\":3744:4158  for (uint256 i = 0; i < participants.length; i++) {\r... */\n    tag_62:\n        /* \"Solidity/PrisonerDillemaGame.sol\":3768:3780  participants */\n      0x07\n        /* \"Solidity/PrisonerDillemaGame.sol\":3768:3787  participants.length */\n      dup1\n      sload\n      swap1\n      pop\n        /* \"Solidity/PrisonerDillemaGame.sol\":3764:3765  i */\n      dup2\n        /* \"Solidity/PrisonerDillemaGame.sol\":3764:3787  i < participants.length */\n      lt\n        /* \"Solidity/PrisonerDillemaGame.sol\":3744:4158  for (uint256 i = 0; i < participants.length; i++) {\r... */\n      iszero\n      tag_63\n      jumpi\n        /* \"Solidity/PrisonerDillemaGame.sol\":3809:3830  Player storage player */\n      0x00\n        /* \"Solidity/PrisonerDillemaGame.sol\":3833:3840  players */\n      0x06\n        /* \"Solidity/PrisonerDillemaGame.sol\":3833:3857  players[participants[i]] */\n      0x00\n        /* \"Solidity/PrisonerDillemaGame.sol\":3841:3853  participants */\n      0x07\n        /* \"Solidity/PrisonerDillemaGame.sol\":3854:3855  i */\n      dup5\n        /* \"Solidity/PrisonerDillemaGame.sol\":3841:3856  participants[i] */\n      dup2\n      sload\n      dup2\n      lt\n      tag_65\n      jumpi\n      tag_66\n      tag_67\n      jump\t// in\n    tag_66:\n    tag_65:\n      swap1\n      0x00\n      mstore\n      keccak256(0x00, 0x20)\n      add\n      0x00\n      swap1\n      sload\n      swap1\n      0x0100\n      exp\n      swap1\n      div\n      0xffffffffffffffffffffffffffffffffffffffff\n      and\n        /* \"Solidity/PrisonerDillemaGame.sol\":3833:3857  players[participants[i]] */\n      0xffffffffffffffffffffffffffffffffffffffff\n      and\n      0xffffffffffffffffffffffffffffffffffffffff\n      and\n      dup2\n      mstore\n      0x20\n      add\n      swap1\n      dup2\n      mstore\n      0x20\n      add\n      0x00\n      keccak256\n        /* \"Solidity/PrisonerDillemaGame.sol\":3809:3857  Player storage player = players[participants[i]] */\n      swap1\n      pop\n        /* \"Solidity/PrisonerDillemaGame.sol\":3876:3882  player */\n      dup1\n        /* \"Solidity/PrisonerDillemaGame.sol\":3876:3892  player.hasChosen */\n      0x02\n      add\n      0x00\n      swap1\n      sload\n      swap1\n      0x0100\n      exp\n      swap1\n      div\n      0xff\n      and\n        /* \"Solidity/PrisonerDillemaGame.sol\":3872:4147  if (player.hasChosen) {\r... */\n      iszero\n      tag_69\n      jumpi\n        /* \"Solidity/PrisonerDillemaGame.sol\":3930:3936  player */\n      dup1\n        /* \"Solidity/PrisonerDillemaGame.sol\":3930:3944  player.deposit */\n      0x00\n      add\n      sload\n        /* \"Solidity/PrisonerDillemaGame.sol\":3913:3944  totalDeposits += player.deposit */\n      dup4\n      tag_70\n      swap2\n      swap1\n      tag_71\n      jump\t// in\n    tag_70:\n      swap3\n      pop\n        /* \"Solidity/PrisonerDillemaGame.sol\":4036:4042  player */\n      dup1\n        /* \"Solidity/PrisonerDillemaGame.sol\":4036:4049  player.choice */\n      0x02\n      add\n      0x02\n      swap1\n      sload\n      swap1\n      0x0100\n      exp\n      swap1\n      div\n      0xff\n      and\n        /* \"Solidity/PrisonerDillemaGame.sol\":4032:4132  if (player.choice) { // True indicates betrayal\r... */\n      iszero\n      tag_72\n      jumpi\n        /* \"Solidity/PrisonerDillemaGame.sol\":4101:4112  betrayers++ */\n      dup4\n      dup1\n      tag_73\n      swap1\n      tag_74\n      jump\t// in\n    tag_73:\n      swap5\n      pop\n      pop\n        /* \"Solidity/PrisonerDillemaGame.sol\":4032:4132  if (player.choice) { // True indicates betrayal\r... */\n    tag_72:\n        /* \"Solidity/PrisonerDillemaGame.sol\":3872:4147  if (player.hasChosen) {\r... */\n    tag_69:\n        /* \"Solidity/PrisonerDillemaGame.sol\":3794:4158  {\r... */\n      pop\n        /* \"Solidity/PrisonerDillemaGame.sol\":3789:3792  i++ */\n      dup1\n      dup1\n      tag_75\n      swap1\n      tag_74\n      jump\t// in\n    tag_75:\n      swap2\n      pop\n      pop\n        /* \"Solidity/PrisonerDillemaGame.sol\":3744:4158  for (uint256 i = 0; i < participants.length; i++) {\r... */\n      jump(tag_62)\n    tag_63:\n      pop\n        /* \"Solidity/PrisonerDillemaGame.sol\":4234:4243  uint256 i */\n      0x00\n        /* \"Solidity/PrisonerDillemaGame.sol\":4229:5641  for (uint256 i = 0; i < participants.length; i++) {\r... */\n    tag_76:\n        /* \"Solidity/PrisonerDillemaGame.sol\":4253:4265  participants */\n      0x07\n        /* \"Solidity/PrisonerDillemaGame.sol\":4253:4272  participants.length */\n      dup1\n      sload\n      swap1\n      pop\n        /* \"Solidity/PrisonerDillemaGame.sol\":4249:4250  i */\n      dup2\n        /* \"Solidity/PrisonerDillemaGame.sol\":4249:4272  i < participants.length */\n      lt\n        /* \"Solidity/PrisonerDillemaGame.sol\":4229:5641  for (uint256 i = 0; i < participants.length; i++) {\r... */\n      iszero\n      tag_77\n      jumpi\n        /* \"Solidity/PrisonerDillemaGame.sol\":4294:4315  Player storage player */\n      0x00\n        /* \"Solidity/PrisonerDillemaGame.sol\":4318:4325  players */\n      0x06\n        /* \"Solidity/PrisonerDillemaGame.sol\":4318:4342  players[participants[i]] */\n      0x00\n        /* \"Solidity/PrisonerDillemaGame.sol\":4326:4338  participants */\n      0x07\n        /* \"Solidity/PrisonerDillemaGame.sol\":4339:4340  i */\n      dup5\n        /* \"Solidity/PrisonerDillemaGame.sol\":4326:4341  participants[i] */\n      dup2\n      sload\n      dup2\n      lt\n      tag_79\n      jumpi\n      tag_80\n      tag_67\n      jump\t// in\n    tag_80:\n    tag_79:\n      swap1\n      0x00\n      mstore\n      keccak256(0x00, 0x20)\n      add\n      0x00\n      swap1\n      sload\n      swap1\n      0x0100\n      exp\n      swap1\n      div\n      0xffffffffffffffffffffffffffffffffffffffff\n      and\n        /* \"Solidity/PrisonerDillemaGame.sol\":4318:4342  players[participants[i]] */\n      0xffffffffffffffffffffffffffffffffffffffff\n      and\n      0xffffffffffffffffffffffffffffffffffffffff\n      and\n      dup2\n      mstore\n      0x20\n      add\n      swap1\n      dup2\n      mstore\n      0x20\n      add\n      0x00\n      keccak256\n        /* \"Solidity/PrisonerDillemaGame.sol\":4294:4342  Player storage player = players[participants[i]] */\n      swap1\n      pop\n        /* \"Solidity/PrisonerDillemaGame.sol\":4357:4371  uint256 payout */\n      0x00\n        /* \"Solidity/PrisonerDillemaGame.sol\":4405:4417  participants */\n      0x07\n        /* \"Solidity/PrisonerDillemaGame.sol\":4405:4424  participants.length */\n      dup1\n      sload\n      swap1\n      pop\n        /* \"Solidity/PrisonerDillemaGame.sol\":4392:4401  betrayers */\n      dup6\n        /* \"Solidity/PrisonerDillemaGame.sol\":4392:4424  betrayers == participants.length */\n      eq\n        /* \"Solidity/PrisonerDillemaGame.sol\":4388:5179  if (betrayers == participants.length) {\r... */\n      iszero\n      tag_82\n      jumpi\n        /* \"Solidity/PrisonerDillemaGame.sol\":4552:4554  10 */\n      0x0a\n        /* \"Solidity/PrisonerDillemaGame.sol\":4535:4541  player */\n      dup3\n        /* \"Solidity/PrisonerDillemaGame.sol\":4535:4549  player.deposit */\n      0x00\n      add\n      sload\n        /* \"Solidity/PrisonerDillemaGame.sol\":4535:4554  player.deposit / 10 */\n      tag_83\n      swap2\n      swap1\n      tag_84\n      jump\t// in\n    tag_83:\n        /* \"Solidity/PrisonerDillemaGame.sol\":4526:4554  payout = player.deposit / 10 */\n      swap1\n      pop\n        /* \"Solidity/PrisonerDillemaGame.sol\":4388:5179  if (betrayers == participants.length) {\r... */\n      jump(tag_85)\n    tag_82:\n        /* \"Solidity/PrisonerDillemaGame.sol\":4595:4596  0 */\n      0x00\n        /* \"Solidity/PrisonerDillemaGame.sol\":4582:4591  betrayers */\n      dup6\n        /* \"Solidity/PrisonerDillemaGame.sol\":4582:4596  betrayers == 0 */\n      eq\n        /* \"Solidity/PrisonerDillemaGame.sol\":4578:5179  if (betrayers == 0) {\r... */\n      iszero\n      tag_86\n      jumpi\n        /* \"Solidity/PrisonerDillemaGame.sol\":4735:4741  player */\n      dup2\n        /* \"Solidity/PrisonerDillemaGame.sol\":4735:4749  player.deposit */\n      0x00\n      add\n      sload\n        /* \"Solidity/PrisonerDillemaGame.sol\":4726:4749  payout = player.deposit */\n      swap1\n      pop\n        /* \"Solidity/PrisonerDillemaGame.sol\":4578:5179  if (betrayers == 0) {\r... */\n      jump(tag_87)\n    tag_86:\n        /* \"Solidity/PrisonerDillemaGame.sol\":4777:4783  player */\n      dup2\n        /* \"Solidity/PrisonerDillemaGame.sol\":4777:4790  player.choice */\n      0x02\n      add\n      0x02\n      swap1\n      sload\n      swap1\n      0x0100\n      exp\n      swap1\n      div\n      0xff\n      and\n        /* \"Solidity/PrisonerDillemaGame.sol\":4773:5179  if (player.choice) { \r... */\n      iszero\n      tag_88\n      jumpi\n        /* \"Solidity/PrisonerDillemaGame.sol\":4963:4966  100 */\n      0x64\n        /* \"Solidity/PrisonerDillemaGame.sol\":4957:4960  130 */\n      0x82\n        /* \"Solidity/PrisonerDillemaGame.sol\":4940:4946  player */\n      dup4\n        /* \"Solidity/PrisonerDillemaGame.sol\":4940:4954  player.deposit */\n      0x00\n      add\n      sload\n        /* \"Solidity/PrisonerDillemaGame.sol\":4940:4960  player.deposit * 130 */\n      tag_89\n      swap2\n      swap1\n      tag_90\n      jump\t// in\n    tag_89:\n        /* \"Solidity/PrisonerDillemaGame.sol\":4940:4966  player.deposit * 130 / 100 */\n      tag_91\n      swap2\n      swap1\n      tag_84\n      jump\t// in\n    tag_91:\n        /* \"Solidity/PrisonerDillemaGame.sol\":4931:4966  payout = player.deposit * 130 / 100 */\n      swap1\n      pop\n        /* \"Solidity/PrisonerDillemaGame.sol\":4773:5179  if (player.choice) { \r... */\n      jump(tag_92)\n    tag_88:\n        /* \"Solidity/PrisonerDillemaGame.sol\":5162:5163  2 */\n      0x02\n        /* \"Solidity/PrisonerDillemaGame.sol\":5145:5151  player */\n      dup3\n        /* \"Solidity/PrisonerDillemaGame.sol\":5145:5159  player.deposit */\n      0x00\n      add\n      sload\n        /* \"Solidity/PrisonerDillemaGame.sol\":5145:5163  player.deposit / 2 */\n      tag_93\n      swap2\n      swap1\n      tag_84\n      jump\t// in\n    tag_93:\n        /* \"Solidity/PrisonerDillemaGame.sol\":5136:5163  payout = player.deposit / 2 */\n      swap1\n      pop\n        /* \"Solidity/PrisonerDillemaGame.sol\":4773:5179  if (player.choice) { \r... */\n    tag_92:\n        /* \"Solidity/PrisonerDillemaGame.sol\":4578:5179  if (betrayers == 0) {\r... */\n    tag_87:\n        /* \"Solidity/PrisonerDillemaGame.sol\":4388:5179  if (betrayers == participants.length) {\r... */\n    tag_85:\n        /* \"Solidity/PrisonerDillemaGame.sol\":5245:5253  pdcToken */\n      0x00\n      dup1\n      sload\n      swap1\n      0x0100\n      exp\n      swap1\n      div\n      0xffffffffffffffffffffffffffffffffffffffff\n      and\n        /* \"Solidity/PrisonerDillemaGame.sol\":5245:5262  pdcToken.transfer */\n      0xffffffffffffffffffffffffffffffffffffffff\n      and\n      0xa9059cbb\n        /* \"Solidity/PrisonerDillemaGame.sol\":5263:5275  participants */\n      0x07\n        /* \"Solidity/PrisonerDillemaGame.sol\":5276:5277  i */\n      dup6\n        /* \"Solidity/PrisonerDillemaGame.sol\":5263:5278  participants[i] */\n      dup2\n      sload\n      dup2\n      lt\n      tag_94\n      jumpi\n      tag_95\n      tag_67\n      jump\t// in\n    tag_95:\n    tag_94:\n      swap1\n      0x00\n      mstore\n      keccak256(0x00, 0x20)\n      add\n      0x00\n      swap1\n      sload\n      swap1\n      0x0100\n      exp\n      swap1\n      div\n      0xffffffffffffffffffffffffffffffffffffffff\n      and\n        /* \"Solidity/PrisonerDillemaGame.sol\":5280:5286  payout */\n      dup4\n        /* \"Solidity/PrisonerDillemaGame.sol\":5245:5287  pdcToken.transfer(participants[i], payout) */\n      mload(0x40)\n      dup4\n      0xffffffff\n      and\n      0xe0\n      shl\n      dup2\n      mstore\n      0x04\n      add\n      tag_97\n      swap3\n      swap2\n      swap1\n      tag_98\n      jump\t// in\n    tag_97:\n      0x20\n      mload(0x40)\n      dup1\n      dup4\n      sub\n      dup2\n      0x00\n      dup8\n      dup1\n      extcodesize\n      iszero\n      dup1\n      iszero\n      tag_99\n      jumpi\n      0x00\n      dup1\n      revert\n    tag_99:\n      pop\n      gas\n      call\n      iszero\n      dup1\n      iszero\n      tag_101\n      jumpi\n      returndatasize\n      0x00\n      dup1\n      returndatacopy\n      revert(0x00, returndatasize)\n    tag_101:\n      pop\n      pop\n      pop\n      pop\n      mload(0x40)\n      returndatasize\n      not(0x1f)\n      0x1f\n      dup3\n      add\n      and\n      dup3\n      add\n      dup1\n      0x40\n      mstore\n      pop\n      dup2\n      add\n      swap1\n      tag_102\n      swap2\n      swap1\n      tag_103\n      jump\t// in\n    tag_102:\n      pop\n        /* \"Solidity/PrisonerDillemaGame.sol\":5314:5326  participants */\n      0x07\n        /* \"Solidity/PrisonerDillemaGame.sol\":5327:5328  i */\n      dup4\n        /* \"Solidity/PrisonerDillemaGame.sol\":5314:5329  participants[i] */\n      dup2\n      sload\n      dup2\n      lt\n      tag_104\n      jumpi\n      tag_105\n      tag_67\n      jump\t// in\n    tag_105:\n    tag_104:\n      swap1\n      0x00\n      mstore\n      keccak256(0x00, 0x20)\n      add\n      0x00\n      swap1\n      sload\n      swap1\n      0x0100\n      exp\n      swap1\n      div\n      0xffffffffffffffffffffffffffffffffffffffff\n      and\n        /* \"Solidity/PrisonerDillemaGame.sol\":5307:5338  Payout(participants[i], payout) */\n      0xffffffffffffffffffffffffffffffffffffffff\n      and\n      0x5afeca38b2064c23a692c4cf353015d80ab3ecc417b4f893f372690c11fbd9a6\n        /* \"Solidity/PrisonerDillemaGame.sol\":5331:5337  payout */\n      dup3\n        /* \"Solidity/PrisonerDillemaGame.sol\":5307:5338  Payout(participants[i], payout) */\n      mload(0x40)\n      tag_107\n      swap2\n      swap1\n      tag_18\n      jump\t// in\n    tag_107:\n      mload(0x40)\n      dup1\n      swap2\n      sub\n      swap1\n      log2\n        /* \"Solidity/PrisonerDillemaGame.sol\":5430:5435  false */\n      0x00\n        /* \"Solidity/PrisonerDillemaGame.sol\":5411:5417  player */\n      dup3\n        /* \"Solidity/PrisonerDillemaGame.sol\":5411:5427  player.hasChosen */\n      0x02\n      add\n      0x00\n        /* \"Solidity/PrisonerDillemaGame.sol\":5411:5435  player.hasChosen = false */\n      0x0100\n      exp\n      dup2\n      sload\n      dup2\n      0xff\n      mul\n      not\n      and\n      swap1\n      dup4\n      iszero\n      iszero\n      mul\n      or\n      swap1\n      sstore\n      pop\n        /* \"Solidity/PrisonerDillemaGame.sol\":5478:5479  0 */\n      0x00\n        /* \"Solidity/PrisonerDillemaGame.sol\":5470:5480  bytes32(0) */\n      dup1\n      shl\n        /* \"Solidity/PrisonerDillemaGame.sol\":5450:5456  player */\n      dup3\n        /* \"Solidity/PrisonerDillemaGame.sol\":5450:5467  player.commitment */\n      0x01\n      add\n        /* \"Solidity/PrisonerDillemaGame.sol\":5450:5480  player.commitment = bytes32(0) */\n      dup2\n      swap1\n      sstore\n      pop\n        /* \"Solidity/PrisonerDillemaGame.sol\":5544:5549  false */\n      0x00\n        /* \"Solidity/PrisonerDillemaGame.sol\":5528:5534  player */\n      dup3\n        /* \"Solidity/PrisonerDillemaGame.sol\":5528:5541  player.choice */\n      0x02\n      add\n      0x02\n        /* \"Solidity/PrisonerDillemaGame.sol\":5528:5549  player.choice = false */\n      0x0100\n      exp\n      dup2\n      sload\n      dup2\n      0xff\n      mul\n      not\n      and\n      swap1\n      dup4\n      iszero\n      iszero\n      mul\n      or\n      swap1\n      sstore\n      pop\n        /* \"Solidity/PrisonerDillemaGame.sol\":5601:5606  false */\n      0x00\n        /* \"Solidity/PrisonerDillemaGame.sol\":5580:5586  player */\n      dup3\n        /* \"Solidity/PrisonerDillemaGame.sol\":5580:5598  player.hasRevealed */\n      0x02\n      add\n      0x01\n        /* \"Solidity/PrisonerDillemaGame.sol\":5580:5606  player.hasRevealed = false */\n      0x0100\n      exp\n      dup2\n      sload\n      dup2\n      0xff\n      mul\n      not\n      and\n      swap1\n      dup4\n      iszero\n      iszero\n      mul\n      or\n      swap1\n      sstore\n      pop\n        /* \"Solidity/PrisonerDillemaGame.sol\":4279:5641  {\r... */\n      pop\n      pop\n        /* \"Solidity/PrisonerDillemaGame.sol\":4274:4277  i++ */\n      dup1\n      dup1\n      tag_108\n      swap1\n      tag_74\n      jump\t// in\n    tag_108:\n      swap2\n      pop\n      pop\n        /* \"Solidity/PrisonerDillemaGame.sol\":4229:5641  for (uint256 i = 0; i < participants.length; i++) {\r... */\n      jump(tag_76)\n    tag_77:\n      pop\n        /* \"Solidity/PrisonerDillemaGame.sol\":5692:5704  currentRound */\n      0x05\n      0x00\n        /* \"Solidity/PrisonerDillemaGame.sol\":5692:5706  currentRound++ */\n      dup2\n      sload\n      dup1\n      swap3\n      swap2\n      swap1\n      tag_109\n      swap1\n      tag_74\n      jump\t// in\n    tag_109:\n      swap2\n      swap1\n      pop\n      sstore\n      pop\n        /* \"Solidity/PrisonerDillemaGame.sol\":5750:5763  roundDuration */\n      sload(0x02)\n        /* \"Solidity/PrisonerDillemaGame.sol\":5732:5747  block.timestamp */\n      timestamp\n        /* \"Solidity/PrisonerDillemaGame.sol\":5732:5763  block.timestamp + roundDuration */\n      tag_110\n      swap2\n      swap1\n      tag_71\n      jump\t// in\n    tag_110:\n        /* \"Solidity/PrisonerDillemaGame.sol\":5717:5729  roundEndTime */\n      0x03\n        /* \"Solidity/PrisonerDillemaGame.sol\":5717:5763  roundEndTime = block.timestamp + roundDuration */\n      dup2\n      swap1\n      sstore\n      pop\n        /* \"Solidity/PrisonerDillemaGame.sol\":5818:5850  RoundFinalized(currentRound - 1) */\n      0xd49620ec6474d72a2f05dd60f5ab59ad0d2d9d29090cb3b81defc30db3d510c3\n        /* \"Solidity/PrisonerDillemaGame.sol\":5848:5849  1 */\n      0x01\n        /* \"Solidity/PrisonerDillemaGame.sol\":5833:5845  currentRound */\n      sload(0x05)\n        /* \"Solidity/PrisonerDillemaGame.sol\":5833:5849  currentRound - 1 */\n      tag_111\n      swap2\n      swap1\n      tag_112\n      jump\t// in\n    tag_111:\n        /* \"Solidity/PrisonerDillemaGame.sol\":5818:5850  RoundFinalized(currentRound - 1) */\n      mload(0x40)\n      tag_113\n      swap2\n      swap1\n      tag_18\n      jump\t// in\n    tag_113:\n      mload(0x40)\n      dup1\n      swap2\n      sub\n      swap1\n      log1\n        /* \"Solidity/PrisonerDillemaGame.sol\":3474:5858  {\r... */\n      pop\n      pop\n        /* \"Solidity/PrisonerDillemaGame.sol\":3440:5858  function finalizeRound() external {\r... */\n      jump\t// out\n        /* \"Solidity/PrisonerDillemaGame.sol\":672:707  PrisonerDilemmaCoin public pdcToken */\n    tag_22:\n      0x00\n      dup1\n      sload\n      swap1\n      0x0100\n      exp\n      swap1\n      div\n      0xffffffffffffffffffffffffffffffffffffffff\n      and\n      dup2\n      jump\t// out\n        /* \"Solidity/PrisonerDillemaGame.sol\":1258:1287  address[] public participants */\n    tag_28:\n      0x07\n      dup2\n      dup2\n      sload\n      dup2\n      lt\n      tag_114\n      jumpi\n      0x00\n      dup1\n      revert\n    tag_114:\n      swap1\n      0x00\n      mstore\n      keccak256(0x00, 0x20)\n      add\n      0x00\n      swap2\n      pop\n      sload\n      swap1\n      0x0100\n      exp\n      swap1\n      div\n      0xffffffffffffffffffffffffffffffffffffffff\n      and\n      dup2\n      jump\t// out\n        /* \"Solidity/PrisonerDillemaGame.sol\":2790:3383  function commitChoice(bool _betray, uint256 _nonce) external {\r... */\n    tag_34:\n        /* \"Solidity/PrisonerDillemaGame.sol\":2900:2901  0 */\n      0x00\n        /* \"Solidity/PrisonerDillemaGame.sol\":2870:2877  players */\n      0x06\n        /* \"Solidity/PrisonerDillemaGame.sol\":2870:2889  players[msg.sender] */\n      0x00\n        /* \"Solidity/PrisonerDillemaGame.sol\":2878:2888  msg.sender */\n      caller\n        /* \"Solidity/PrisonerDillemaGame.sol\":2870:2889  players[msg.sender] */\n      0xffffffffffffffffffffffffffffffffffffffff\n      and\n      0xffffffffffffffffffffffffffffffffffffffff\n      and\n      dup2\n      mstore\n      0x20\n      add\n      swap1\n      dup2\n      mstore\n      0x20\n      add\n      0x00\n      keccak256\n        /* \"Solidity/PrisonerDillemaGame.sol\":2870:2897  players[msg.sender].deposit */\n      0x00\n      add\n      sload\n        /* \"Solidity/PrisonerDillemaGame.sol\":2870:2901  players[msg.sender].deposit > 0 */\n      gt\n        /* \"Solidity/PrisonerDillemaGame.sol\":2862:2923  require(players[msg.sender].deposit > 0, \"Not a participant\") */\n      tag_117\n      jumpi\n      mload(0x40)\n      0x08c379a000000000000000000000000000000000000000000000000000000000\n      dup2\n      mstore\n      0x04\n      add\n      tag_118\n      swap1\n      tag_119\n      jump\t// in\n    tag_118:\n      mload(0x40)\n      dup1\n      swap2\n      sub\n      swap1\n      revert\n    tag_117:\n        /* \"Solidity/PrisonerDillemaGame.sol\":2943:2950  players */\n      0x06\n        /* \"Solidity/PrisonerDillemaGame.sol\":2943:2962  players[msg.sender] */\n      0x00\n        /* \"Solidity/PrisonerDillemaGame.sol\":2951:2961  msg.sender */\n      caller\n        /* \"Solidity/PrisonerDillemaGame.sol\":2943:2962  players[msg.sender] */\n      0xffffffffffffffffffffffffffffffffffffffff\n      and\n      0xffffffffffffffffffffffffffffffffffffffff\n      and\n      dup2\n      mstore\n      0x20\n      add\n      swap1\n      dup2\n      mstore\n      0x20\n      add\n      0x00\n      keccak256\n        /* \"Solidity/PrisonerDillemaGame.sol\":2943:2972  players[msg.sender].hasChosen */\n      0x02\n      add\n      0x00\n      swap1\n      sload\n      swap1\n      0x0100\n      exp\n      swap1\n      div\n      0xff\n      and\n        /* \"Solidity/PrisonerDillemaGame.sol\":2942:2972  !players[msg.sender].hasChosen */\n      iszero\n        /* \"Solidity/PrisonerDillemaGame.sol\":2934:2996  require(!players[msg.sender].hasChosen, \"Choice already made\") */\n      tag_120\n      jumpi\n      mload(0x40)\n      0x08c379a000000000000000000000000000000000000000000000000000000000\n      dup2\n      mstore\n      0x04\n      add\n      tag_121\n      swap1\n      tag_122\n      jump\t// in\n    tag_121:\n      mload(0x40)\n      dup1\n      swap2\n      sub\n      swap1\n      revert\n    tag_120:\n        /* \"Solidity/PrisonerDillemaGame.sol\":3129:3136  _betray */\n      dup2\n        /* \"Solidity/PrisonerDillemaGame.sol\":3138:3144  _nonce */\n      dup2\n        /* \"Solidity/PrisonerDillemaGame.sol\":3112:3145  abi.encodePacked(_betray, _nonce) */\n      add(0x20, mload(0x40))\n      tag_123\n      swap3\n      swap2\n      swap1\n      tag_124\n      jump\t// in\n    tag_123:\n      mload(0x40)\n      0x20\n      dup2\n      dup4\n      sub\n      sub\n      dup2\n      mstore\n      swap1\n      0x40\n      mstore\n        /* \"Solidity/PrisonerDillemaGame.sol\":3102:3146  keccak256(abi.encodePacked(_betray, _nonce)) */\n      dup1\n      mload\n      swap1\n      0x20\n      add\n      keccak256\n        /* \"Solidity/PrisonerDillemaGame.sol\":3069:3076  players */\n      0x06\n        /* \"Solidity/PrisonerDillemaGame.sol\":3069:3088  players[msg.sender] */\n      0x00\n        /* \"Solidity/PrisonerDillemaGame.sol\":3077:3087  msg.sender */\n      caller\n        /* \"Solidity/PrisonerDillemaGame.sol\":3069:3088  players[msg.sender] */\n      0xffffffffffffffffffffffffffffffffffffffff\n      and\n      0xffffffffffffffffffffffffffffffffffffffff\n      and\n      dup2\n      mstore\n      0x20\n      add\n      swap1\n      dup2\n      mstore\n      0x20\n      add\n      0x00\n      keccak256\n        /* \"Solidity/PrisonerDillemaGame.sol\":3069:3099  players[msg.sender].commitment */\n      0x01\n      add\n        /* \"Solidity/PrisonerDillemaGame.sol\":3069:3146  players[msg.sender].commitment = keccak256(abi.encodePacked(_betray, _nonce)) */\n      dup2\n      swap1\n      sstore\n      pop\n        /* \"Solidity/PrisonerDillemaGame.sol\":3189:3193  true */\n      0x01\n        /* \"Solidity/PrisonerDillemaGame.sol\":3157:3164  players */\n      0x06\n        /* \"Solidity/PrisonerDillemaGame.sol\":3157:3176  players[msg.sender] */\n      0x00\n        /* \"Solidity/PrisonerDillemaGame.sol\":3165:3175  msg.sender */\n      caller\n        /* \"Solidity/PrisonerDillemaGame.sol\":3157:3176  players[msg.sender] */\n      0xffffffffffffffffffffffffffffffffffffffff\n      and\n      0xffffffffffffffffffffffffffffffffffffffff\n      and\n      dup2\n      mstore\n      0x20\n      add\n      swap1\n      dup2\n      mstore\n      0x20\n      add\n      0x00\n      keccak256\n        /* \"Solidity/PrisonerDillemaGame.sol\":3157:3186  players[msg.sender].hasChosen */\n      0x02\n      add\n      0x00\n        /* \"Solidity/PrisonerDillemaGame.sol\":3157:3193  players[msg.sender].hasChosen = true */\n      0x0100\n      exp\n      dup2\n      sload\n      dup2\n      0xff\n      mul\n      not\n      and\n      swap1\n      dup4\n      iszero\n      iszero\n      mul\n      or\n      swap1\n      sstore\n      pop\n        /* \"Solidity/PrisonerDillemaGame.sol\":3319:3326  _betray */\n      dup2\n        /* \"Solidity/PrisonerDillemaGame.sol\":3290:3297  players */\n      0x06\n        /* \"Solidity/PrisonerDillemaGame.sol\":3290:3309  players[msg.sender] */\n      0x00\n        /* \"Solidity/PrisonerDillemaGame.sol\":3298:3308  msg.sender */\n      caller\n        /* \"Solidity/PrisonerDillemaGame.sol\":3290:3309  players[msg.sender] */\n      0xffffffffffffffffffffffffffffffffffffffff\n      and\n      0xffffffffffffffffffffffffffffffffffffffff\n      and\n      dup2\n      mstore\n      0x20\n      add\n      swap1\n      dup2\n      mstore\n      0x20\n      add\n      0x00\n      keccak256\n        /* \"Solidity/PrisonerDillemaGame.sol\":3290:3316  players[msg.sender].choice */\n      0x02\n      add\n      0x02\n        /* \"Solidity/PrisonerDillemaGame.sol\":3290:3326  players[msg.sender].choice = _betray */\n      0x0100\n      exp\n      dup2\n      sload\n      dup2\n      0xff\n      mul\n      not\n      and\n      swap1\n      dup4\n      iszero\n      iszero\n      mul\n      or\n      swap1\n      sstore\n      pop\n        /* \"Solidity/PrisonerDillemaGame.sol\":3355:3365  msg.sender */\n      caller\n        /* \"Solidity/PrisonerDillemaGame.sol\":3344:3375  ChoiceMade(msg.sender, _betray) */\n      0xffffffffffffffffffffffffffffffffffffffff\n      and\n      0xffea1f4d20f01e3e8bbe54abed70fc7cc14b6589a78a35cff1c7395a88184733\n        /* \"Solidity/PrisonerDillemaGame.sol\":3367:3374  _betray */\n      dup4\n        /* \"Solidity/PrisonerDillemaGame.sol\":3344:3375  ChoiceMade(msg.sender, _betray) */\n      mload(0x40)\n      tag_125\n      swap2\n      swap1\n      tag_126\n      jump\t// in\n    tag_125:\n      mload(0x40)\n      dup1\n      swap2\n      sub\n      swap1\n      log2\n        /* \"Solidity/PrisonerDillemaGame.sol\":2790:3383  function commitChoice(bool _betray, uint256 _nonce) external {\r... */\n      pop\n      pop\n      jump\t// out\n        /* \"Solidity/PrisonerDillemaGame.sol\":1086:1113  uint256 public currentRound */\n    tag_36:\n      sload(0x05)\n      dup2\n      jump\t// out\n        /* \"Solidity/PrisonerDillemaGame.sol\":1015:1035  address public owner */\n    tag_39:\n      0x04\n      0x00\n      swap1\n      sload\n      swap1\n      0x0100\n      exp\n      swap1\n      div\n      0xffffffffffffffffffffffffffffffffffffffff\n      and\n      dup2\n      jump\t// out\n        /* \"Solidity/PrisonerDillemaGame.sol\":2170:2746  function joinGame() external {\r... */\n    tag_42:\n        /* \"Solidity/PrisonerDillemaGame.sol\":2218:2226  pdcToken */\n      0x00\n      dup1\n      sload\n      swap1\n      0x0100\n      exp\n      swap1\n      div\n      0xffffffffffffffffffffffffffffffffffffffff\n      and\n        /* \"Solidity/PrisonerDillemaGame.sol\":2218:2239  pdcToken.transferFrom */\n      0xffffffffffffffffffffffffffffffffffffffff\n      and\n      0x23b872dd\n        /* \"Solidity/PrisonerDillemaGame.sol\":2240:2250  msg.sender */\n      caller\n        /* \"Solidity/PrisonerDillemaGame.sol\":2260:2264  this */\n      address\n        /* \"Solidity/PrisonerDillemaGame.sol\":2267:2275  entryFee */\n      sload(0x01)\n        /* \"Solidity/PrisonerDillemaGame.sol\":2218:2276  pdcToken.transferFrom(msg.sender, address(this), entryFee) */\n      mload(0x40)\n      dup5\n      0xffffffff\n      and\n      0xe0\n      shl\n      dup2\n      mstore\n      0x04\n      add\n      tag_128\n      swap4\n      swap3\n      swap2\n      swap1\n      tag_129\n      jump\t// in\n    tag_128:\n      0x20\n      mload(0x40)\n      dup1\n      dup4\n      sub\n      dup2\n      0x00\n      dup8\n      dup1\n      extcodesize\n      iszero\n      dup1\n      iszero\n      tag_130\n      jumpi\n      0x00\n      dup1\n      revert\n    tag_130:\n      pop\n      gas\n      call\n      iszero\n      dup1\n      iszero\n      tag_132\n      jumpi\n      returndatasize\n      0x00\n      dup1\n      returndatacopy\n      revert(0x00, returndatasize)\n    tag_132:\n      pop\n      pop\n      pop\n      pop\n      mload(0x40)\n      returndatasize\n      not(0x1f)\n      0x1f\n      dup3\n      add\n      and\n      dup3\n      add\n      dup1\n      0x40\n      mstore\n      pop\n      dup2\n      add\n      swap1\n      tag_133\n      swap2\n      swap1\n      tag_103\n      jump\t// in\n    tag_133:\n        /* \"Solidity/PrisonerDillemaGame.sol\":2210:2296  require(pdcToken.transferFrom(msg.sender, address(this), entryFee), \"Transfer failed\") */\n      tag_134\n      jumpi\n      mload(0x40)\n      0x08c379a000000000000000000000000000000000000000000000000000000000\n      dup2\n      mstore\n      0x04\n      add\n      tag_135\n      swap1\n      tag_136\n      jump\t// in\n    tag_135:\n      mload(0x40)\n      dup1\n      swap2\n      sub\n      swap1\n      revert\n    tag_134:\n        /* \"Solidity/PrisonerDillemaGame.sol\":2349:2361  currentRound */\n      sload(0x05)\n        /* \"Solidity/PrisonerDillemaGame.sol\":2315:2322  players */\n      0x06\n        /* \"Solidity/PrisonerDillemaGame.sol\":2315:2334  players[msg.sender] */\n      0x00\n        /* \"Solidity/PrisonerDillemaGame.sol\":2323:2333  msg.sender */\n      caller\n        /* \"Solidity/PrisonerDillemaGame.sol\":2315:2334  players[msg.sender] */\n      0xffffffffffffffffffffffffffffffffffffffff\n      and\n      0xffffffffffffffffffffffffffffffffffffffff\n      and\n      dup2\n      mstore\n      0x20\n      add\n      swap1\n      dup2\n      mstore\n      0x20\n      add\n      0x00\n      keccak256\n        /* \"Solidity/PrisonerDillemaGame.sol\":2315:2346  players[msg.sender].roundJoined */\n      0x03\n      add\n      sload\n        /* \"Solidity/PrisonerDillemaGame.sol\":2315:2361  players[msg.sender].roundJoined < currentRound */\n      lt\n        /* \"Solidity/PrisonerDillemaGame.sol\":2307:2391  require(players[msg.sender].roundJoined < currentRound, \"Already joined this round\") */\n      tag_137\n      jumpi\n      mload(0x40)\n      0x08c379a000000000000000000000000000000000000000000000000000000000\n      dup2\n      mstore\n      0x04\n      add\n      tag_138\n      swap1\n      tag_139\n      jump\t// in\n    tag_138:\n      mload(0x40)\n      dup1\n      swap2\n      sub\n      swap1\n      revert\n    tag_137:\n        /* \"Solidity/PrisonerDillemaGame.sol\":2404:2416  participants */\n      0x07\n        /* \"Solidity/PrisonerDillemaGame.sol\":2422:2432  msg.sender */\n      caller\n        /* \"Solidity/PrisonerDillemaGame.sol\":2404:2433  participants.push(msg.sender) */\n      swap1\n      dup1\n      0x01\n      dup2\n      sload\n      add\n      dup1\n      dup3\n      sstore\n      dup1\n      swap2\n      pop\n      pop\n      0x01\n      swap1\n      sub\n      swap1\n      0x00\n      mstore\n      keccak256(0x00, 0x20)\n      add\n      0x00\n      swap1\n      swap2\n      swap1\n      swap2\n      swap1\n      swap2\n      0x0100\n      exp\n      dup2\n      sload\n      dup2\n      0xffffffffffffffffffffffffffffffffffffffff\n      mul\n      not\n      and\n      swap1\n      dup4\n      0xffffffffffffffffffffffffffffffffffffffff\n      and\n      mul\n      or\n      swap1\n      sstore\n      pop\n        /* \"Solidity/PrisonerDillemaGame.sol\":2466:2686  Player({\r... */\n      mload(0x40)\n      dup1\n      0xc0\n      add\n      0x40\n      mstore\n      dup1\n        /* \"Solidity/PrisonerDillemaGame.sol\":2497:2505  entryFee */\n      sload(0x01)\n        /* \"Solidity/PrisonerDillemaGame.sol\":2466:2686  Player({\r... */\n      dup2\n      mstore\n      0x20\n      add\n        /* \"Solidity/PrisonerDillemaGame.sol\":2540:2541  0 */\n      0x00\n        /* \"Solidity/PrisonerDillemaGame.sol\":2532:2542  bytes32(0) */\n      dup1\n      shl\n        /* \"Solidity/PrisonerDillemaGame.sol\":2466:2686  Player({\r... */\n      dup2\n      mstore\n      0x20\n      add\n        /* \"Solidity/PrisonerDillemaGame.sol\":2568:2573  false */\n      0x00\n        /* \"Solidity/PrisonerDillemaGame.sol\":2466:2686  Player({\r... */\n      iszero\n      iszero\n      dup2\n      mstore\n      0x20\n      add\n        /* \"Solidity/PrisonerDillemaGame.sol\":2601:2606  false */\n      0x00\n        /* \"Solidity/PrisonerDillemaGame.sol\":2466:2686  Player({\r... */\n      iszero\n      iszero\n      dup2\n      mstore\n      0x20\n      add\n        /* \"Solidity/PrisonerDillemaGame.sol\":2629:2634  false */\n      0x00\n        /* \"Solidity/PrisonerDillemaGame.sol\":2466:2686  Player({\r... */\n      iszero\n      iszero\n      dup2\n      mstore\n      0x20\n      add\n        /* \"Solidity/PrisonerDillemaGame.sol\":2662:2674  currentRound */\n      sload(0x05)\n        /* \"Solidity/PrisonerDillemaGame.sol\":2466:2686  Player({\r... */\n      dup2\n      mstore\n      pop\n        /* \"Solidity/PrisonerDillemaGame.sol\":2444:2451  players */\n      0x06\n        /* \"Solidity/PrisonerDillemaGame.sol\":2444:2463  players[msg.sender] */\n      0x00\n        /* \"Solidity/PrisonerDillemaGame.sol\":2452:2462  msg.sender */\n      caller\n        /* \"Solidity/PrisonerDillemaGame.sol\":2444:2463  players[msg.sender] */\n      0xffffffffffffffffffffffffffffffffffffffff\n      and\n      0xffffffffffffffffffffffffffffffffffffffff\n      and\n      dup2\n      mstore\n      0x20\n      add\n      swap1\n      dup2\n      mstore\n      0x20\n      add\n      0x00\n      keccak256\n        /* \"Solidity/PrisonerDillemaGame.sol\":2444:2686  players[msg.sender] = Player({\r... */\n      0x00\n      dup3\n      add\n      mload\n      dup2\n      0x00\n      add\n      sstore\n      0x20\n      dup3\n      add\n      mload\n      dup2\n      0x01\n      add\n      sstore\n      0x40\n      dup3\n      add\n      mload\n      dup2\n      0x02\n      add\n      exp(0x0100, 0x00)\n      dup2\n      sload\n      dup2\n      0xff\n      mul\n      not\n      and\n      swap1\n      dup4\n      iszero\n      iszero\n      mul\n      or\n      swap1\n      sstore\n      pop\n      0x60\n      dup3\n      add\n      mload\n      dup2\n      0x02\n      add\n      exp(0x0100, 0x01)\n      dup2\n      sload\n      dup2\n      0xff\n      mul\n      not\n      and\n      swap1\n      dup4\n      iszero\n      iszero\n      mul\n      or\n      swap1\n      sstore\n      pop\n      0x80\n      dup3\n      add\n      mload\n      dup2\n      0x02\n      add\n      exp(0x0100, 0x02)\n      dup2\n      sload\n      dup2\n      0xff\n      mul\n      not\n      and\n      swap1\n      dup4\n      iszero\n      iszero\n      mul\n      or\n      swap1\n      sstore\n      pop\n      0xa0\n      dup3\n      add\n      mload\n      dup2\n      0x03\n      add\n      sstore\n      swap1\n      pop\n      pop\n        /* \"Solidity/PrisonerDillemaGame.sol\":2717:2727  msg.sender */\n      caller\n        /* \"Solidity/PrisonerDillemaGame.sol\":2704:2738  PlayerJoined(msg.sender, entryFee) */\n      0xffffffffffffffffffffffffffffffffffffffff\n      and\n      0x3330a6773675f31f62070870f40379f8c6d42e3761410011a4dfc42b18043d2f\n        /* \"Solidity/PrisonerDillemaGame.sol\":2729:2737  entryFee */\n      sload(0x01)\n        /* \"Solidity/PrisonerDillemaGame.sol\":2704:2738  PlayerJoined(msg.sender, entryFee) */\n      mload(0x40)\n      tag_141\n      swap2\n      swap1\n      tag_18\n      jump\t// in\n    tag_141:\n      mload(0x40)\n      dup1\n      swap2\n      sub\n      swap1\n      log2\n        /* \"Solidity/PrisonerDillemaGame.sol\":2170:2746  function joinGame() external {\r... */\n      jump\t// out\n        /* \"Solidity/PrisonerDillemaGame.sol\":1169:1210  mapping(address => Player) public players */\n    tag_46:\n      mstore(0x20, 0x06)\n      dup1\n      0x00\n      mstore\n      keccak256(0x00, 0x40)\n      0x00\n      swap2\n      pop\n      swap1\n      pop\n      dup1\n      0x00\n      add\n      sload\n      swap1\n      dup1\n      0x01\n      add\n      sload\n      swap1\n      dup1\n      0x02\n      add\n      0x00\n      swap1\n      sload\n      swap1\n      0x0100\n      exp\n      swap1\n      div\n      0xff\n      and\n      swap1\n      dup1\n      0x02\n      add\n      0x01\n      swap1\n      sload\n      swap1\n      0x0100\n      exp\n      swap1\n      div\n      0xff\n      and\n      swap1\n      dup1\n      0x02\n      add\n      0x02\n      swap1\n      sload\n      swap1\n      0x0100\n      exp\n      swap1\n      div\n      0xff\n      and\n      swap1\n      dup1\n      0x03\n      add\n      sload\n      swap1\n      pop\n      dup7\n      jump\t// out\n        /* \"Solidity/PrisonerDillemaGame.sol\":932:959  uint256 public roundEndTime */\n    tag_50:\n      sload(0x03)\n      dup2\n      jump\t// out\n        /* \"Solidity/PrisonerDillemaGame.sol\":844:872  uint256 public roundDuration */\n    tag_53:\n      sload(0x02)\n      dup2\n      jump\t// out\n        /* \"#utility.yul\":7:146   */\n    tag_143:\n        /* \"#utility.yul\":53:58   */\n      0x00\n        /* \"#utility.yul\":91:97   */\n      dup2\n        /* \"#utility.yul\":78:98   */\n      calldataload\n        /* \"#utility.yul\":69:98   */\n      swap1\n      pop\n        /* \"#utility.yul\":107:140   */\n      tag_145\n        /* \"#utility.yul\":134:139   */\n      dup2\n        /* \"#utility.yul\":107:140   */\n      tag_146\n      jump\t// in\n    tag_145:\n        /* \"#utility.yul\":7:146   */\n      swap3\n      swap2\n      pop\n      pop\n      jump\t// out\n        /* \"#utility.yul\":152:285   */\n    tag_147:\n        /* \"#utility.yul\":195:200   */\n      0x00\n        /* \"#utility.yul\":233:239   */\n      dup2\n        /* \"#utility.yul\":220:240   */\n      calldataload\n        /* \"#utility.yul\":211:240   */\n      swap1\n      pop\n        /* \"#utility.yul\":249:279   */\n      tag_149\n        /* \"#utility.yul\":273:278   */\n      dup2\n        /* \"#utility.yul\":249:279   */\n      tag_150\n      jump\t// in\n    tag_149:\n        /* \"#utility.yul\":152:285   */\n      swap3\n      swap2\n      pop\n      pop\n      jump\t// out\n        /* \"#utility.yul\":291:428   */\n    tag_151:\n        /* \"#utility.yul\":345:350   */\n      0x00\n        /* \"#utility.yul\":376:382   */\n      dup2\n        /* \"#utility.yul\":370:383   */\n      mload\n        /* \"#utility.yul\":361:383   */\n      swap1\n      pop\n        /* \"#utility.yul\":392:422   */\n      tag_153\n        /* \"#utility.yul\":416:421   */\n      dup2\n        /* \"#utility.yul\":392:422   */\n      tag_150\n      jump\t// in\n    tag_153:\n        /* \"#utility.yul\":291:428   */\n      swap3\n      swap2\n      pop\n      pop\n      jump\t// out\n        /* \"#utility.yul\":434:573   */\n    tag_154:\n        /* \"#utility.yul\":480:485   */\n      0x00\n        /* \"#utility.yul\":518:524   */\n      dup2\n        /* \"#utility.yul\":505:525   */\n      calldataload\n        /* \"#utility.yul\":496:525   */\n      swap1\n      pop\n        /* \"#utility.yul\":534:567   */\n      tag_156\n        /* \"#utility.yul\":561:566   */\n      dup2\n        /* \"#utility.yul\":534:567   */\n      tag_157\n      jump\t// in\n    tag_156:\n        /* \"#utility.yul\":434:573   */\n      swap3\n      swap2\n      pop\n      pop\n      jump\t// out\n        /* \"#utility.yul\":579:908   */\n    tag_45:\n        /* \"#utility.yul\":638:644   */\n      0x00\n        /* \"#utility.yul\":687:689   */\n      0x20\n        /* \"#utility.yul\":675:684   */\n      dup3\n        /* \"#utility.yul\":666:673   */\n      dup5\n        /* \"#utility.yul\":662:685   */\n      sub\n        /* \"#utility.yul\":658:690   */\n      slt\n        /* \"#utility.yul\":655:774   */\n      iszero\n      tag_159\n      jumpi\n        /* \"#utility.yul\":693:772   */\n      tag_160\n      tag_161\n      jump\t// in\n    tag_160:\n        /* \"#utility.yul\":655:774   */\n    tag_159:\n        /* \"#utility.yul\":813:814   */\n      0x00\n        /* \"#utility.yul\":838:891   */\n      tag_162\n        /* \"#utility.yul\":883:890   */\n      dup5\n        /* \"#utility.yul\":874:880   */\n      dup3\n        /* \"#utility.yul\":863:872   */\n      dup6\n        /* \"#utility.yul\":859:881   */\n      add\n        /* \"#utility.yul\":838:891   */\n      tag_143\n      jump\t// in\n    tag_162:\n        /* \"#utility.yul\":828:891   */\n      swap2\n      pop\n        /* \"#utility.yul\":784:901   */\n      pop\n        /* \"#utility.yul\":579:908   */\n      swap3\n      swap2\n      pop\n      pop\n      jump\t// out\n        /* \"#utility.yul\":914:1259   */\n    tag_103:\n        /* \"#utility.yul\":981:987   */\n      0x00\n        /* \"#utility.yul\":1030:1032   */\n      0x20\n        /* \"#utility.yul\":1018:1027   */\n      dup3\n        /* \"#utility.yul\":1009:1016   */\n      dup5\n        /* \"#utility.yul\":1005:1028   */\n      sub\n        /* \"#utility.yul\":1001:1033   */\n      slt\n        /* \"#utility.yul\":998:1117   */\n      iszero\n      tag_164\n      jumpi\n        /* \"#utility.yul\":1036:1115   */\n      tag_165\n      tag_161\n      jump\t// in\n    tag_165:\n        /* \"#utility.yul\":998:1117   */\n    tag_164:\n        /* \"#utility.yul\":1156:1157   */\n      0x00\n        /* \"#utility.yul\":1181:1242   */\n      tag_166\n        /* \"#utility.yul\":1234:1241   */\n      dup5\n        /* \"#utility.yul\":1225:1231   */\n      dup3\n        /* \"#utility.yul\":1214:1223   */\n      dup6\n        /* \"#utility.yul\":1210:1232   */\n      add\n        /* \"#utility.yul\":1181:1242   */\n      tag_151\n      jump\t// in\n    tag_166:\n        /* \"#utility.yul\":1171:1242   */\n      swap2\n      pop\n        /* \"#utility.yul\":1127:1252   */\n      pop\n        /* \"#utility.yul\":914:1259   */\n      swap3\n      swap2\n      pop\n      pop\n      jump\t// out\n        /* \"#utility.yul\":1265:1733   */\n    tag_33:\n        /* \"#utility.yul\":1330:1336   */\n      0x00\n        /* \"#utility.yul\":1338:1344   */\n      dup1\n        /* \"#utility.yul\":1387:1389   */\n      0x40\n        /* \"#utility.yul\":1375:1384   */\n      dup4\n        /* \"#utility.yul\":1366:1373   */\n      dup6\n        /* \"#utility.yul\":1362:1385   */\n      sub\n        /* \"#utility.yul\":1358:1390   */\n      slt\n        /* \"#utility.yul\":1355:1474   */\n      iszero\n      tag_168\n      jumpi\n        /* \"#utility.yul\":1393:1472   */\n      tag_169\n      tag_161\n      jump\t// in\n    tag_169:\n        /* \"#utility.yul\":1355:1474   */\n    tag_168:\n        /* \"#utility.yul\":1513:1514   */\n      0x00\n        /* \"#utility.yul\":1538:1588   */\n      tag_170\n        /* \"#utility.yul\":1580:1587   */\n      dup6\n        /* \"#utility.yul\":1571:1577   */\n      dup3\n        /* \"#utility.yul\":1560:1569   */\n      dup7\n        /* \"#utility.yul\":1556:1578   */\n      add\n        /* \"#utility.yul\":1538:1588   */\n      tag_147\n      jump\t// in\n    tag_170:\n        /* \"#utility.yul\":1528:1588   */\n      swap3\n      pop\n        /* \"#utility.yul\":1484:1598   */\n      pop\n        /* \"#utility.yul\":1637:1639   */\n      0x20\n        /* \"#utility.yul\":1663:1716   */\n      tag_171\n        /* \"#utility.yul\":1708:1715   */\n      dup6\n        /* \"#utility.yul\":1699:1705   */\n      dup3\n        /* \"#utility.yul\":1688:1697   */\n      dup7\n        /* \"#utility.yul\":1684:1706   */\n      add\n        /* \"#utility.yul\":1663:1716   */\n      tag_154\n      jump\t// in\n    tag_171:\n        /* \"#utility.yul\":1653:1716   */\n      swap2\n      pop\n        /* \"#utility.yul\":1608:1726   */\n      pop\n        /* \"#utility.yul\":1265:1733   */\n      swap3\n      pop\n      swap3\n      swap1\n      pop\n      jump\t// out\n        /* \"#utility.yul\":1739:2068   */\n    tag_27:\n        /* \"#utility.yul\":1798:1804   */\n      0x00\n        /* \"#utility.yul\":1847:1849   */\n      0x20\n        /* \"#utility.yul\":1835:1844   */\n      dup3\n        /* \"#utility.yul\":1826:1833   */\n      dup5\n        /* \"#utility.yul\":1822:1845   */\n      sub\n        /* \"#utility.yul\":1818:1850   */\n      slt\n        /* \"#utility.yul\":1815:1934   */\n      iszero\n      tag_173\n      jumpi\n        /* \"#utility.yul\":1853:1932   */\n      tag_174\n      tag_161\n      jump\t// in\n    tag_174:\n        /* \"#utility.yul\":1815:1934   */\n    tag_173:\n        /* \"#utility.yul\":1973:1974   */\n      0x00\n        /* \"#utility.yul\":1998:2051   */\n      tag_175\n        /* \"#utility.yul\":2043:2050   */\n      dup5\n        /* \"#utility.yul\":2034:2040   */\n      dup3\n        /* \"#utility.yul\":2023:2032   */\n      dup6\n        /* \"#utility.yul\":2019:2041   */\n      add\n        /* \"#utility.yul\":1998:2051   */\n      tag_154\n      jump\t// in\n    tag_175:\n        /* \"#utility.yul\":1988:2051   */\n      swap2\n      pop\n        /* \"#utility.yul\":1944:2061   */\n      pop\n        /* \"#utility.yul\":1739:2068   */\n      swap3\n      swap2\n      pop\n      pop\n      jump\t// out\n        /* \"#utility.yul\":2074:2192   */\n    tag_176:\n        /* \"#utility.yul\":2161:2185   */\n      tag_178\n        /* \"#utility.yul\":2179:2184   */\n      dup2\n        /* \"#utility.yul\":2161:2185   */\n      tag_179\n      jump\t// in\n    tag_178:\n        /* \"#utility.yul\":2156:2159   */\n      dup3\n        /* \"#utility.yul\":2149:2186   */\n      mstore\n        /* \"#utility.yul\":2074:2192   */\n      pop\n      pop\n      jump\t// out\n        /* \"#utility.yul\":2198:2307   */\n    tag_180:\n        /* \"#utility.yul\":2279:2300   */\n      tag_182\n        /* \"#utility.yul\":2294:2299   */\n      dup2\n        /* \"#utility.yul\":2279:2300   */\n      tag_183\n      jump\t// in\n    tag_182:\n        /* \"#utility.yul\":2274:2277   */\n      dup3\n        /* \"#utility.yul\":2267:2301   */\n      mstore\n        /* \"#utility.yul\":2198:2307   */\n      pop\n      pop\n      jump\t// out\n        /* \"#utility.yul\":2313:2458   */\n    tag_184:\n        /* \"#utility.yul\":2412:2451   */\n      tag_186\n        /* \"#utility.yul\":2429:2450   */\n      tag_187\n        /* \"#utility.yul\":2444:2449   */\n      dup3\n        /* \"#utility.yul\":2429:2450   */\n      tag_183\n      jump\t// in\n    tag_187:\n        /* \"#utility.yul\":2412:2451   */\n      tag_188\n      jump\t// in\n    tag_186:\n        /* \"#utility.yul\":2407:2410   */\n      dup3\n        /* \"#utility.yul\":2400:2452   */\n      mstore\n        /* \"#utility.yul\":2313:2458   */\n      pop\n      pop\n      jump\t// out\n        /* \"#utility.yul\":2464:2582   */\n    tag_189:\n        /* \"#utility.yul\":2551:2575   */\n      tag_191\n        /* \"#utility.yul\":2569:2574   */\n      dup2\n        /* \"#utility.yul\":2551:2575   */\n      tag_192\n      jump\t// in\n    tag_191:\n        /* \"#utility.yul\":2546:2549   */\n      dup3\n        /* \"#utility.yul\":2539:2576   */\n      mstore\n        /* \"#utility.yul\":2464:2582   */\n      pop\n      pop\n      jump\t// out\n        /* \"#utility.yul\":2588:2771   */\n    tag_193:\n        /* \"#utility.yul\":2701:2764   */\n      tag_195\n        /* \"#utility.yul\":2758:2763   */\n      dup2\n        /* \"#utility.yul\":2701:2764   */\n      tag_196\n      jump\t// in\n    tag_195:\n        /* \"#utility.yul\":2696:2699   */\n      dup3\n        /* \"#utility.yul\":2689:2765   */\n      mstore\n        /* \"#utility.yul\":2588:2771   */\n      pop\n      pop\n      jump\t// out\n        /* \"#utility.yul\":2777:3143   */\n    tag_197:\n        /* \"#utility.yul\":2919:2922   */\n      0x00\n        /* \"#utility.yul\":2940:3007   */\n      tag_199\n        /* \"#utility.yul\":3004:3006   */\n      0x11\n        /* \"#utility.yul\":2999:3002   */\n      dup4\n        /* \"#utility.yul\":2940:3007   */\n      tag_200\n      jump\t// in\n    tag_199:\n        /* \"#utility.yul\":2933:3007   */\n      swap2\n      pop\n        /* \"#utility.yul\":3016:3109   */\n      tag_201\n        /* \"#utility.yul\":3105:3108   */\n      dup3\n        /* \"#utility.yul\":3016:3109   */\n      tag_202\n      jump\t// in\n    tag_201:\n        /* \"#utility.yul\":3134:3136   */\n      0x20\n        /* \"#utility.yul\":3129:3132   */\n      dup3\n        /* \"#utility.yul\":3125:3137   */\n      add\n        /* \"#utility.yul\":3118:3137   */\n      swap1\n      pop\n        /* \"#utility.yul\":2777:3143   */\n      swap2\n      swap1\n      pop\n      jump\t// out\n        /* \"#utility.yul\":3149:3515   */\n    tag_203:\n        /* \"#utility.yul\":3291:3294   */\n      0x00\n        /* \"#utility.yul\":3312:3379   */\n      tag_205\n        /* \"#utility.yul\":3376:3378   */\n      0x1b\n        /* \"#utility.yul\":3371:3374   */\n      dup4\n        /* \"#utility.yul\":3312:3379   */\n      tag_200\n      jump\t// in\n    tag_205:\n        /* \"#utility.yul\":3305:3379   */\n      swap2\n      pop\n        /* \"#utility.yul\":3388:3481   */\n      tag_206\n        /* \"#utility.yul\":3477:3480   */\n      dup3\n        /* \"#utility.yul\":3388:3481   */\n      tag_207\n      jump\t// in\n    tag_206:\n        /* \"#utility.yul\":3506:3508   */\n      0x20\n        /* \"#utility.yul\":3501:3504   */\n      dup3\n        /* \"#utility.yul\":3497:3509   */\n      add\n        /* \"#utility.yul\":3490:3509   */\n      swap1\n      pop\n        /* \"#utility.yul\":3149:3515   */\n      swap2\n      swap1\n      pop\n      jump\t// out\n        /* \"#utility.yul\":3521:3887   */\n    tag_208:\n        /* \"#utility.yul\":3663:3666   */\n      0x00\n        /* \"#utility.yul\":3684:3751   */\n      tag_210\n        /* \"#utility.yul\":3748:3750   */\n      0x0f\n        /* \"#utility.yul\":3743:3746   */\n      dup4\n        /* \"#utility.yul\":3684:3751   */\n      tag_200\n      jump\t// in\n    tag_210:\n        /* \"#utility.yul\":3677:3751   */\n      swap2\n      pop\n        /* \"#utility.yul\":3760:3853   */\n      tag_211\n        /* \"#utility.yul\":3849:3852   */\n      dup3\n        /* \"#utility.yul\":3760:3853   */\n      tag_212\n      jump\t// in\n    tag_211:\n        /* \"#utility.yul\":3878:3880   */\n      0x20\n        /* \"#utility.yul\":3873:3876   */\n      dup3\n        /* \"#utility.yul\":3869:3881   */\n      add\n        /* \"#utility.yul\":3862:3881   */\n      swap1\n      pop\n        /* \"#utility.yul\":3521:3887   */\n      swap2\n      swap1\n      pop\n      jump\t// out\n        /* \"#utility.yul\":3893:4259   */\n    tag_213:\n        /* \"#utility.yul\":4035:4038   */\n      0x00\n        /* \"#utility.yul\":4056:4123   */\n      tag_215\n        /* \"#utility.yul\":4120:4122   */\n      0x14\n        /* \"#utility.yul\":4115:4118   */\n      dup4\n        /* \"#utility.yul\":4056:4123   */\n      tag_200\n      jump\t// in\n    tag_215:\n        /* \"#utility.yul\":4049:4123   */\n      swap2\n      pop\n        /* \"#utility.yul\":4132:4225   */\n      tag_216\n        /* \"#utility.yul\":4221:4224   */\n      dup3\n        /* \"#utility.yul\":4132:4225   */\n      tag_217\n      jump\t// in\n    tag_216:\n        /* \"#utility.yul\":4250:4252   */\n      0x20\n        /* \"#utility.yul\":4245:4248   */\n      dup3\n        /* \"#utility.yul\":4241:4253   */\n      add\n        /* \"#utility.yul\":4234:4253   */\n      swap1\n      pop\n        /* \"#utility.yul\":3893:4259   */\n      swap2\n      swap1\n      pop\n      jump\t// out\n        /* \"#utility.yul\":4265:4631   */\n    tag_218:\n        /* \"#utility.yul\":4407:4410   */\n      0x00\n        /* \"#utility.yul\":4428:4495   */\n      tag_220\n        /* \"#utility.yul\":4492:4494   */\n      0x19\n        /* \"#utility.yul\":4487:4490   */\n      dup4\n        /* \"#utility.yul\":4428:4495   */\n      tag_200\n      jump\t// in\n    tag_220:\n        /* \"#utility.yul\":4421:4495   */\n      swap2\n      pop\n        /* \"#utility.yul\":4504:4597   */\n      tag_221\n        /* \"#utility.yul\":4593:4596   */\n      dup3\n        /* \"#utility.yul\":4504:4597   */\n      tag_222\n      jump\t// in\n    tag_221:\n        /* \"#utility.yul\":4622:4624   */\n      0x20\n        /* \"#utility.yul\":4617:4620   */\n      dup3\n        /* \"#utility.yul\":4613:4625   */\n      add\n        /* \"#utility.yul\":4606:4625   */\n      swap1\n      pop\n        /* \"#utility.yul\":4265:4631   */\n      swap2\n      swap1\n      pop\n      jump\t// out\n        /* \"#utility.yul\":4637:5003   */\n    tag_223:\n        /* \"#utility.yul\":4779:4782   */\n      0x00\n        /* \"#utility.yul\":4800:4867   */\n      tag_225\n        /* \"#utility.yul\":4864:4866   */\n      0x13\n        /* \"#utility.yul\":4859:4862   */\n      dup4\n        /* \"#utility.yul\":4800:4867   */\n      tag_200\n      jump\t// in\n    tag_225:\n        /* \"#utility.yul\":4793:4867   */\n      swap2\n      pop\n        /* \"#utility.yul\":4876:4969   */\n      tag_226\n        /* \"#utility.yul\":4965:4968   */\n      dup3\n        /* \"#utility.yul\":4876:4969   */\n      tag_227\n      jump\t// in\n    tag_226:\n        /* \"#utility.yul\":4994:4996   */\n      0x20\n        /* \"#utility.yul\":4989:4992   */\n      dup3\n        /* \"#utility.yul\":4985:4997   */\n      add\n        /* \"#utility.yul\":4978:4997   */\n      swap1\n      pop\n        /* \"#utility.yul\":4637:5003   */\n      swap2\n      swap1\n      pop\n      jump\t// out\n        /* \"#utility.yul\":5009:5127   */\n    tag_228:\n        /* \"#utility.yul\":5096:5120   */\n      tag_230\n        /* \"#utility.yul\":5114:5119   */\n      dup2\n        /* \"#utility.yul\":5096:5120   */\n      tag_231\n      jump\t// in\n    tag_230:\n        /* \"#utility.yul\":5091:5094   */\n      dup3\n        /* \"#utility.yul\":5084:5121   */\n      mstore\n        /* \"#utility.yul\":5009:5127   */\n      pop\n      pop\n      jump\t// out\n        /* \"#utility.yul\":5133:5290   */\n    tag_232:\n        /* \"#utility.yul\":5238:5283   */\n      tag_234\n        /* \"#utility.yul\":5258:5282   */\n      tag_235\n        /* \"#utility.yul\":5276:5281   */\n      dup3\n        /* \"#utility.yul\":5258:5282   */\n      tag_231\n      jump\t// in\n    tag_235:\n        /* \"#utility.yul\":5238:5283   */\n      tag_236\n      jump\t// in\n    tag_234:\n        /* \"#utility.yul\":5233:5236   */\n      dup3\n        /* \"#utility.yul\":5226:5284   */\n      mstore\n        /* \"#utility.yul\":5133:5290   */\n      pop\n      pop\n      jump\t// out\n        /* \"#utility.yul\":5296:5680   */\n    tag_124:\n        /* \"#utility.yul\":5430:5433   */\n      0x00\n        /* \"#utility.yul\":5445:5514   */\n      tag_238\n        /* \"#utility.yul\":5510:5513   */\n      dup3\n        /* \"#utility.yul\":5501:5507   */\n      dup6\n        /* \"#utility.yul\":5445:5514   */\n      tag_184\n      jump\t// in\n    tag_238:\n        /* \"#utility.yul\":5539:5540   */\n      0x01\n        /* \"#utility.yul\":5534:5537   */\n      dup3\n        /* \"#utility.yul\":5530:5541   */\n      add\n        /* \"#utility.yul\":5523:5541   */\n      swap2\n      pop\n        /* \"#utility.yul\":5551:5626   */\n      tag_239\n        /* \"#utility.yul\":5622:5625   */\n      dup3\n        /* \"#utility.yul\":5613:5619   */\n      dup5\n        /* \"#utility.yul\":5551:5626   */\n      tag_232\n      jump\t// in\n    tag_239:\n        /* \"#utility.yul\":5651:5653   */\n      0x20\n        /* \"#utility.yul\":5646:5649   */\n      dup3\n        /* \"#utility.yul\":5642:5654   */\n      add\n        /* \"#utility.yul\":5635:5654   */\n      swap2\n      pop\n        /* \"#utility.yul\":5671:5674   */\n      dup2\n        /* \"#utility.yul\":5664:5674   */\n      swap1\n      pop\n        /* \"#utility.yul\":5296:5680   */\n      swap4\n      swap3\n      pop\n      pop\n      pop\n      jump\t// out\n        /* \"#utility.yul\":5686:5908   */\n    tag_30:\n        /* \"#utility.yul\":5779:5783   */\n      0x00\n        /* \"#utility.yul\":5817:5819   */\n      0x20\n        /* \"#utility.yul\":5806:5815   */\n      dup3\n        /* \"#utility.yul\":5802:5820   */\n      add\n        /* \"#utility.yul\":5794:5820   */\n      swap1\n      pop\n        /* \"#utility.yul\":5830:5901   */\n      tag_241\n        /* \"#utility.yul\":5898:5899   */\n      0x00\n        /* \"#utility.yul\":5887:5896   */\n      dup4\n        /* \"#utility.yul\":5883:5900   */\n      add\n        /* \"#utility.yul\":5874:5880   */\n      dup5\n        /* \"#utility.yul\":5830:5901   */\n      tag_176\n      jump\t// in\n    tag_241:\n        /* \"#utility.yul\":5686:5908   */\n      swap3\n      swap2\n      pop\n      pop\n      jump\t// out\n        /* \"#utility.yul\":5914:6356   */\n    tag_129:\n        /* \"#utility.yul\":6063:6067   */\n      0x00\n        /* \"#utility.yul\":6101:6103   */\n      0x60\n        /* \"#utility.yul\":6090:6099   */\n      dup3\n        /* \"#utility.yul\":6086:6104   */\n      add\n        /* \"#utility.yul\":6078:6104   */\n      swap1\n      pop\n        /* \"#utility.yul\":6114:6185   */\n      tag_243\n        /* \"#utility.yul\":6182:6183   */\n      0x00\n        /* \"#utility.yul\":6171:6180   */\n      dup4\n        /* \"#utility.yul\":6167:6184   */\n      add\n        /* \"#utility.yul\":6158:6164   */\n      dup7\n        /* \"#utility.yul\":6114:6185   */\n      tag_176\n      jump\t// in\n    tag_243:\n        /* \"#utility.yul\":6195:6267   */\n      tag_244\n        /* \"#utility.yul\":6263:6265   */\n      0x20\n        /* \"#utility.yul\":6252:6261   */\n      dup4\n        /* \"#utility.yul\":6248:6266   */\n      add\n        /* \"#utility.yul\":6239:6245   */\n      dup6\n        /* \"#utility.yul\":6195:6267   */\n      tag_176\n      jump\t// in\n    tag_244:\n        /* \"#utility.yul\":6277:6349   */\n      tag_245\n        /* \"#utility.yul\":6345:6347   */\n      0x40\n        /* \"#utility.yul\":6334:6343   */\n      dup4\n        /* \"#utility.yul\":6330:6348   */\n      add\n        /* \"#utility.yul\":6321:6327   */\n      dup5\n        /* \"#utility.yul\":6277:6349   */\n      tag_228\n      jump\t// in\n    tag_245:\n        /* \"#utility.yul\":5914:6356   */\n      swap5\n      swap4\n      pop\n      pop\n      pop\n      pop\n      jump\t// out\n        /* \"#utility.yul\":6362:6694   */\n    tag_98:\n        /* \"#utility.yul\":6483:6487   */\n      0x00\n        /* \"#utility.yul\":6521:6523   */\n      0x40\n        /* \"#utility.yul\":6510:6519   */\n      dup3\n        /* \"#utility.yul\":6506:6524   */\n      add\n        /* \"#utility.yul\":6498:6524   */\n      swap1\n      pop\n        /* \"#utility.yul\":6534:6605   */\n      tag_247\n        /* \"#utility.yul\":6602:6603   */\n      0x00\n        /* \"#utility.yul\":6591:6600   */\n      dup4\n        /* \"#utility.yul\":6587:6604   */\n      add\n        /* \"#utility.yul\":6578:6584   */\n      dup6\n        /* \"#utility.yul\":6534:6605   */\n      tag_176\n      jump\t// in\n    tag_247:\n        /* \"#utility.yul\":6615:6687   */\n      tag_248\n        /* \"#utility.yul\":6683:6685   */\n      0x20\n        /* \"#utility.yul\":6672:6681   */\n      dup4\n        /* \"#utility.yul\":6668:6686   */\n      add\n        /* \"#utility.yul\":6659:6665   */\n      dup5\n        /* \"#utility.yul\":6615:6687   */\n      tag_228\n      jump\t// in\n    tag_248:\n        /* \"#utility.yul\":6362:6694   */\n      swap4\n      swap3\n      pop\n      pop\n      pop\n      jump\t// out\n        /* \"#utility.yul\":6700:6910   */\n    tag_126:\n        /* \"#utility.yul\":6787:6791   */\n      0x00\n        /* \"#utility.yul\":6825:6827   */\n      0x20\n        /* \"#utility.yul\":6814:6823   */\n      dup3\n        /* \"#utility.yul\":6810:6828   */\n      add\n        /* \"#utility.yul\":6802:6828   */\n      swap1\n      pop\n        /* \"#utility.yul\":6838:6903   */\n      tag_250\n        /* \"#utility.yul\":6900:6901   */\n      0x00\n        /* \"#utility.yul\":6889:6898   */\n      dup4\n        /* \"#utility.yul\":6885:6902   */\n      add\n        /* \"#utility.yul\":6876:6882   */\n      dup5\n        /* \"#utility.yul\":6838:6903   */\n      tag_180\n      jump\t// in\n    tag_250:\n        /* \"#utility.yul\":6700:6910   */\n      swap3\n      swap2\n      pop\n      pop\n      jump\t// out\n        /* \"#utility.yul\":6916:7190   */\n    tag_24:\n        /* \"#utility.yul\":7035:7039   */\n      0x00\n        /* \"#utility.yul\":7073:7075   */\n      0x20\n        /* \"#utility.yul\":7062:7071   */\n      dup3\n        /* \"#utility.yul\":7058:7076   */\n      add\n        /* \"#utility.yul\":7050:7076   */\n      swap1\n      pop\n        /* \"#utility.yul\":7086:7183   */\n      tag_252\n        /* \"#utility.yul\":7180:7181   */\n      0x00\n        /* \"#utility.yul\":7169:7178   */\n      dup4\n        /* \"#utility.yul\":7165:7182   */\n      add\n        /* \"#utility.yul\":7156:7162   */\n      dup5\n        /* \"#utility.yul\":7086:7183   */\n      tag_193\n      jump\t// in\n    tag_252:\n        /* \"#utility.yul\":6916:7190   */\n      swap3\n      swap2\n      pop\n      pop\n      jump\t// out\n        /* \"#utility.yul\":7196:7615   */\n    tag_119:\n        /* \"#utility.yul\":7362:7366   */\n      0x00\n        /* \"#utility.yul\":7400:7402   */\n      0x20\n        /* \"#utility.yul\":7389:7398   */\n      dup3\n        /* \"#utility.yul\":7385:7403   */\n      add\n        /* \"#utility.yul\":7377:7403   */\n      swap1\n      pop\n        /* \"#utility.yul\":7449:7458   */\n      dup2\n        /* \"#utility.yul\":7443:7447   */\n      dup2\n        /* \"#utility.yul\":7439:7459   */\n      sub\n        /* \"#utility.yul\":7435:7436   */\n      0x00\n        /* \"#utility.yul\":7424:7433   */\n      dup4\n        /* \"#utility.yul\":7420:7437   */\n      add\n        /* \"#utility.yul\":7413:7460   */\n      mstore\n        /* \"#utility.yul\":7477:7608   */\n      tag_254\n        /* \"#utility.yul\":7603:7607   */\n      dup2\n        /* \"#utility.yul\":7477:7608   */\n      tag_197\n      jump\t// in\n    tag_254:\n        /* \"#utility.yul\":7469:7608   */\n      swap1\n      pop\n        /* \"#utility.yul\":7196:7615   */\n      swap2\n      swap1\n      pop\n      jump\t// out\n        /* \"#utility.yul\":7621:8040   */\n    tag_58:\n        /* \"#utility.yul\":7787:7791   */\n      0x00\n        /* \"#utility.yul\":7825:7827   */\n      0x20\n        /* \"#utility.yul\":7814:7823   */\n      dup3\n        /* \"#utility.yul\":7810:7828   */\n      add\n        /* \"#utility.yul\":7802:7828   */\n      swap1\n      pop\n        /* \"#utility.yul\":7874:7883   */\n      dup2\n        /* \"#utility.yul\":7868:7872   */\n      dup2\n        /* \"#utility.yul\":7864:7884   */\n      sub\n        /* \"#utility.yul\":7860:7861   */\n      0x00\n        /* \"#utility.yul\":7849:7858   */\n      dup4\n        /* \"#utility.yul\":7845:7862   */\n      add\n        /* \"#utility.yul\":7838:7885   */\n      mstore\n        /* \"#utility.yul\":7902:8033   */\n      tag_256\n        /* \"#utility.yul\":8028:8032   */\n      dup2\n        /* \"#utility.yul\":7902:8033   */\n      tag_203\n      jump\t// in\n    tag_256:\n        /* \"#utility.yul\":7894:8033   */\n      swap1\n      pop\n        /* \"#utility.yul\":7621:8040   */\n      swap2\n      swap1\n      pop\n      jump\t// out\n        /* \"#utility.yul\":8046:8465   */\n    tag_136:\n        /* \"#utility.yul\":8212:8216   */\n      0x00\n        /* \"#utility.yul\":8250:8252   */\n      0x20\n        /* \"#utility.yul\":8239:8248   */\n      dup3\n        /* \"#utility.yul\":8235:8253   */\n      add\n        /* \"#utility.yul\":8227:8253   */\n      swap1\n      pop\n        /* \"#utility.yul\":8299:8308   */\n      dup2\n        /* \"#utility.yul\":8293:8297   */\n      dup2\n        /* \"#utility.yul\":8289:8309   */\n      sub\n        /* \"#utility.yul\":8285:8286   */\n      0x00\n        /* \"#utility.yul\":8274:8283   */\n      dup4\n        /* \"#utility.yul\":8270:8287   */\n      add\n        /* \"#utility.yul\":8263:8310   */\n      mstore\n        /* \"#utility.yul\":8327:8458   */\n      tag_258\n        /* \"#utility.yul\":8453:8457   */\n      dup2\n        /* \"#utility.yul\":8327:8458   */\n      tag_208\n      jump\t// in\n    tag_258:\n        /* \"#utility.yul\":8319:8458   */\n      swap1\n      pop\n        /* \"#utility.yul\":8046:8465   */\n      swap2\n      swap1\n      pop\n      jump\t// out\n        /* \"#utility.yul\":8471:8890   */\n    tag_61:\n        /* \"#utility.yul\":8637:8641   */\n      0x00\n        /* \"#utility.yul\":8675:8677   */\n      0x20\n        /* \"#utility.yul\":8664:8673   */\n      dup3\n        /* \"#utility.yul\":8660:8678   */\n      add\n        /* \"#utility.yul\":8652:8678   */\n      swap1\n      pop\n        /* \"#utility.yul\":8724:8733   */\n      dup2\n        /* \"#utility.yul\":8718:8722   */\n      dup2\n        /* \"#utility.yul\":8714:8734   */\n      sub\n        /* \"#utility.yul\":8710:8711   */\n      0x00\n        /* \"#utility.yul\":8699:8708   */\n      dup4\n        /* \"#utility.yul\":8695:8712   */\n      add\n        /* \"#utility.yul\":8688:8735   */\n      mstore\n        /* \"#utility.yul\":8752:8883   */\n      tag_260\n        /* \"#utility.yul\":8878:8882   */\n      dup2\n        /* \"#utility.yul\":8752:8883   */\n      tag_213\n      jump\t// in\n    tag_260:\n        /* \"#utility.yul\":8744:8883   */\n      swap1\n      pop\n        /* \"#utility.yul\":8471:8890   */\n      swap2\n      swap1\n      pop\n      jump\t// out\n        /* \"#utility.yul\":8896:9315   */\n    tag_139:\n        /* \"#utility.yul\":9062:9066   */\n      0x00\n        /* \"#utility.yul\":9100:9102   */\n      0x20\n        /* \"#utility.yul\":9089:9098   */\n      dup3\n        /* \"#utility.yul\":9085:9103   */\n      add\n        /* \"#utility.yul\":9077:9103   */\n      swap1\n      pop\n        /* \"#utility.yul\":9149:9158   */\n      dup2\n        /* \"#utility.yul\":9143:9147   */\n      dup2\n        /* \"#utility.yul\":9139:9159   */\n      sub\n        /* \"#utility.yul\":9135:9136   */\n      0x00\n        /* \"#utility.yul\":9124:9133   */\n      dup4\n        /* \"#utility.yul\":9120:9137   */\n      add\n        /* \"#utility.yul\":9113:9160   */\n      mstore\n        /* \"#utility.yul\":9177:9308   */\n      tag_262\n        /* \"#utility.yul\":9303:9307   */\n      dup2\n        /* \"#utility.yul\":9177:9308   */\n      tag_218\n      jump\t// in\n    tag_262:\n        /* \"#utility.yul\":9169:9308   */\n      swap1\n      pop\n        /* \"#utility.yul\":8896:9315   */\n      swap2\n      swap1\n      pop\n      jump\t// out\n        /* \"#utility.yul\":9321:9740   */\n    tag_122:\n        /* \"#utility.yul\":9487:9491   */\n      0x00\n        /* \"#utility.yul\":9525:9527   */\n      0x20\n        /* \"#utility.yul\":9514:9523   */\n      dup3\n        /* \"#utility.yul\":9510:9528   */\n      add\n        /* \"#utility.yul\":9502:9528   */\n      swap1\n      pop\n        /* \"#utility.yul\":9574:9583   */\n      dup2\n        /* \"#utility.yul\":9568:9572   */\n      dup2\n        /* \"#utility.yul\":9564:9584   */\n      sub\n        /* \"#utility.yul\":9560:9561   */\n      0x00\n        /* \"#utility.yul\":9549:9558   */\n      dup4\n        /* \"#utility.yul\":9545:9562   */\n      add\n        /* \"#utility.yul\":9538:9585   */\n      mstore\n        /* \"#utility.yul\":9602:9733   */\n      tag_264\n        /* \"#utility.yul\":9728:9732   */\n      dup2\n        /* \"#utility.yul\":9602:9733   */\n      tag_223\n      jump\t// in\n    tag_264:\n        /* \"#utility.yul\":9594:9733   */\n      swap1\n      pop\n        /* \"#utility.yul\":9321:9740   */\n      swap2\n      swap1\n      pop\n      jump\t// out\n        /* \"#utility.yul\":9746:9968   */\n    tag_18:\n        /* \"#utility.yul\":9839:9843   */\n      0x00\n        /* \"#utility.yul\":9877:9879   */\n      0x20\n        /* \"#utility.yul\":9866:9875   */\n      dup3\n        /* \"#utility.yul\":9862:9880   */\n      add\n        /* \"#utility.yul\":9854:9880   */\n      swap1\n      pop\n        /* \"#utility.yul\":9890:9961   */\n      tag_266\n        /* \"#utility.yul\":9958:9959   */\n      0x00\n        /* \"#utility.yul\":9947:9956   */\n      dup4\n        /* \"#utility.yul\":9943:9960   */\n      add\n        /* \"#utility.yul\":9934:9940   */\n      dup5\n        /* \"#utility.yul\":9890:9961   */\n      tag_228\n      jump\t// in\n    tag_266:\n        /* \"#utility.yul\":9746:9968   */\n      swap3\n      swap2\n      pop\n      pop\n      jump\t// out\n        /* \"#utility.yul\":9974:10713   */\n    tag_48:\n        /* \"#utility.yul\":10189:10193   */\n      0x00\n        /* \"#utility.yul\":10227:10230   */\n      0xc0\n        /* \"#utility.yul\":10216:10225   */\n      dup3\n        /* \"#utility.yul\":10212:10231   */\n      add\n        /* \"#utility.yul\":10204:10231   */\n      swap1\n      pop\n        /* \"#utility.yul\":10241:10312   */\n      tag_268\n        /* \"#utility.yul\":10309:10310   */\n      0x00\n        /* \"#utility.yul\":10298:10307   */\n      dup4\n        /* \"#utility.yul\":10294:10311   */\n      add\n        /* \"#utility.yul\":10285:10291   */\n      dup10\n        /* \"#utility.yul\":10241:10312   */\n      tag_228\n      jump\t// in\n    tag_268:\n        /* \"#utility.yul\":10322:10394   */\n      tag_269\n        /* \"#utility.yul\":10390:10392   */\n      0x20\n        /* \"#utility.yul\":10379:10388   */\n      dup4\n        /* \"#utility.yul\":10375:10393   */\n      add\n        /* \"#utility.yul\":10366:10372   */\n      dup9\n        /* \"#utility.yul\":10322:10394   */\n      tag_189\n      jump\t// in\n    tag_269:\n        /* \"#utility.yul\":10404:10470   */\n      tag_270\n        /* \"#utility.yul\":10466:10468   */\n      0x40\n        /* \"#utility.yul\":10455:10464   */\n      dup4\n        /* \"#utility.yul\":10451:10469   */\n      add\n        /* \"#utility.yul\":10442:10448   */\n      dup8\n        /* \"#utility.yul\":10404:10470   */\n      tag_180\n      jump\t// in\n    tag_270:\n        /* \"#utility.yul\":10480:10546   */\n      tag_271\n        /* \"#utility.yul\":10542:10544   */\n      0x60\n        /* \"#utility.yul\":10531:10540   */\n      dup4\n        /* \"#utility.yul\":10527:10545   */\n      add\n        /* \"#utility.yul\":10518:10524   */\n      dup7\n        /* \"#utility.yul\":10480:10546   */\n      tag_180\n      jump\t// in\n    tag_271:\n        /* \"#utility.yul\":10556:10623   */\n      tag_272\n        /* \"#utility.yul\":10618:10621   */\n      0x80\n        /* \"#utility.yul\":10607:10616   */\n      dup4\n        /* \"#utility.yul\":10603:10622   */\n      add\n        /* \"#utility.yul\":10594:10600   */\n      dup6\n        /* \"#utility.yul\":10556:10623   */\n      tag_180\n      jump\t// in\n    tag_272:\n        /* \"#utility.yul\":10633:10706   */\n      tag_273\n        /* \"#utility.yul\":10701:10704   */\n      0xa0\n        /* \"#utility.yul\":10690:10699   */\n      dup4\n        /* \"#utility.yul\":10686:10705   */\n      add\n        /* \"#utility.yul\":10677:10683   */\n      dup5\n        /* \"#utility.yul\":10633:10706   */\n      tag_228\n      jump\t// in\n    tag_273:\n        /* \"#utility.yul\":9974:10713   */\n      swap8\n      swap7\n      pop\n      pop\n      pop\n      pop\n      pop\n      pop\n      pop\n      jump\t// out\n        /* \"#utility.yul\":10800:10969   */\n    tag_200:\n        /* \"#utility.yul\":10884:10895   */\n      0x00\n        /* \"#utility.yul\":10918:10924   */\n      dup3\n        /* \"#utility.yul\":10913:10916   */\n      dup3\n        /* \"#utility.yul\":10906:10925   */\n      mstore\n        /* \"#utility.yul\":10958:10962   */\n      0x20\n        /* \"#utility.yul\":10953:10956   */\n      dup3\n        /* \"#utility.yul\":10949:10963   */\n      add\n        /* \"#utility.yul\":10934:10963   */\n      swap1\n      pop\n        /* \"#utility.yul\":10800:10969   */\n      swap3\n      swap2\n      pop\n      pop\n      jump\t// out\n        /* \"#utility.yul\":10975:11280   */\n    tag_71:\n        /* \"#utility.yul\":11015:11018   */\n      0x00\n        /* \"#utility.yul\":11034:11054   */\n      tag_278\n        /* \"#utility.yul\":11052:11053   */\n      dup3\n        /* \"#utility.yul\":11034:11054   */\n      tag_231\n      jump\t// in\n    tag_278:\n        /* \"#utility.yul\":11029:11054   */\n      swap2\n      pop\n        /* \"#utility.yul\":11068:11088   */\n      tag_279\n        /* \"#utility.yul\":11086:11087   */\n      dup4\n        /* \"#utility.yul\":11068:11088   */\n      tag_231\n      jump\t// in\n    tag_279:\n        /* \"#utility.yul\":11063:11088   */\n      swap3\n      pop\n        /* \"#utility.yul\":11222:11223   */\n      dup3\n        /* \"#utility.yul\":11154:11220   */\n      0xffffffffffffffffffffffffffffffffffffffffffffffffffffffffffffffff\n        /* \"#utility.yul\":11150:11224   */\n      sub\n        /* \"#utility.yul\":11147:11148   */\n      dup3\n        /* \"#utility.yul\":11144:11225   */\n      gt\n        /* \"#utility.yul\":11141:11248   */\n      iszero\n      tag_280\n      jumpi\n        /* \"#utility.yul\":11228:11246   */\n      tag_281\n      tag_282\n      jump\t// in\n    tag_281:\n        /* \"#utility.yul\":11141:11248   */\n    tag_280:\n        /* \"#utility.yul\":11272:11273   */\n      dup3\n        /* \"#utility.yul\":11269:11270   */\n      dup3\n        /* \"#utility.yul\":11265:11274   */\n      add\n        /* \"#utility.yul\":11258:11274   */\n      swap1\n      pop\n        /* \"#utility.yul\":10975:11280   */\n      swap3\n      swap2\n      pop\n      pop\n      jump\t// out\n        /* \"#utility.yul\":11286:11471   */\n    tag_84:\n        /* \"#utility.yul\":11326:11327   */\n      0x00\n        /* \"#utility.yul\":11343:11363   */\n      tag_284\n        /* \"#utility.yul\":11361:11362   */\n      dup3\n        /* \"#utility.yul\":11343:11363   */\n      tag_231\n      jump\t// in\n    tag_284:\n        /* \"#utility.yul\":11338:11363   */\n      swap2\n      pop\n        /* \"#utility.yul\":11377:11397   */\n      tag_285\n        /* \"#utility.yul\":11395:11396   */\n      dup4\n        /* \"#utility.yul\":11377:11397   */\n      tag_231\n      jump\t// in\n    tag_285:\n        /* \"#utility.yul\":11372:11397   */\n      swap3\n      pop\n        /* \"#utility.yul\":11416:11417   */\n      dup3\n        /* \"#utility.yul\":11406:11441   */\n      tag_286\n      jumpi\n        /* \"#utility.yul\":11421:11439   */\n      tag_287\n      tag_288\n      jump\t// in\n    tag_287:\n        /* \"#utility.yul\":11406:11441   */\n    tag_286:\n        /* \"#utility.yul\":11463:11464   */\n      dup3\n        /* \"#utility.yul\":11460:11461   */\n      dup3\n        /* \"#utility.yul\":11456:11465   */\n      div\n        /* \"#utility.yul\":11451:11465   */\n      swap1\n      pop\n        /* \"#utility.yul\":11286:11471   */\n      swap3\n      swap2\n      pop\n      pop\n      jump\t// out\n        /* \"#utility.yul\":11477:11825   */\n    tag_90:\n        /* \"#utility.yul\":11517:11524   */\n      0x00\n        /* \"#utility.yul\":11540:11560   */\n      tag_290\n        /* \"#utility.yul\":11558:11559   */\n      dup3\n        /* \"#utility.yul\":11540:11560   */\n      tag_231\n      jump\t// in\n    tag_290:\n        /* \"#utility.yul\":11535:11560   */\n      swap2\n      pop\n        /* \"#utility.yul\":11574:11594   */\n      tag_291\n        /* \"#utility.yul\":11592:11593   */\n      dup4\n        /* \"#utility.yul\":11574:11594   */\n      tag_231\n      jump\t// in\n    tag_291:\n        /* \"#utility.yul\":11569:11594   */\n      swap3\n      pop\n        /* \"#utility.yul\":11762:11763   */\n      dup2\n        /* \"#utility.yul\":11694:11760   */\n      0xffffffffffffffffffffffffffffffffffffffffffffffffffffffffffffffff\n        /* \"#utility.yul\":11690:11764   */\n      div\n        /* \"#utility.yul\":11687:11688   */\n      dup4\n        /* \"#utility.yul\":11684:11765   */\n      gt\n        /* \"#utility.yul\":11679:11680   */\n      dup3\n        /* \"#utility.yul\":11672:11681   */\n      iszero\n        /* \"#utility.yul\":11665:11682   */\n      iszero\n        /* \"#utility.yul\":11661:11766   */\n      and\n        /* \"#utility.yul\":11658:11789   */\n      iszero\n      tag_292\n      jumpi\n        /* \"#utility.yul\":11769:11787   */\n      tag_293\n      tag_282\n      jump\t// in\n    tag_293:\n        /* \"#utility.yul\":11658:11789   */\n    tag_292:\n        /* \"#utility.yul\":11817:11818   */\n      dup3\n        /* \"#utility.yul\":11814:11815   */\n      dup3\n        /* \"#utility.yul\":11810:11819   */\n      mul\n        /* \"#utility.yul\":11799:11819   */\n      swap1\n      pop\n        /* \"#utility.yul\":11477:11825   */\n      swap3\n      swap2\n      pop\n      pop\n      jump\t// out\n        /* \"#utility.yul\":11831:12022   */\n    tag_112:\n        /* \"#utility.yul\":11871:11875   */\n      0x00\n        /* \"#utility.yul\":11891:11911   */\n      tag_295\n        /* \"#utility.yul\":11909:11910   */\n      dup3\n        /* \"#utility.yul\":11891:11911   */\n      tag_231\n      jump\t// in\n    tag_295:\n        /* \"#utility.yul\":11886:11911   */\n      swap2\n      pop\n        /* \"#utility.yul\":11925:11945   */\n      tag_296\n        /* \"#utility.yul\":11943:11944   */\n      dup4\n        /* \"#utility.yul\":11925:11945   */\n      tag_231\n      jump\t// in\n    tag_296:\n        /* \"#utility.yul\":11920:11945   */\n      swap3\n      pop\n        /* \"#utility.yul\":11964:11965   */\n      dup3\n        /* \"#utility.yul\":11961:11962   */\n      dup3\n        /* \"#utility.yul\":11958:11966   */\n      lt\n        /* \"#utility.yul\":11955:11989   */\n      iszero\n      tag_297\n      jumpi\n        /* \"#utility.yul\":11969:11987   */\n      tag_298\n      tag_282\n      jump\t// in\n    tag_298:\n        /* \"#utility.yul\":11955:11989   */\n    tag_297:\n        /* \"#utility.yul\":12014:12015   */\n      dup3\n        /* \"#utility.yul\":12011:12012   */\n      dup3\n        /* \"#utility.yul\":12007:12016   */\n      sub\n        /* \"#utility.yul\":11999:12016   */\n      swap1\n      pop\n        /* \"#utility.yul\":11831:12022   */\n      swap3\n      swap2\n      pop\n      pop\n      jump\t// out\n        /* \"#utility.yul\":12028:12124   */\n    tag_179:\n        /* \"#utility.yul\":12065:12072   */\n      0x00\n        /* \"#utility.yul\":12094:12118   */\n      tag_300\n        /* \"#utility.yul\":12112:12117   */\n      dup3\n        /* \"#utility.yul\":12094:12118   */\n      tag_301\n      jump\t// in\n    tag_300:\n        /* \"#utility.yul\":12083:12118   */\n      swap1\n      pop\n        /* \"#utility.yul\":12028:12124   */\n      swap2\n      swap1\n      pop\n      jump\t// out\n        /* \"#utility.yul\":12130:12220   */\n    tag_183:\n        /* \"#utility.yul\":12164:12171   */\n      0x00\n        /* \"#utility.yul\":12207:12212   */\n      dup2\n        /* \"#utility.yul\":12200:12213   */\n      iszero\n        /* \"#utility.yul\":12193:12214   */\n      iszero\n        /* \"#utility.yul\":12182:12214   */\n      swap1\n      pop\n        /* \"#utility.yul\":12130:12220   */\n      swap2\n      swap1\n      pop\n      jump\t// out\n        /* \"#utility.yul\":12226:12303   */\n    tag_192:\n        /* \"#utility.yul\":12263:12270   */\n      0x00\n        /* \"#utility.yul\":12292:12297   */\n      dup2\n        /* \"#utility.yul\":12281:12297   */\n      swap1\n      pop\n        /* \"#utility.yul\":12226:12303   */\n      swap2\n      swap1\n      pop\n      jump\t// out\n        /* \"#utility.yul\":12309:12435   */\n    tag_301:\n        /* \"#utility.yul\":12346:12353   */\n      0x00\n        /* \"#utility.yul\":12386:12428   */\n      0xffffffffffffffffffffffffffffffffffffffff\n        /* \"#utility.yul\":12379:12384   */\n      dup3\n        /* \"#utility.yul\":12375:12429   */\n      and\n        /* \"#utility.yul\":12364:12429   */\n      swap1\n      pop\n        /* \"#utility.yul\":12309:12435   */\n      swap2\n      swap1\n      pop\n      jump\t// out\n        /* \"#utility.yul\":12441:12518   */\n    tag_231:\n        /* \"#utility.yul\":12478:12485   */\n      0x00\n        /* \"#utility.yul\":12507:12512   */\n      dup2\n        /* \"#utility.yul\":12496:12512   */\n      swap1\n      pop\n        /* \"#utility.yul\":12441:12518   */\n      swap2\n      swap1\n      pop\n      jump\t// out\n        /* \"#utility.yul\":12524:12676   */\n    tag_196:\n        /* \"#utility.yul\":12600:12609   */\n      0x00\n        /* \"#utility.yul\":12633:12670   */\n      tag_307\n        /* \"#utility.yul\":12664:12669   */\n      dup3\n        /* \"#utility.yul\":12633:12670   */\n      tag_308\n      jump\t// in\n    tag_307:\n        /* \"#utility.yul\":12620:12670   */\n      swap1\n      pop\n        /* \"#utility.yul\":12524:12676   */\n      swap2\n      swap1\n      pop\n      jump\t// out\n        /* \"#utility.yul\":12682:12808   */\n    tag_308:\n        /* \"#utility.yul\":12732:12741   */\n      0x00\n        /* \"#utility.yul\":12765:12802   */\n      tag_310\n        /* \"#utility.yul\":12796:12801   */\n      dup3\n        /* \"#utility.yul\":12765:12802   */\n      tag_311\n      jump\t// in\n    tag_310:\n        /* \"#utility.yul\":12752:12802   */\n      swap1\n      pop\n        /* \"#utility.yul\":12682:12808   */\n      swap2\n      swap1\n      pop\n      jump\t// out\n        /* \"#utility.yul\":12814:12927   */\n    tag_311:\n        /* \"#utility.yul\":12864:12873   */\n      0x00\n        /* \"#utility.yul\":12897:12921   */\n      tag_313\n        /* \"#utility.yul\":12915:12920   */\n      dup3\n        /* \"#utility.yul\":12897:12921   */\n      tag_301\n      jump\t// in\n    tag_313:\n        /* \"#utility.yul\":12884:12921   */\n      swap1\n      pop\n        /* \"#utility.yul\":12814:12927   */\n      swap2\n      swap1\n      pop\n      jump\t// out\n        /* \"#utility.yul\":12933:13166   */\n    tag_74:\n        /* \"#utility.yul\":12972:12975   */\n      0x00\n        /* \"#utility.yul\":12995:13019   */\n      tag_315\n        /* \"#utility.yul\":13013:13018   */\n      dup3\n        /* \"#utility.yul\":12995:13019   */\n      tag_231\n      jump\t// in\n    tag_315:\n        /* \"#utility.yul\":12986:13019   */\n      swap2\n      pop\n        /* \"#utility.yul\":13041:13107   */\n      0xffffffffffffffffffffffffffffffffffffffffffffffffffffffffffffffff\n        /* \"#utility.yul\":13034:13039   */\n      dup3\n        /* \"#utility.yul\":13031:13108   */\n      eq\n        /* \"#utility.yul\":13028:13131   */\n      iszero\n      tag_316\n      jumpi\n        /* \"#utility.yul\":13111:13129   */\n      tag_317\n      tag_282\n      jump\t// in\n    tag_317:\n        /* \"#utility.yul\":13028:13131   */\n    tag_316:\n        /* \"#utility.yul\":13158:13159   */\n      0x01\n        /* \"#utility.yul\":13151:13156   */\n      dup3\n        /* \"#utility.yul\":13147:13160   */\n      add\n        /* \"#utility.yul\":13140:13160   */\n      swap1\n      pop\n        /* \"#utility.yul\":12933:13166   */\n      swap2\n      swap1\n      pop\n      jump\t// out\n        /* \"#utility.yul\":13172:13267   */\n    tag_188:\n        /* \"#utility.yul\":13208:13215   */\n      0x00\n        /* \"#utility.yul\":13237:13261   */\n      tag_319\n        /* \"#utility.yul\":13255:13260   */\n      dup3\n        /* \"#utility.yul\":13237:13261   */\n      tag_320\n      jump\t// in\n    tag_319:\n        /* \"#utility.yul\":13226:13261   */\n      swap1\n      pop\n        /* \"#utility.yul\":13172:13267   */\n      swap2\n      swap1\n      pop\n      jump\t// out\n        /* \"#utility.yul\":13273:13352   */\n    tag_236:\n        /* \"#utility.yul\":13312:13319   */\n      0x00\n        /* \"#utility.yul\":13341:13346   */\n      dup2\n        /* \"#utility.yul\":13330:13346   */\n      swap1\n      pop\n        /* \"#utility.yul\":13273:13352   */\n      swap2\n      swap1\n      pop\n      jump\t// out\n        /* \"#utility.yul\":13358:13451   */\n    tag_320:\n        /* \"#utility.yul\":13395:13402   */\n      0x00\n        /* \"#utility.yul\":13424:13445   */\n      tag_323\n        /* \"#utility.yul\":13439:13444   */\n      dup3\n        /* \"#utility.yul\":13424:13445   */\n      tag_324\n      jump\t// in\n    tag_323:\n        /* \"#utility.yul\":13413:13445   */\n      swap1\n      pop\n        /* \"#utility.yul\":13358:13451   */\n      swap2\n      swap1\n      pop\n      jump\t// out\n        /* \"#utility.yul\":13457:13637   */\n    tag_282:\n        /* \"#utility.yul\":13505:13582   */\n      0x4e487b7100000000000000000000000000000000000000000000000000000000\n        /* \"#utility.yul\":13502:13503   */\n      0x00\n        /* \"#utility.yul\":13495:13583   */\n      mstore\n        /* \"#utility.yul\":13602:13606   */\n      0x11\n        /* \"#utility.yul\":13599:13600   */\n      0x04\n        /* \"#utility.yul\":13592:13607   */\n      mstore\n        /* \"#utility.yul\":13626:13630   */\n      0x24\n        /* \"#utility.yul\":13623:13624   */\n      0x00\n        /* \"#utility.yul\":13616:13631   */\n      revert\n        /* \"#utility.yul\":13643:13823   */\n    tag_288:\n        /* \"#utility.yul\":13691:13768   */\n      0x4e487b7100000000000000000000000000000000000000000000000000000000\n        /* \"#utility.yul\":13688:13689   */\n      0x00\n        /* \"#utility.yul\":13681:13769   */\n      mstore\n        /* \"#utility.yul\":13788:13792   */\n      0x12\n        /* \"#utility.yul\":13785:13786   */\n      0x04\n        /* \"#utility.yul\":13778:13793   */\n      mstore\n        /* \"#utility.yul\":13812:13816   */\n      0x24\n        /* \"#utility.yul\":13809:13810   */\n      0x00\n        /* \"#utility.yul\":13802:13817   */\n      revert\n        /* \"#utility.yul\":13829:14009   */\n    tag_67:\n        /* \"#utility.yul\":13877:13954   */\n      0x4e487b7100000000000000000000000000000000000000000000000000000000\n        /* \"#utility.yul\":13874:13875   */\n      0x00\n        /* \"#utility.yul\":13867:13955   */\n      mstore\n        /* \"#utility.yul\":13974:13978   */\n      0x32\n        /* \"#utility.yul\":13971:13972   */\n      0x04\n        /* \"#utility.yul\":13964:13979   */\n      mstore\n        /* \"#utility.yul\":13998:14002   */\n      0x24\n        /* \"#utility.yul\":13995:13996   */\n      0x00\n        /* \"#utility.yul\":13988:14003   */\n      revert\n        /* \"#utility.yul\":14138:14255   */\n    tag_161:\n        /* \"#utility.yul\":14247:14248   */\n      0x00\n        /* \"#utility.yul\":14244:14245   */\n      dup1\n        /* \"#utility.yul\":14237:14249   */\n      revert\n        /* \"#utility.yul\":14261:14357   */\n    tag_324:\n        /* \"#utility.yul\":14295:14303   */\n      0x00\n        /* \"#utility.yul\":14344:14349   */\n      dup2\n        /* \"#utility.yul\":14339:14342   */\n      0xf8\n        /* \"#utility.yul\":14335:14350   */\n      shl\n        /* \"#utility.yul\":14314:14350   */\n      swap1\n      pop\n        /* \"#utility.yul\":14261:14357   */\n      swap2\n      swap1\n      pop\n      jump\t// out\n        /* \"#utility.yul\":14363:14530   */\n    tag_202:\n        /* \"#utility.yul\":14503:14522   */\n      0x4e6f742061207061727469636970616e74000000000000000000000000000000\n        /* \"#utility.yul\":14499:14500   */\n      0x00\n        /* \"#utility.yul\":14491:14497   */\n      dup3\n        /* \"#utility.yul\":14487:14501   */\n      add\n        /* \"#utility.yul\":14480:14523   */\n      mstore\n        /* \"#utility.yul\":14363:14530   */\n      pop\n      jump\t// out\n        /* \"#utility.yul\":14536:14713   */\n    tag_207:\n        /* \"#utility.yul\":14676:14705   */\n      0x43757272656e7420726f756e64207374696c6c206f6e676f696e670000000000\n        /* \"#utility.yul\":14672:14673   */\n      0x00\n        /* \"#utility.yul\":14664:14670   */\n      dup3\n        /* \"#utility.yul\":14660:14674   */\n      add\n        /* \"#utility.yul\":14653:14706   */\n      mstore\n        /* \"#utility.yul\":14536:14713   */\n      pop\n      jump\t// out\n        /* \"#utility.yul\":14719:14884   */\n    tag_212:\n        /* \"#utility.yul\":14859:14876   */\n      0x5472616e73666572206661696c65640000000000000000000000000000000000\n        /* \"#utility.yul\":14855:14856   */\n      0x00\n        /* \"#utility.yul\":14847:14853   */\n      dup3\n        /* \"#utility.yul\":14843:14857   */\n      add\n        /* \"#utility.yul\":14836:14877   */\n      mstore\n        /* \"#utility.yul\":14719:14884   */\n      pop\n      jump\t// out\n        /* \"#utility.yul\":14890:15060   */\n    tag_217:\n        /* \"#utility.yul\":15030:15052   */\n      0x4e6f20726f756e6420746f2066696e616c697a65000000000000000000000000\n        /* \"#utility.yul\":15026:15027   */\n      0x00\n        /* \"#utility.yul\":15018:15024   */\n      dup3\n        /* \"#utility.yul\":15014:15028   */\n      add\n        /* \"#utility.yul\":15007:15053   */\n      mstore\n        /* \"#utility.yul\":14890:15060   */\n      pop\n      jump\t// out\n        /* \"#utility.yul\":15066:15241   */\n    tag_222:\n        /* \"#utility.yul\":15206:15233   */\n      0x416c7265616479206a6f696e6564207468697320726f756e6400000000000000\n        /* \"#utility.yul\":15202:15203   */\n      0x00\n        /* \"#utility.yul\":15194:15200   */\n      dup3\n        /* \"#utility.yul\":15190:15204   */\n      add\n        /* \"#utility.yul\":15183:15234   */\n      mstore\n        /* \"#utility.yul\":15066:15241   */\n      pop\n      jump\t// out\n        /* \"#utility.yul\":15247:15416   */\n    tag_227:\n        /* \"#utility.yul\":15387:15408   */\n      0x43686f69636520616c7265616479206d61646500000000000000000000000000\n        /* \"#utility.yul\":15383:15384   */\n      0x00\n        /* \"#utility.yul\":15375:15381   */\n      dup3\n        /* \"#utility.yul\":15371:15385   */\n      add\n        /* \"#utility.yul\":15364:15409   */\n      mstore\n        /* \"#utility.yul\":15247:15416   */\n      pop\n      jump\t// out\n        /* \"#utility.yul\":15422:15544   */\n    tag_146:\n        /* \"#utility.yul\":15495:15519   */\n      tag_339\n        /* \"#utility.yul\":15513:15518   */\n      dup2\n        /* \"#utility.yul\":15495:15519   */\n      tag_179\n      jump\t// in\n    tag_339:\n        /* \"#utility.yul\":15488:15493   */\n      dup2\n        /* \"#utility.yul\":15485:15520   */\n      eq\n        /* \"#utility.yul\":15475:15538   */\n      tag_340\n      jumpi\n        /* \"#utility.yul\":15534:15535   */\n      0x00\n        /* \"#utility.yul\":15531:15532   */\n      dup1\n        /* \"#utility.yul\":15524:15536   */\n      revert\n        /* \"#utility.yul\":15475:15538   */\n    tag_340:\n        /* \"#utility.yul\":15422:15544   */\n      pop\n      jump\t// out\n        /* \"#utility.yul\":15550:15666   */\n    tag_150:\n        /* \"#utility.yul\":15620:15641   */\n      tag_342\n        /* \"#utility.yul\":15635:15640   */\n      dup2\n        /* \"#utility.yul\":15620:15641   */\n      tag_183\n      jump\t// in\n    tag_342:\n        /* \"#utility.yul\":15613:15618   */\n      dup2\n        /* \"#utility.yul\":15610:15642   */\n      eq\n        /* \"#utility.yul\":15600:15660   */\n      tag_343\n      jumpi\n        /* \"#utility.yul\":15656:15657   */\n      0x00\n        /* \"#utility.yul\":15653:15654   */\n      dup1\n        /* \"#utility.yul\":15646:15658   */\n      revert\n        /* \"#utility.yul\":15600:15660   */\n    tag_343:\n        /* \"#utility.yul\":15550:15666   */\n      pop\n      jump\t// out\n        /* \"#utility.yul\":15672:15794   */\n    tag_157:\n        /* \"#utility.yul\":15745:15769   */\n      tag_345\n        /* \"#utility.yul\":15763:15768   */\n      dup2\n        /* \"#utility.yul\":15745:15769   */\n      tag_231\n      jump\t// in\n    tag_345:\n        /* \"#utility.yul\":15738:15743   */\n      dup2\n        /* \"#utility.yul\":15735:15770   */\n      eq\n        /* \"#utility.yul\":15725:15788   */\n      tag_346\n      jumpi\n        /* \"#utility.yul\":15784:15785   */\n      0x00\n        /* \"#utility.yul\":15781:15782   */\n      dup1\n        /* \"#utility.yul\":15774:15786   */\n      revert\n        /* \"#utility.yul\":15725:15788   */\n    tag_346:\n        /* \"#utility.yul\":15672:15794   */\n      pop\n      jump\t// out\n\n    auxdata: 0xa2646970667358221220c71ef2b7eb3e9fd25346ca1ce617977941c4dc3bf9c1ccde02f0caefcd28f23d64736f6c63430008070033\n}\n",
				"bytecode": {
					"linkReferences": {},
					"object": "60806040523480156200001157600080fd5b5060405162001ad438038062001ad48339818101604052810190620000379190620001a7565b600082116200007d576040517f08c379a0000000000000000000000000000000000000000000000000000000008152600401620000749062000251565b60405180910390fd5b60008111620000c3576040517f08c379a0000000000000000000000000000000000000000000000000000000008152600401620000ba9062000273565b60405180910390fd5b826000806101000a81548173ffffffffffffffffffffffffffffffffffffffff021916908373ffffffffffffffffffffffffffffffffffffffff160217905550816001819055508060028190555033600460006101000a81548173ffffffffffffffffffffffffffffffffffffffff021916908373ffffffffffffffffffffffffffffffffffffffff1602179055506001600581905550600254426200016a9190620002a6565b6003819055505050506200045b565b6000815190506200018a8162000427565b92915050565b600081519050620001a18162000441565b92915050565b600080600060608486031215620001c357620001c262000384565b5b6000620001d38682870162000179565b9350506020620001e68682870162000190565b9250506040620001f98682870162000190565b9150509250925092565b60006200021260238362000295565b91506200021f8262000389565b604082019050919050565b60006200023960288362000295565b91506200024682620003d8565b604082019050919050565b600060208201905081810360008301526200026c8162000203565b9050919050565b600060208201905081810360008301526200028e816200022a565b9050919050565b600082825260208201905092915050565b6000620002b3826200034b565b9150620002c0836200034b565b9250827fffffffffffffffffffffffffffffffffffffffffffffffffffffffffffffffff03821115620002f857620002f762000355565b5b828201905092915050565b600062000310826200032b565b9050919050565b6000620003248262000303565b9050919050565b600073ffffffffffffffffffffffffffffffffffffffff82169050919050565b6000819050919050565b7f4e487b7100000000000000000000000000000000000000000000000000000000600052601160045260246000fd5b600080fd5b7f456e74727920666565206d7573742062652067726561746572207468616e207a60008201527f65726f0000000000000000000000000000000000000000000000000000000000602082015250565b7f526f756e64206475726174696f6e206d7573742062652067726561746572207460008201527f68616e207a65726f000000000000000000000000000000000000000000000000602082015250565b620004328162000317565b81146200043e57600080fd5b50565b6200044c816200034b565b81146200045857600080fd5b50565b611669806200046b6000396000f3fe608060405234801561001057600080fd5b50600436106100a95760003560e01c80638a19c8bc116100715780638a19c8bc146101405780638da5cb5b1461015e578063d4f77b1c1461017c578063e2eb41ff14610186578063e40205d6146101bb578063f7cb789a146101d9576100a9565b8063072ea61c146100ae5780631e820325146100cc5780632967c373146100d657806335c1d349146100f457806338983ef814610124575b600080fd5b6100b66101f7565b6040516100c391906111b8565b60405180910390f35b6100d46101fd565b005b6100de610704565b6040516100eb91906110dd565b60405180910390f35b61010e60048036038101906101099190610ea3565b610728565b60405161011b9190611047565b60405180910390f35b61013e60048036038101906101399190610e63565b610767565b005b6101486109f2565b60405161015591906111b8565b60405180910390f35b6101666109f8565b6040516101739190611047565b60405180910390f35b610184610a1e565b005b6101a0600480360381019061019b9190610e09565b610d46565b6040516101b2969594939291906111d3565b60405180910390f35b6101c3610da9565b6040516101d091906111b8565b60405180910390f35b6101e1610daf565b6040516101ee91906111b8565b60405180910390f35b60015481565b600354421015610242576040517f08c379a000000000000000000000000000000000000000000000000000000000815260040161023990611118565b60405180910390fd5b600060055411610287576040517f08c379a000000000000000000000000000000000000000000000000000000000815260040161027e90611158565b60405180910390fd5b60008060005b60078054905081101561037f57600060066000600784815481106102b4576102b36114b7565b5b9060005260206000200160009054906101000a900473ffffffffffffffffffffffffffffffffffffffff1673ffffffffffffffffffffffffffffffffffffffff1673ffffffffffffffffffffffffffffffffffffffff16815260200190815260200160002090508060020160009054906101000a900460ff161561036b578060000154836103429190611245565b92508060020160029054906101000a900460ff161561036a578380610366906113e2565b9450505b5b508080610377906113e2565b91505061028d565b5060005b60078054905081101561068e57600060066000600784815481106103aa576103a96114b7565b5b9060005260206000200160009054906101000a900473ffffffffffffffffffffffffffffffffffffffff1673ffffffffffffffffffffffffffffffffffffffff1673ffffffffffffffffffffffffffffffffffffffff1681526020019081526020016000209050600060078054905085141561043857600a8260000154610431919061129b565b905061049e565b600085141561044d578160000154905061049d565b8160020160029054906101000a900460ff16156104885760646082836000015461047791906112cc565b610481919061129b565b905061049c565b60028260000154610499919061129b565b90505b5b5b60008054906101000a900473ffffffffffffffffffffffffffffffffffffffff1673ffffffffffffffffffffffffffffffffffffffff1663a9059cbb600785815481106104ee576104ed6114b7565b5b9060005260206000200160009054906101000a900473ffffffffffffffffffffffffffffffffffffffff16836040518363ffffffff1660e01b8152600401610537929190611099565b602060405180830381600087803b15801561055157600080fd5b505af1158015610565573d6000803e3d6000fd5b505050506040513d601f19601f820116820180604052508101906105899190610e36565b506007838154811061059e5761059d6114b7565b5b9060005260206000200160009054906101000a900473ffffffffffffffffffffffffffffffffffffffff1673ffffffffffffffffffffffffffffffffffffffff167f5afeca38b2064c23a692c4cf353015d80ab3ecc417b4f893f372690c11fbd9a68260405161060e91906111b8565b60405180910390a260008260020160006101000a81548160ff0219169083151502179055506000801b826001018190555060008260020160026101000a81548160ff02191690831515021790555060008260020160016101000a81548160ff02191690831515021790555050508080610686906113e2565b915050610383565b50600560008154809291906106a2906113e2565b9190505550600254426106b59190611245565b6003819055507fd49620ec6474d72a2f05dd60f5ab59ad0d2d9d29090cb3b81defc30db3d510c360016005546106eb9190611326565b6040516106f891906111b8565b60405180910390a15050565b60008054906101000a900473ffffffffffffffffffffffffffffffffffffffff1681565b6007818154811061073857600080fd5b906000526020600020016000915054906101000a900473ffffffffffffffffffffffffffffffffffffffff1681565b6000600660003373ffffffffffffffffffffffffffffffffffffffff1673ffffffffffffffffffffffffffffffffffffffff16815260200190815260200160002060000154116107ec576040517f08c379a00000000000000000000000000000000000000000000000000000000081526004016107e3906110f8565b60405180910390fd5b600660003373ffffffffffffffffffffffffffffffffffffffff1673ffffffffffffffffffffffffffffffffffffffff16815260200190815260200160002060020160009054906101000a900460ff161561087c576040517f08c379a000000000000000000000000000000000000000000000000000000000815260040161087390611198565b60405180910390fd5b818160405160200161088f92919061101b565b60405160208183030381529060405280519060200120600660003373ffffffffffffffffffffffffffffffffffffffff1673ffffffffffffffffffffffffffffffffffffffff168152602001908152602001600020600101819055506001600660003373ffffffffffffffffffffffffffffffffffffffff1673ffffffffffffffffffffffffffffffffffffffff16815260200190815260200160002060020160006101000a81548160ff02191690831515021790555081600660003373ffffffffffffffffffffffffffffffffffffffff1673ffffffffffffffffffffffffffffffffffffffff16815260200190815260200160002060020160026101000a81548160ff0219169083151502179055503373ffffffffffffffffffffffffffffffffffffffff167fffea1f4d20f01e3e8bbe54abed70fc7cc14b6589a78a35cff1c7395a88184733836040516109e691906110c2565b60405180910390a25050565b60055481565b600460009054906101000a900473ffffffffffffffffffffffffffffffffffffffff1681565b60008054906101000a900473ffffffffffffffffffffffffffffffffffffffff1673ffffffffffffffffffffffffffffffffffffffff166323b872dd33306001546040518463ffffffff1660e01b8152600401610a7d93929190611062565b602060405180830381600087803b158015610a9757600080fd5b505af1158015610aab573d6000803e3d6000fd5b505050506040513d601f19601f82011682018060405250810190610acf9190610e36565b610b0e576040517f08c379a0000000000000000000000000000000000000000000000000000000008152600401610b0590611138565b60405180910390fd5b600554600660003373ffffffffffffffffffffffffffffffffffffffff1673ffffffffffffffffffffffffffffffffffffffff1681526020019081526020016000206003015410610b94576040517f08c379a0000000000000000000000000000000000000000000000000000000008152600401610b8b90611178565b60405180910390fd5b6007339080600181540180825580915050600190039060005260206000200160009091909190916101000a81548173ffffffffffffffffffffffffffffffffffffffff021916908373ffffffffffffffffffffffffffffffffffffffff1602179055506040518060c0016040528060015481526020016000801b8152602001600015158152602001600015158152602001600015158152602001600554815250600660003373ffffffffffffffffffffffffffffffffffffffff1673ffffffffffffffffffffffffffffffffffffffff168152602001908152602001600020600082015181600001556020820151816001015560408201518160020160006101000a81548160ff02191690831515021790555060608201518160020160016101000a81548160ff02191690831515021790555060808201518160020160026101000a81548160ff02191690831515021790555060a082015181600301559050503373ffffffffffffffffffffffffffffffffffffffff167f3330a6773675f31f62070870f40379f8c6d42e3761410011a4dfc42b18043d2f600154604051610d3c91906111b8565b60405180910390a2565b60066020528060005260406000206000915090508060000154908060010154908060020160009054906101000a900460ff16908060020160019054906101000a900460ff16908060020160029054906101000a900460ff16908060030154905086565b60035481565b60025481565b600081359050610dc4816115ee565b92915050565b600081359050610dd981611605565b92915050565b600081519050610dee81611605565b92915050565b600081359050610e038161161c565b92915050565b600060208284031215610e1f57610e1e6114e6565b5b6000610e2d84828501610db5565b91505092915050565b600060208284031215610e4c57610e4b6114e6565b5b6000610e5a84828501610ddf565b91505092915050565b60008060408385031215610e7a57610e796114e6565b5b6000610e8885828601610dca565b9250506020610e9985828601610df4565b9150509250929050565b600060208284031215610eb957610eb86114e6565b5b6000610ec784828501610df4565b91505092915050565b610ed98161135a565b82525050565b610ee88161136c565b82525050565b610eff610efa8261136c565b61142b565b82525050565b610f0e81611378565b82525050565b610f1d816113ac565b82525050565b6000610f30601183611234565b9150610f3b826114f8565b602082019050919050565b6000610f53601b83611234565b9150610f5e82611521565b602082019050919050565b6000610f76600f83611234565b9150610f818261154a565b602082019050919050565b6000610f99601483611234565b9150610fa482611573565b602082019050919050565b6000610fbc601983611234565b9150610fc78261159c565b602082019050919050565b6000610fdf601383611234565b9150610fea826115c5565b602082019050919050565b610ffe816113a2565b82525050565b611015611010826113a2565b61143d565b82525050565b60006110278285610eee565b6001820191506110378284611004565b6020820191508190509392505050565b600060208201905061105c6000830184610ed0565b92915050565b60006060820190506110776000830186610ed0565b6110846020830185610ed0565b6110916040830184610ff5565b949350505050565b60006040820190506110ae6000830185610ed0565b6110bb6020830184610ff5565b9392505050565b60006020820190506110d76000830184610edf565b92915050565b60006020820190506110f26000830184610f14565b92915050565b6000602082019050818103600083015261111181610f23565b9050919050565b6000602082019050818103600083015261113181610f46565b9050919050565b6000602082019050818103600083015261115181610f69565b9050919050565b6000602082019050818103600083015261117181610f8c565b9050919050565b6000602082019050818103600083015261119181610faf565b9050919050565b600060208201905081810360008301526111b181610fd2565b9050919050565b60006020820190506111cd6000830184610ff5565b92915050565b600060c0820190506111e86000830189610ff5565b6111f56020830188610f05565b6112026040830187610edf565b61120f6060830186610edf565b61121c6080830185610edf565b61122960a0830184610ff5565b979650505050505050565b600082825260208201905092915050565b6000611250826113a2565b915061125b836113a2565b9250827fffffffffffffffffffffffffffffffffffffffffffffffffffffffffffffffff038211156112905761128f611459565b5b828201905092915050565b60006112a6826113a2565b91506112b1836113a2565b9250826112c1576112c0611488565b5b828204905092915050565b60006112d7826113a2565b91506112e2836113a2565b9250817fffffffffffffffffffffffffffffffffffffffffffffffffffffffffffffffff048311821515161561131b5761131a611459565b5b828202905092915050565b6000611331826113a2565b915061133c836113a2565b92508282101561134f5761134e611459565b5b828203905092915050565b600061136582611382565b9050919050565b60008115159050919050565b6000819050919050565b600073ffffffffffffffffffffffffffffffffffffffff82169050919050565b6000819050919050565b60006113b7826113be565b9050919050565b60006113c9826113d0565b9050919050565b60006113db82611382565b9050919050565b60006113ed826113a2565b91507fffffffffffffffffffffffffffffffffffffffffffffffffffffffffffffffff8214156114205761141f611459565b5b600182019050919050565b600061143682611447565b9050919050565b6000819050919050565b6000611452826114eb565b9050919050565b7f4e487b7100000000000000000000000000000000000000000000000000000000600052601160045260246000fd5b7f4e487b7100000000000000000000000000000000000000000000000000000000600052601260045260246000fd5b7f4e487b7100000000000000000000000000000000000000000000000000000000600052603260045260246000fd5b600080fd5b60008160f81b9050919050565b7f4e6f742061207061727469636970616e74000000000000000000000000000000600082015250565b7f43757272656e7420726f756e64207374696c6c206f6e676f696e670000000000600082015250565b7f5472616e73666572206661696c65640000000000000000000000000000000000600082015250565b7f4e6f20726f756e6420746f2066696e616c697a65000000000000000000000000600082015250565b7f416c7265616479206a6f696e6564207468697320726f756e6400000000000000600082015250565b7f43686f69636520616c7265616479206d61646500000000000000000000000000600082015250565b6115f78161135a565b811461160257600080fd5b50565b61160e8161136c565b811461161957600080fd5b50565b611625816113a2565b811461163057600080fd5b5056fea2646970667358221220c71ef2b7eb3e9fd25346ca1ce617977941c4dc3bf9c1ccde02f0caefcd28f23d64736f6c63430008070033",
					"opcodes": "PUSH1 0x80 PUSH1 0x40 MSTORE CALLVALUE DUP1 ISZERO PUSH3 0x11 JUMPI PUSH1 0x0 DUP1 REVERT JUMPDEST POP PUSH1 0x40 MLOAD PUSH3 0x1AD4 CODESIZE SUB DUP1 PUSH3 0x1AD4 DUP4 CODECOPY DUP2 DUP2 ADD PUSH1 0x40 MSTORE DUP2 ADD SWAP1 PUSH3 0x37 SWAP2 SWAP1 PUSH3 0x1A7 JUMP JUMPDEST PUSH1 0x0 DUP3 GT PUSH3 0x7D JUMPI PUSH1 0x40 MLOAD PUSH32 0x8C379A000000000000000000000000000000000000000000000000000000000 DUP2 MSTORE PUSH1 0x4 ADD PUSH3 0x74 SWAP1 PUSH3 0x251 JUMP JUMPDEST PUSH1 0x40 MLOAD DUP1 SWAP2 SUB SWAP1 REVERT JUMPDEST PUSH1 0x0 DUP2 GT PUSH3 0xC3 JUMPI PUSH1 0x40 MLOAD PUSH32 0x8C379A000000000000000000000000000000000000000000000000000000000 DUP2 MSTORE PUSH1 0x4 ADD PUSH3 0xBA SWAP1 PUSH3 0x273 JUMP JUMPDEST PUSH1 0x40 MLOAD DUP1 SWAP2 SUB SWAP1 REVERT JUMPDEST DUP3 PUSH1 0x0 DUP1 PUSH2 0x100 EXP DUP2 SLOAD DUP2 PUSH20 0xFFFFFFFFFFFFFFFFFFFFFFFFFFFFFFFFFFFFFFFF MUL NOT AND SWAP1 DUP4 PUSH20 0xFFFFFFFFFFFFFFFFFFFFFFFFFFFFFFFFFFFFFFFF AND MUL OR SWAP1 SSTORE POP DUP2 PUSH1 0x1 DUP2 SWAP1 SSTORE POP DUP1 PUSH1 0x2 DUP2 SWAP1 SSTORE POP CALLER PUSH1 0x4 PUSH1 0x0 PUSH2 0x100 EXP DUP2 SLOAD DUP2 PUSH20 0xFFFFFFFFFFFFFFFFFFFFFFFFFFFFFFFFFFFFFFFF MUL NOT AND SWAP1 DUP4 PUSH20 0xFFFFFFFFFFFFFFFFFFFFFFFFFFFFFFFFFFFFFFFF AND MUL OR SWAP1 SSTORE POP PUSH1 0x1 PUSH1 0x5 DUP2 SWAP1 SSTORE POP PUSH1 0x2 SLOAD TIMESTAMP PUSH3 0x16A SWAP2 SWAP1 PUSH3 0x2A6 JUMP JUMPDEST PUSH1 0x3 DUP2 SWAP1 SSTORE POP POP POP POP PUSH3 0x45B JUMP JUMPDEST PUSH1 0x0 DUP2 MLOAD SWAP1 POP PUSH3 0x18A DUP2 PUSH3 0x427 JUMP JUMPDEST SWAP3 SWAP2 POP POP JUMP JUMPDEST PUSH1 0x0 DUP2 MLOAD SWAP1 POP PUSH3 0x1A1 DUP2 PUSH3 0x441 JUMP JUMPDEST SWAP3 SWAP2 POP POP JUMP JUMPDEST PUSH1 0x0 DUP1 PUSH1 0x0 PUSH1 0x60 DUP5 DUP7 SUB SLT ISZERO PUSH3 0x1C3 JUMPI PUSH3 0x1C2 PUSH3 0x384 JUMP JUMPDEST JUMPDEST PUSH1 0x0 PUSH3 0x1D3 DUP7 DUP3 DUP8 ADD PUSH3 0x179 JUMP JUMPDEST SWAP4 POP POP PUSH1 0x20 PUSH3 0x1E6 DUP7 DUP3 DUP8 ADD PUSH3 0x190 JUMP JUMPDEST SWAP3 POP POP PUSH1 0x40 PUSH3 0x1F9 DUP7 DUP3 DUP8 ADD PUSH3 0x190 JUMP JUMPDEST SWAP2 POP POP SWAP3 POP SWAP3 POP SWAP3 JUMP JUMPDEST PUSH1 0x0 PUSH3 0x212 PUSH1 0x23 DUP4 PUSH3 0x295 JUMP JUMPDEST SWAP2 POP PUSH3 0x21F DUP3 PUSH3 0x389 JUMP JUMPDEST PUSH1 0x40 DUP3 ADD SWAP1 POP SWAP2 SWAP1 POP JUMP JUMPDEST PUSH1 0x0 PUSH3 0x239 PUSH1 0x28 DUP4 PUSH3 0x295 JUMP JUMPDEST SWAP2 POP PUSH3 0x246 DUP3 PUSH3 0x3D8 JUMP JUMPDEST PUSH1 0x40 DUP3 ADD SWAP1 POP SWAP2 SWAP1 POP JUMP JUMPDEST PUSH1 0x0 PUSH1 0x20 DUP3 ADD SWAP1 POP DUP2 DUP2 SUB PUSH1 0x0 DUP4 ADD MSTORE PUSH3 0x26C DUP2 PUSH3 0x203 JUMP JUMPDEST SWAP1 POP SWAP2 SWAP1 POP JUMP JUMPDEST PUSH1 0x0 PUSH1 0x20 DUP3 ADD SWAP1 POP DUP2 DUP2 SUB PUSH1 0x0 DUP4 ADD MSTORE PUSH3 0x28E DUP2 PUSH3 0x22A JUMP JUMPDEST SWAP1 POP SWAP2 SWAP1 POP JUMP JUMPDEST PUSH1 0x0 DUP3 DUP3 MSTORE PUSH1 0x20 DUP3 ADD SWAP1 POP SWAP3 SWAP2 POP POP JUMP JUMPDEST PUSH1 0x0 PUSH3 0x2B3 DUP3 PUSH3 0x34B JUMP JUMPDEST SWAP2 POP PUSH3 0x2C0 DUP4 PUSH3 0x34B JUMP JUMPDEST SWAP3 POP DUP3 PUSH32 0xFFFFFFFFFFFFFFFFFFFFFFFFFFFFFFFFFFFFFFFFFFFFFFFFFFFFFFFFFFFFFFFF SUB DUP3 GT ISZERO PUSH3 0x2F8 JUMPI PUSH3 0x2F7 PUSH3 0x355 JUMP JUMPDEST JUMPDEST DUP3 DUP3 ADD SWAP1 POP SWAP3 SWAP2 POP POP JUMP JUMPDEST PUSH1 0x0 PUSH3 0x310 DUP3 PUSH3 0x32B JUMP JUMPDEST SWAP1 POP SWAP2 SWAP1 POP JUMP JUMPDEST PUSH1 0x0 PUSH3 0x324 DUP3 PUSH3 0x303 JUMP JUMPDEST SWAP1 POP SWAP2 SWAP1 POP JUMP JUMPDEST PUSH1 0x0 PUSH20 0xFFFFFFFFFFFFFFFFFFFFFFFFFFFFFFFFFFFFFFFF DUP3 AND SWAP1 POP SWAP2 SWAP1 POP JUMP JUMPDEST PUSH1 0x0 DUP2 SWAP1 POP SWAP2 SWAP1 POP JUMP JUMPDEST PUSH32 0x4E487B7100000000000000000000000000000000000000000000000000000000 PUSH1 0x0 MSTORE PUSH1 0x11 PUSH1 0x4 MSTORE PUSH1 0x24 PUSH1 0x0 REVERT JUMPDEST PUSH1 0x0 DUP1 REVERT JUMPDEST PUSH32 0x456E74727920666565206D7573742062652067726561746572207468616E207A PUSH1 0x0 DUP3 ADD MSTORE PUSH32 0x65726F0000000000000000000000000000000000000000000000000000000000 PUSH1 0x20 DUP3 ADD MSTORE POP JUMP JUMPDEST PUSH32 0x526F756E64206475726174696F6E206D75737420626520677265617465722074 PUSH1 0x0 DUP3 ADD MSTORE PUSH32 0x68616E207A65726F000000000000000000000000000000000000000000000000 PUSH1 0x20 DUP3 ADD MSTORE POP JUMP JUMPDEST PUSH3 0x432 DUP2 PUSH3 0x317 JUMP JUMPDEST DUP2 EQ PUSH3 0x43E JUMPI PUSH1 0x0 DUP1 REVERT JUMPDEST POP JUMP JUMPDEST PUSH3 0x44C DUP2 PUSH3 0x34B JUMP JUMPDEST DUP2 EQ PUSH3 0x458 JUMPI PUSH1 0x0 DUP1 REVERT JUMPDEST POP JUMP JUMPDEST PUSH2 0x1669 DUP1 PUSH3 0x46B PUSH1 0x0 CODECOPY PUSH1 0x0 RETURN INVALID PUSH1 0x80 PUSH1 0x40 MSTORE CALLVALUE DUP1 ISZERO PUSH2 0x10 JUMPI PUSH1 0x0 DUP1 REVERT JUMPDEST POP PUSH1 0x4 CALLDATASIZE LT PUSH2 0xA9 JUMPI PUSH1 0x0 CALLDATALOAD PUSH1 0xE0 SHR DUP1 PUSH4 0x8A19C8BC GT PUSH2 0x71 JUMPI DUP1 PUSH4 0x8A19C8BC EQ PUSH2 0x140 JUMPI DUP1 PUSH4 0x8DA5CB5B EQ PUSH2 0x15E JUMPI DUP1 PUSH4 0xD4F77B1C EQ PUSH2 0x17C JUMPI DUP1 PUSH4 0xE2EB41FF EQ PUSH2 0x186 JUMPI DUP1 PUSH4 0xE40205D6 EQ PUSH2 0x1BB JUMPI DUP1 PUSH4 0xF7CB789A EQ PUSH2 0x1D9 JUMPI PUSH2 0xA9 JUMP JUMPDEST DUP1 PUSH4 0x72EA61C EQ PUSH2 0xAE JUMPI DUP1 PUSH4 0x1E820325 EQ PUSH2 0xCC JUMPI DUP1 PUSH4 0x2967C373 EQ PUSH2 0xD6 JUMPI DUP1 PUSH4 0x35C1D349 EQ PUSH2 0xF4 JUMPI DUP1 PUSH4 0x38983EF8 EQ PUSH2 0x124 JUMPI JUMPDEST PUSH1 0x0 DUP1 REVERT JUMPDEST PUSH2 0xB6 PUSH2 0x1F7 JUMP JUMPDEST PUSH1 0x40 MLOAD PUSH2 0xC3 SWAP2 SWAP1 PUSH2 0x11B8 JUMP JUMPDEST PUSH1 0x40 MLOAD DUP1 SWAP2 SUB SWAP1 RETURN JUMPDEST PUSH2 0xD4 PUSH2 0x1FD JUMP JUMPDEST STOP JUMPDEST PUSH2 0xDE PUSH2 0x704 JUMP JUMPDEST PUSH1 0x40 MLOAD PUSH2 0xEB SWAP2 SWAP1 PUSH2 0x10DD JUMP JUMPDEST PUSH1 0x40 MLOAD DUP1 SWAP2 SUB SWAP1 RETURN JUMPDEST PUSH2 0x10E PUSH1 0x4 DUP1 CALLDATASIZE SUB DUP2 ADD SWAP1 PUSH2 0x109 SWAP2 SWAP1 PUSH2 0xEA3 JUMP JUMPDEST PUSH2 0x728 JUMP JUMPDEST PUSH1 0x40 MLOAD PUSH2 0x11B SWAP2 SWAP1 PUSH2 0x1047 JUMP JUMPDEST PUSH1 0x40 MLOAD DUP1 SWAP2 SUB SWAP1 RETURN JUMPDEST PUSH2 0x13E PUSH1 0x4 DUP1 CALLDATASIZE SUB DUP2 ADD SWAP1 PUSH2 0x139 SWAP2 SWAP1 PUSH2 0xE63 JUMP JUMPDEST PUSH2 0x767 JUMP JUMPDEST STOP JUMPDEST PUSH2 0x148 PUSH2 0x9F2 JUMP JUMPDEST PUSH1 0x40 MLOAD PUSH2 0x155 SWAP2 SWAP1 PUSH2 0x11B8 JUMP JUMPDEST PUSH1 0x40 MLOAD DUP1 SWAP2 SUB SWAP1 RETURN JUMPDEST PUSH2 0x166 PUSH2 0x9F8 JUMP JUMPDEST PUSH1 0x40 MLOAD PUSH2 0x173 SWAP2 SWAP1 PUSH2 0x1047 JUMP JUMPDEST PUSH1 0x40 MLOAD DUP1 SWAP2 SUB SWAP1 RETURN JUMPDEST PUSH2 0x184 PUSH2 0xA1E JUMP JUMPDEST STOP JUMPDEST PUSH2 0x1A0 PUSH1 0x4 DUP1 CALLDATASIZE SUB DUP2 ADD SWAP1 PUSH2 0x19B SWAP2 SWAP1 PUSH2 0xE09 JUMP JUMPDEST PUSH2 0xD46 JUMP JUMPDEST PUSH1 0x40 MLOAD PUSH2 0x1B2 SWAP7 SWAP6 SWAP5 SWAP4 SWAP3 SWAP2 SWAP1 PUSH2 0x11D3 JUMP JUMPDEST PUSH1 0x40 MLOAD DUP1 SWAP2 SUB SWAP1 RETURN JUMPDEST PUSH2 0x1C3 PUSH2 0xDA9 JUMP JUMPDEST PUSH1 0x40 MLOAD PUSH2 0x1D0 SWAP2 SWAP1 PUSH2 0x11B8 JUMP JUMPDEST PUSH1 0x40 MLOAD DUP1 SWAP2 SUB SWAP1 RETURN JUMPDEST PUSH2 0x1E1 PUSH2 0xDAF JUMP JUMPDEST PUSH1 0x40 MLOAD PUSH2 0x1EE SWAP2 SWAP1 PUSH2 0x11B8 JUMP JUMPDEST PUSH1 0x40 MLOAD DUP1 SWAP2 SUB SWAP1 RETURN JUMPDEST PUSH1 0x1 SLOAD DUP2 JUMP JUMPDEST PUSH1 0x3 SLOAD TIMESTAMP LT ISZERO PUSH2 0x242 JUMPI PUSH1 0x40 MLOAD PUSH32 0x8C379A000000000000000000000000000000000000000000000000000000000 DUP2 MSTORE PUSH1 0x4 ADD PUSH2 0x239 SWAP1 PUSH2 0x1118 JUMP JUMPDEST PUSH1 0x40 MLOAD DUP1 SWAP2 SUB SWAP1 REVERT JUMPDEST PUSH1 0x0 PUSH1 0x5 SLOAD GT PUSH2 0x287 JUMPI PUSH1 0x40 MLOAD PUSH32 0x8C379A000000000000000000000000000000000000000000000000000000000 DUP2 MSTORE PUSH1 0x4 ADD PUSH2 0x27E SWAP1 PUSH2 0x1158 JUMP JUMPDEST PUSH1 0x40 MLOAD DUP1 SWAP2 SUB SWAP1 REVERT JUMPDEST PUSH1 0x0 DUP1 PUSH1 0x0 JUMPDEST PUSH1 0x7 DUP1 SLOAD SWAP1 POP DUP2 LT ISZERO PUSH2 0x37F JUMPI PUSH1 0x0 PUSH1 0x6 PUSH1 0x0 PUSH1 0x7 DUP5 DUP2 SLOAD DUP2 LT PUSH2 0x2B4 JUMPI PUSH2 0x2B3 PUSH2 0x14B7 JUMP JUMPDEST JUMPDEST SWAP1 PUSH1 0x0 MSTORE PUSH1 0x20 PUSH1 0x0 KECCAK256 ADD PUSH1 0x0 SWAP1 SLOAD SWAP1 PUSH2 0x100 EXP SWAP1 DIV PUSH20 0xFFFFFFFFFFFFFFFFFFFFFFFFFFFFFFFFFFFFFFFF AND PUSH20 0xFFFFFFFFFFFFFFFFFFFFFFFFFFFFFFFFFFFFFFFF AND PUSH20 0xFFFFFFFFFFFFFFFFFFFFFFFFFFFFFFFFFFFFFFFF AND DUP2 MSTORE PUSH1 0x20 ADD SWAP1 DUP2 MSTORE PUSH1 0x20 ADD PUSH1 0x0 KECCAK256 SWAP1 POP DUP1 PUSH1 0x2 ADD PUSH1 0x0 SWAP1 SLOAD SWAP1 PUSH2 0x100 EXP SWAP1 DIV PUSH1 0xFF AND ISZERO PUSH2 0x36B JUMPI DUP1 PUSH1 0x0 ADD SLOAD DUP4 PUSH2 0x342 SWAP2 SWAP1 PUSH2 0x1245 JUMP JUMPDEST SWAP3 POP DUP1 PUSH1 0x2 ADD PUSH1 0x2 SWAP1 SLOAD SWAP1 PUSH2 0x100 EXP SWAP1 DIV PUSH1 0xFF AND ISZERO PUSH2 0x36A JUMPI DUP4 DUP1 PUSH2 0x366 SWAP1 PUSH2 0x13E2 JUMP JUMPDEST SWAP5 POP POP JUMPDEST JUMPDEST POP DUP1 DUP1 PUSH2 0x377 SWAP1 PUSH2 0x13E2 JUMP JUMPDEST SWAP2 POP POP PUSH2 0x28D JUMP JUMPDEST POP PUSH1 0x0 JUMPDEST PUSH1 0x7 DUP1 SLOAD SWAP1 POP DUP2 LT ISZERO PUSH2 0x68E JUMPI PUSH1 0x0 PUSH1 0x6 PUSH1 0x0 PUSH1 0x7 DUP5 DUP2 SLOAD DUP2 LT PUSH2 0x3AA JUMPI PUSH2 0x3A9 PUSH2 0x14B7 JUMP JUMPDEST JUMPDEST SWAP1 PUSH1 0x0 MSTORE PUSH1 0x20 PUSH1 0x0 KECCAK256 ADD PUSH1 0x0 SWAP1 SLOAD SWAP1 PUSH2 0x100 EXP SWAP1 DIV PUSH20 0xFFFFFFFFFFFFFFFFFFFFFFFFFFFFFFFFFFFFFFFF AND PUSH20 0xFFFFFFFFFFFFFFFFFFFFFFFFFFFFFFFFFFFFFFFF AND PUSH20 0xFFFFFFFFFFFFFFFFFFFFFFFFFFFFFFFFFFFFFFFF AND DUP2 MSTORE PUSH1 0x20 ADD SWAP1 DUP2 MSTORE PUSH1 0x20 ADD PUSH1 0x0 KECCAK256 SWAP1 POP PUSH1 0x0 PUSH1 0x7 DUP1 SLOAD SWAP1 POP DUP6 EQ ISZERO PUSH2 0x438 JUMPI PUSH1 0xA DUP3 PUSH1 0x0 ADD SLOAD PUSH2 0x431 SWAP2 SWAP1 PUSH2 0x129B JUMP JUMPDEST SWAP1 POP PUSH2 0x49E JUMP JUMPDEST PUSH1 0x0 DUP6 EQ ISZERO PUSH2 0x44D JUMPI DUP2 PUSH1 0x0 ADD SLOAD SWAP1 POP PUSH2 0x49D JUMP JUMPDEST DUP2 PUSH1 0x2 ADD PUSH1 0x2 SWAP1 SLOAD SWAP1 PUSH2 0x100 EXP SWAP1 DIV PUSH1 0xFF AND ISZERO PUSH2 0x488 JUMPI PUSH1 0x64 PUSH1 0x82 DUP4 PUSH1 0x0 ADD SLOAD PUSH2 0x477 SWAP2 SWAP1 PUSH2 0x12CC JUMP JUMPDEST PUSH2 0x481 SWAP2 SWAP1 PUSH2 0x129B JUMP JUMPDEST SWAP1 POP PUSH2 0x49C JUMP JUMPDEST PUSH1 0x2 DUP3 PUSH1 0x0 ADD SLOAD PUSH2 0x499 SWAP2 SWAP1 PUSH2 0x129B JUMP JUMPDEST SWAP1 POP JUMPDEST JUMPDEST JUMPDEST PUSH1 0x0 DUP1 SLOAD SWAP1 PUSH2 0x100 EXP SWAP1 DIV PUSH20 0xFFFFFFFFFFFFFFFFFFFFFFFFFFFFFFFFFFFFFFFF AND PUSH20 0xFFFFFFFFFFFFFFFFFFFFFFFFFFFFFFFFFFFFFFFF AND PUSH4 0xA9059CBB PUSH1 0x7 DUP6 DUP2 SLOAD DUP2 LT PUSH2 0x4EE JUMPI PUSH2 0x4ED PUSH2 0x14B7 JUMP JUMPDEST JUMPDEST SWAP1 PUSH1 0x0 MSTORE PUSH1 0x20 PUSH1 0x0 KECCAK256 ADD PUSH1 0x0 SWAP1 SLOAD SWAP1 PUSH2 0x100 EXP SWAP1 DIV PUSH20 0xFFFFFFFFFFFFFFFFFFFFFFFFFFFFFFFFFFFFFFFF AND DUP4 PUSH1 0x40 MLOAD DUP4 PUSH4 0xFFFFFFFF AND PUSH1 0xE0 SHL DUP2 MSTORE PUSH1 0x4 ADD PUSH2 0x537 SWAP3 SWAP2 SWAP1 PUSH2 0x1099 JUMP JUMPDEST PUSH1 0x20 PUSH1 0x40 MLOAD DUP1 DUP4 SUB DUP2 PUSH1 0x0 DUP8 DUP1 EXTCODESIZE ISZERO DUP1 ISZERO PUSH2 0x551 JUMPI PUSH1 0x0 DUP1 REVERT JUMPDEST POP GAS CALL ISZERO DUP1 ISZERO PUSH2 0x565 JUMPI RETURNDATASIZE PUSH1 0x0 DUP1 RETURNDATACOPY RETURNDATASIZE PUSH1 0x0 REVERT JUMPDEST POP POP POP POP PUSH1 0x40 MLOAD RETURNDATASIZE PUSH1 0x1F NOT PUSH1 0x1F DUP3 ADD AND DUP3 ADD DUP1 PUSH1 0x40 MSTORE POP DUP2 ADD SWAP1 PUSH2 0x589 SWAP2 SWAP1 PUSH2 0xE36 JUMP JUMPDEST POP PUSH1 0x7 DUP4 DUP2 SLOAD DUP2 LT PUSH2 0x59E JUMPI PUSH2 0x59D PUSH2 0x14B7 JUMP JUMPDEST JUMPDEST SWAP1 PUSH1 0x0 MSTORE PUSH1 0x20 PUSH1 0x0 KECCAK256 ADD PUSH1 0x0 SWAP1 SLOAD SWAP1 PUSH2 0x100 EXP SWAP1 DIV PUSH20 0xFFFFFFFFFFFFFFFFFFFFFFFFFFFFFFFFFFFFFFFF AND PUSH20 0xFFFFFFFFFFFFFFFFFFFFFFFFFFFFFFFFFFFFFFFF AND PUSH32 0x5AFECA38B2064C23A692C4CF353015D80AB3ECC417B4F893F372690C11FBD9A6 DUP3 PUSH1 0x40 MLOAD PUSH2 0x60E SWAP2 SWAP1 PUSH2 0x11B8 JUMP JUMPDEST PUSH1 0x40 MLOAD DUP1 SWAP2 SUB SWAP1 LOG2 PUSH1 0x0 DUP3 PUSH1 0x2 ADD PUSH1 0x0 PUSH2 0x100 EXP DUP2 SLOAD DUP2 PUSH1 0xFF MUL NOT AND SWAP1 DUP4 ISZERO ISZERO MUL OR SWAP1 SSTORE POP PUSH1 0x0 DUP1 SHL DUP3 PUSH1 0x1 ADD DUP2 SWAP1 SSTORE POP PUSH1 0x0 DUP3 PUSH1 0x2 ADD PUSH1 0x2 PUSH2 0x100 EXP DUP2 SLOAD DUP2 PUSH1 0xFF MUL NOT AND SWAP1 DUP4 ISZERO ISZERO MUL OR SWAP1 SSTORE POP PUSH1 0x0 DUP3 PUSH1 0x2 ADD PUSH1 0x1 PUSH2 0x100 EXP DUP2 SLOAD DUP2 PUSH1 0xFF MUL NOT AND SWAP1 DUP4 ISZERO ISZERO MUL OR SWAP1 SSTORE POP POP POP DUP1 DUP1 PUSH2 0x686 SWAP1 PUSH2 0x13E2 JUMP JUMPDEST SWAP2 POP POP PUSH2 0x383 JUMP JUMPDEST POP PUSH1 0x5 PUSH1 0x0 DUP2 SLOAD DUP1 SWAP3 SWAP2 SWAP1 PUSH2 0x6A2 SWAP1 PUSH2 0x13E2 JUMP JUMPDEST SWAP2 SWAP1 POP SSTORE POP PUSH1 0x2 SLOAD TIMESTAMP PUSH2 0x6B5 SWAP2 SWAP1 PUSH2 0x1245 JUMP JUMPDEST PUSH1 0x3 DUP2 SWAP1 SSTORE POP PUSH32 0xD49620EC6474D72A2F05DD60F5AB59AD0D2D9D29090CB3B81DEFC30DB3D510C3 PUSH1 0x1 PUSH1 0x5 SLOAD PUSH2 0x6EB SWAP2 SWAP1 PUSH2 0x1326 JUMP JUMPDEST PUSH1 0x40 MLOAD PUSH2 0x6F8 SWAP2 SWAP1 PUSH2 0x11B8 JUMP JUMPDEST PUSH1 0x40 MLOAD DUP1 SWAP2 SUB SWAP1 LOG1 POP POP JUMP JUMPDEST PUSH1 0x0 DUP1 SLOAD SWAP1 PUSH2 0x100 EXP SWAP1 DIV PUSH20 0xFFFFFFFFFFFFFFFFFFFFFFFFFFFFFFFFFFFFFFFF AND DUP2 JUMP JUMPDEST PUSH1 0x7 DUP2 DUP2 SLOAD DUP2 LT PUSH2 0x738 JUMPI PUSH1 0x0 DUP1 REVERT JUMPDEST SWAP1 PUSH1 0x0 MSTORE PUSH1 0x20 PUSH1 0x0 KECCAK256 ADD PUSH1 0x0 SWAP2 POP SLOAD SWAP1 PUSH2 0x100 EXP SWAP1 DIV PUSH20 0xFFFFFFFFFFFFFFFFFFFFFFFFFFFFFFFFFFFFFFFF AND DUP2 JUMP JUMPDEST PUSH1 0x0 PUSH1 0x6 PUSH1 0x0 CALLER PUSH20 0xFFFFFFFFFFFFFFFFFFFFFFFFFFFFFFFFFFFFFFFF AND PUSH20 0xFFFFFFFFFFFFFFFFFFFFFFFFFFFFFFFFFFFFFFFF AND DUP2 MSTORE PUSH1 0x20 ADD SWAP1 DUP2 MSTORE PUSH1 0x20 ADD PUSH1 0x0 KECCAK256 PUSH1 0x0 ADD SLOAD GT PUSH2 0x7EC JUMPI PUSH1 0x40 MLOAD PUSH32 0x8C379A000000000000000000000000000000000000000000000000000000000 DUP2 MSTORE PUSH1 0x4 ADD PUSH2 0x7E3 SWAP1 PUSH2 0x10F8 JUMP JUMPDEST PUSH1 0x40 MLOAD DUP1 SWAP2 SUB SWAP1 REVERT JUMPDEST PUSH1 0x6 PUSH1 0x0 CALLER PUSH20 0xFFFFFFFFFFFFFFFFFFFFFFFFFFFFFFFFFFFFFFFF AND PUSH20 0xFFFFFFFFFFFFFFFFFFFFFFFFFFFFFFFFFFFFFFFF AND DUP2 MSTORE PUSH1 0x20 ADD SWAP1 DUP2 MSTORE PUSH1 0x20 ADD PUSH1 0x0 KECCAK256 PUSH1 0x2 ADD PUSH1 0x0 SWAP1 SLOAD SWAP1 PUSH2 0x100 EXP SWAP1 DIV PUSH1 0xFF AND ISZERO PUSH2 0x87C JUMPI PUSH1 0x40 MLOAD PUSH32 0x8C379A000000000000000000000000000000000000000000000000000000000 DUP2 MSTORE PUSH1 0x4 ADD PUSH2 0x873 SWAP1 PUSH2 0x1198 JUMP JUMPDEST PUSH1 0x40 MLOAD DUP1 SWAP2 SUB SWAP1 REVERT JUMPDEST DUP2 DUP2 PUSH1 0x40 MLOAD PUSH1 0x20 ADD PUSH2 0x88F SWAP3 SWAP2 SWAP1 PUSH2 0x101B JUMP JUMPDEST PUSH1 0x40 MLOAD PUSH1 0x20 DUP2 DUP4 SUB SUB DUP2 MSTORE SWAP1 PUSH1 0x40 MSTORE DUP1 MLOAD SWAP1 PUSH1 0x20 ADD KECCAK256 PUSH1 0x6 PUSH1 0x0 CALLER PUSH20 0xFFFFFFFFFFFFFFFFFFFFFFFFFFFFFFFFFFFFFFFF AND PUSH20 0xFFFFFFFFFFFFFFFFFFFFFFFFFFFFFFFFFFFFFFFF AND DUP2 MSTORE PUSH1 0x20 ADD SWAP1 DUP2 MSTORE PUSH1 0x20 ADD PUSH1 0x0 KECCAK256 PUSH1 0x1 ADD DUP2 SWAP1 SSTORE POP PUSH1 0x1 PUSH1 0x6 PUSH1 0x0 CALLER PUSH20 0xFFFFFFFFFFFFFFFFFFFFFFFFFFFFFFFFFFFFFFFF AND PUSH20 0xFFFFFFFFFFFFFFFFFFFFFFFFFFFFFFFFFFFFFFFF AND DUP2 MSTORE PUSH1 0x20 ADD SWAP1 DUP2 MSTORE PUSH1 0x20 ADD PUSH1 0x0 KECCAK256 PUSH1 0x2 ADD PUSH1 0x0 PUSH2 0x100 EXP DUP2 SLOAD DUP2 PUSH1 0xFF MUL NOT AND SWAP1 DUP4 ISZERO ISZERO MUL OR SWAP1 SSTORE POP DUP2 PUSH1 0x6 PUSH1 0x0 CALLER PUSH20 0xFFFFFFFFFFFFFFFFFFFFFFFFFFFFFFFFFFFFFFFF AND PUSH20 0xFFFFFFFFFFFFFFFFFFFFFFFFFFFFFFFFFFFFFFFF AND DUP2 MSTORE PUSH1 0x20 ADD SWAP1 DUP2 MSTORE PUSH1 0x20 ADD PUSH1 0x0 KECCAK256 PUSH1 0x2 ADD PUSH1 0x2 PUSH2 0x100 EXP DUP2 SLOAD DUP2 PUSH1 0xFF MUL NOT AND SWAP1 DUP4 ISZERO ISZERO MUL OR SWAP1 SSTORE POP CALLER PUSH20 0xFFFFFFFFFFFFFFFFFFFFFFFFFFFFFFFFFFFFFFFF AND PUSH32 0xFFEA1F4D20F01E3E8BBE54ABED70FC7CC14B6589A78A35CFF1C7395A88184733 DUP4 PUSH1 0x40 MLOAD PUSH2 0x9E6 SWAP2 SWAP1 PUSH2 0x10C2 JUMP JUMPDEST PUSH1 0x40 MLOAD DUP1 SWAP2 SUB SWAP1 LOG2 POP POP JUMP JUMPDEST PUSH1 0x5 SLOAD DUP2 JUMP JUMPDEST PUSH1 0x4 PUSH1 0x0 SWAP1 SLOAD SWAP1 PUSH2 0x100 EXP SWAP1 DIV PUSH20 0xFFFFFFFFFFFFFFFFFFFFFFFFFFFFFFFFFFFFFFFF AND DUP2 JUMP JUMPDEST PUSH1 0x0 DUP1 SLOAD SWAP1 PUSH2 0x100 EXP SWAP1 DIV PUSH20 0xFFFFFFFFFFFFFFFFFFFFFFFFFFFFFFFFFFFFFFFF AND PUSH20 0xFFFFFFFFFFFFFFFFFFFFFFFFFFFFFFFFFFFFFFFF AND PUSH4 0x23B872DD CALLER ADDRESS PUSH1 0x1 SLOAD PUSH1 0x40 MLOAD DUP5 PUSH4 0xFFFFFFFF AND PUSH1 0xE0 SHL DUP2 MSTORE PUSH1 0x4 ADD PUSH2 0xA7D SWAP4 SWAP3 SWAP2 SWAP1 PUSH2 0x1062 JUMP JUMPDEST PUSH1 0x20 PUSH1 0x40 MLOAD DUP1 DUP4 SUB DUP2 PUSH1 0x0 DUP8 DUP1 EXTCODESIZE ISZERO DUP1 ISZERO PUSH2 0xA97 JUMPI PUSH1 0x0 DUP1 REVERT JUMPDEST POP GAS CALL ISZERO DUP1 ISZERO PUSH2 0xAAB JUMPI RETURNDATASIZE PUSH1 0x0 DUP1 RETURNDATACOPY RETURNDATASIZE PUSH1 0x0 REVERT JUMPDEST POP POP POP POP PUSH1 0x40 MLOAD RETURNDATASIZE PUSH1 0x1F NOT PUSH1 0x1F DUP3 ADD AND DUP3 ADD DUP1 PUSH1 0x40 MSTORE POP DUP2 ADD SWAP1 PUSH2 0xACF SWAP2 SWAP1 PUSH2 0xE36 JUMP JUMPDEST PUSH2 0xB0E JUMPI PUSH1 0x40 MLOAD PUSH32 0x8C379A000000000000000000000000000000000000000000000000000000000 DUP2 MSTORE PUSH1 0x4 ADD PUSH2 0xB05 SWAP1 PUSH2 0x1138 JUMP JUMPDEST PUSH1 0x40 MLOAD DUP1 SWAP2 SUB SWAP1 REVERT JUMPDEST PUSH1 0x5 SLOAD PUSH1 0x6 PUSH1 0x0 CALLER PUSH20 0xFFFFFFFFFFFFFFFFFFFFFFFFFFFFFFFFFFFFFFFF AND PUSH20 0xFFFFFFFFFFFFFFFFFFFFFFFFFFFFFFFFFFFFFFFF AND DUP2 MSTORE PUSH1 0x20 ADD SWAP1 DUP2 MSTORE PUSH1 0x20 ADD PUSH1 0x0 KECCAK256 PUSH1 0x3 ADD SLOAD LT PUSH2 0xB94 JUMPI PUSH1 0x40 MLOAD PUSH32 0x8C379A000000000000000000000000000000000000000000000000000000000 DUP2 MSTORE PUSH1 0x4 ADD PUSH2 0xB8B SWAP1 PUSH2 0x1178 JUMP JUMPDEST PUSH1 0x40 MLOAD DUP1 SWAP2 SUB SWAP1 REVERT JUMPDEST PUSH1 0x7 CALLER SWAP1 DUP1 PUSH1 0x1 DUP2 SLOAD ADD DUP1 DUP3 SSTORE DUP1 SWAP2 POP POP PUSH1 0x1 SWAP1 SUB SWAP1 PUSH1 0x0 MSTORE PUSH1 0x20 PUSH1 0x0 KECCAK256 ADD PUSH1 0x0 SWAP1 SWAP2 SWAP1 SWAP2 SWAP1 SWAP2 PUSH2 0x100 EXP DUP2 SLOAD DUP2 PUSH20 0xFFFFFFFFFFFFFFFFFFFFFFFFFFFFFFFFFFFFFFFF MUL NOT AND SWAP1 DUP4 PUSH20 0xFFFFFFFFFFFFFFFFFFFFFFFFFFFFFFFFFFFFFFFF AND MUL OR SWAP1 SSTORE POP PUSH1 0x40 MLOAD DUP1 PUSH1 0xC0 ADD PUSH1 0x40 MSTORE DUP1 PUSH1 0x1 SLOAD DUP2 MSTORE PUSH1 0x20 ADD PUSH1 0x0 DUP1 SHL DUP2 MSTORE PUSH1 0x20 ADD PUSH1 0x0 ISZERO ISZERO DUP2 MSTORE PUSH1 0x20 ADD PUSH1 0x0 ISZERO ISZERO DUP2 MSTORE PUSH1 0x20 ADD PUSH1 0x0 ISZERO ISZERO DUP2 MSTORE PUSH1 0x20 ADD PUSH1 0x5 SLOAD DUP2 MSTORE POP PUSH1 0x6 PUSH1 0x0 CALLER PUSH20 0xFFFFFFFFFFFFFFFFFFFFFFFFFFFFFFFFFFFFFFFF AND PUSH20 0xFFFFFFFFFFFFFFFFFFFFFFFFFFFFFFFFFFFFFFFF AND DUP2 MSTORE PUSH1 0x20 ADD SWAP1 DUP2 MSTORE PUSH1 0x20 ADD PUSH1 0x0 KECCAK256 PUSH1 0x0 DUP3 ADD MLOAD DUP2 PUSH1 0x0 ADD SSTORE PUSH1 0x20 DUP3 ADD MLOAD DUP2 PUSH1 0x1 ADD SSTORE PUSH1 0x40 DUP3 ADD MLOAD DUP2 PUSH1 0x2 ADD PUSH1 0x0 PUSH2 0x100 EXP DUP2 SLOAD DUP2 PUSH1 0xFF MUL NOT AND SWAP1 DUP4 ISZERO ISZERO MUL OR SWAP1 SSTORE POP PUSH1 0x60 DUP3 ADD MLOAD DUP2 PUSH1 0x2 ADD PUSH1 0x1 PUSH2 0x100 EXP DUP2 SLOAD DUP2 PUSH1 0xFF MUL NOT AND SWAP1 DUP4 ISZERO ISZERO MUL OR SWAP1 SSTORE POP PUSH1 0x80 DUP3 ADD MLOAD DUP2 PUSH1 0x2 ADD PUSH1 0x2 PUSH2 0x100 EXP DUP2 SLOAD DUP2 PUSH1 0xFF MUL NOT AND SWAP1 DUP4 ISZERO ISZERO MUL OR SWAP1 SSTORE POP PUSH1 0xA0 DUP3 ADD MLOAD DUP2 PUSH1 0x3 ADD SSTORE SWAP1 POP POP CALLER PUSH20 0xFFFFFFFFFFFFFFFFFFFFFFFFFFFFFFFFFFFFFFFF AND PUSH32 0x3330A6773675F31F62070870F40379F8C6D42E3761410011A4DFC42B18043D2F PUSH1 0x1 SLOAD PUSH1 0x40 MLOAD PUSH2 0xD3C SWAP2 SWAP1 PUSH2 0x11B8 JUMP JUMPDEST PUSH1 0x40 MLOAD DUP1 SWAP2 SUB SWAP1 LOG2 JUMP JUMPDEST PUSH1 0x6 PUSH1 0x20 MSTORE DUP1 PUSH1 0x0 MSTORE PUSH1 0x40 PUSH1 0x0 KECCAK256 PUSH1 0x0 SWAP2 POP SWAP1 POP DUP1 PUSH1 0x0 ADD SLOAD SWAP1 DUP1 PUSH1 0x1 ADD SLOAD SWAP1 DUP1 PUSH1 0x2 ADD PUSH1 0x0 SWAP1 SLOAD SWAP1 PUSH2 0x100 EXP SWAP1 DIV PUSH1 0xFF AND SWAP1 DUP1 PUSH1 0x2 ADD PUSH1 0x1 SWAP1 SLOAD SWAP1 PUSH2 0x100 EXP SWAP1 DIV PUSH1 0xFF AND SWAP1 DUP1 PUSH1 0x2 ADD PUSH1 0x2 SWAP1 SLOAD SWAP1 PUSH2 0x100 EXP SWAP1 DIV PUSH1 0xFF AND SWAP1 DUP1 PUSH1 0x3 ADD SLOAD SWAP1 POP DUP7 JUMP JUMPDEST PUSH1 0x3 SLOAD DUP2 JUMP JUMPDEST PUSH1 0x2 SLOAD DUP2 JUMP JUMPDEST PUSH1 0x0 DUP2 CALLDATALOAD SWAP1 POP PUSH2 0xDC4 DUP2 PUSH2 0x15EE JUMP JUMPDEST SWAP3 SWAP2 POP POP JUMP JUMPDEST PUSH1 0x0 DUP2 CALLDATALOAD SWAP1 POP PUSH2 0xDD9 DUP2 PUSH2 0x1605 JUMP JUMPDEST SWAP3 SWAP2 POP POP JUMP JUMPDEST PUSH1 0x0 DUP2 MLOAD SWAP1 POP PUSH2 0xDEE DUP2 PUSH2 0x1605 JUMP JUMPDEST SWAP3 SWAP2 POP POP JUMP JUMPDEST PUSH1 0x0 DUP2 CALLDATALOAD SWAP1 POP PUSH2 0xE03 DUP2 PUSH2 0x161C JUMP JUMPDEST SWAP3 SWAP2 POP POP JUMP JUMPDEST PUSH1 0x0 PUSH1 0x20 DUP3 DUP5 SUB SLT ISZERO PUSH2 0xE1F JUMPI PUSH2 0xE1E PUSH2 0x14E6 JUMP JUMPDEST JUMPDEST PUSH1 0x0 PUSH2 0xE2D DUP5 DUP3 DUP6 ADD PUSH2 0xDB5 JUMP JUMPDEST SWAP2 POP POP SWAP3 SWAP2 POP POP JUMP JUMPDEST PUSH1 0x0 PUSH1 0x20 DUP3 DUP5 SUB SLT ISZERO PUSH2 0xE4C JUMPI PUSH2 0xE4B PUSH2 0x14E6 JUMP JUMPDEST JUMPDEST PUSH1 0x0 PUSH2 0xE5A DUP5 DUP3 DUP6 ADD PUSH2 0xDDF JUMP JUMPDEST SWAP2 POP POP SWAP3 SWAP2 POP POP JUMP JUMPDEST PUSH1 0x0 DUP1 PUSH1 0x40 DUP4 DUP6 SUB SLT ISZERO PUSH2 0xE7A JUMPI PUSH2 0xE79 PUSH2 0x14E6 JUMP JUMPDEST JUMPDEST PUSH1 0x0 PUSH2 0xE88 DUP6 DUP3 DUP7 ADD PUSH2 0xDCA JUMP JUMPDEST SWAP3 POP POP PUSH1 0x20 PUSH2 0xE99 DUP6 DUP3 DUP7 ADD PUSH2 0xDF4 JUMP JUMPDEST SWAP2 POP POP SWAP3 POP SWAP3 SWAP1 POP JUMP JUMPDEST PUSH1 0x0 PUSH1 0x20 DUP3 DUP5 SUB SLT ISZERO PUSH2 0xEB9 JUMPI PUSH2 0xEB8 PUSH2 0x14E6 JUMP JUMPDEST JUMPDEST PUSH1 0x0 PUSH2 0xEC7 DUP5 DUP3 DUP6 ADD PUSH2 0xDF4 JUMP JUMPDEST SWAP2 POP POP SWAP3 SWAP2 POP POP JUMP JUMPDEST PUSH2 0xED9 DUP2 PUSH2 0x135A JUMP JUMPDEST DUP3 MSTORE POP POP JUMP JUMPDEST PUSH2 0xEE8 DUP2 PUSH2 0x136C JUMP JUMPDEST DUP3 MSTORE POP POP JUMP JUMPDEST PUSH2 0xEFF PUSH2 0xEFA DUP3 PUSH2 0x136C JUMP JUMPDEST PUSH2 0x142B JUMP JUMPDEST DUP3 MSTORE POP POP JUMP JUMPDEST PUSH2 0xF0E DUP2 PUSH2 0x1378 JUMP JUMPDEST DUP3 MSTORE POP POP JUMP JUMPDEST PUSH2 0xF1D DUP2 PUSH2 0x13AC JUMP JUMPDEST DUP3 MSTORE POP POP JUMP JUMPDEST PUSH1 0x0 PUSH2 0xF30 PUSH1 0x11 DUP4 PUSH2 0x1234 JUMP JUMPDEST SWAP2 POP PUSH2 0xF3B DUP3 PUSH2 0x14F8 JUMP JUMPDEST PUSH1 0x20 DUP3 ADD SWAP1 POP SWAP2 SWAP1 POP JUMP JUMPDEST PUSH1 0x0 PUSH2 0xF53 PUSH1 0x1B DUP4 PUSH2 0x1234 JUMP JUMPDEST SWAP2 POP PUSH2 0xF5E DUP3 PUSH2 0x1521 JUMP JUMPDEST PUSH1 0x20 DUP3 ADD SWAP1 POP SWAP2 SWAP1 POP JUMP JUMPDEST PUSH1 0x0 PUSH2 0xF76 PUSH1 0xF DUP4 PUSH2 0x1234 JUMP JUMPDEST SWAP2 POP PUSH2 0xF81 DUP3 PUSH2 0x154A JUMP JUMPDEST PUSH1 0x20 DUP3 ADD SWAP1 POP SWAP2 SWAP1 POP JUMP JUMPDEST PUSH1 0x0 PUSH2 0xF99 PUSH1 0x14 DUP4 PUSH2 0x1234 JUMP JUMPDEST SWAP2 POP PUSH2 0xFA4 DUP3 PUSH2 0x1573 JUMP JUMPDEST PUSH1 0x20 DUP3 ADD SWAP1 POP SWAP2 SWAP1 POP JUMP JUMPDEST PUSH1 0x0 PUSH2 0xFBC PUSH1 0x19 DUP4 PUSH2 0x1234 JUMP JUMPDEST SWAP2 POP PUSH2 0xFC7 DUP3 PUSH2 0x159C JUMP JUMPDEST PUSH1 0x20 DUP3 ADD SWAP1 POP SWAP2 SWAP1 POP JUMP JUMPDEST PUSH1 0x0 PUSH2 0xFDF PUSH1 0x13 DUP4 PUSH2 0x1234 JUMP JUMPDEST SWAP2 POP PUSH2 0xFEA DUP3 PUSH2 0x15C5 JUMP JUMPDEST PUSH1 0x20 DUP3 ADD SWAP1 POP SWAP2 SWAP1 POP JUMP JUMPDEST PUSH2 0xFFE DUP2 PUSH2 0x13A2 JUMP JUMPDEST DUP3 MSTORE POP POP JUMP JUMPDEST PUSH2 0x1015 PUSH2 0x1010 DUP3 PUSH2 0x13A2 JUMP JUMPDEST PUSH2 0x143D JUMP JUMPDEST DUP3 MSTORE POP POP JUMP JUMPDEST PUSH1 0x0 PUSH2 0x1027 DUP3 DUP6 PUSH2 0xEEE JUMP JUMPDEST PUSH1 0x1 DUP3 ADD SWAP2 POP PUSH2 0x1037 DUP3 DUP5 PUSH2 0x1004 JUMP JUMPDEST PUSH1 0x20 DUP3 ADD SWAP2 POP DUP2 SWAP1 POP SWAP4 SWAP3 POP POP POP JUMP JUMPDEST PUSH1 0x0 PUSH1 0x20 DUP3 ADD SWAP1 POP PUSH2 0x105C PUSH1 0x0 DUP4 ADD DUP5 PUSH2 0xED0 JUMP JUMPDEST SWAP3 SWAP2 POP POP JUMP JUMPDEST PUSH1 0x0 PUSH1 0x60 DUP3 ADD SWAP1 POP PUSH2 0x1077 PUSH1 0x0 DUP4 ADD DUP7 PUSH2 0xED0 JUMP JUMPDEST PUSH2 0x1084 PUSH1 0x20 DUP4 ADD DUP6 PUSH2 0xED0 JUMP JUMPDEST PUSH2 0x1091 PUSH1 0x40 DUP4 ADD DUP5 PUSH2 0xFF5 JUMP JUMPDEST SWAP5 SWAP4 POP POP POP POP JUMP JUMPDEST PUSH1 0x0 PUSH1 0x40 DUP3 ADD SWAP1 POP PUSH2 0x10AE PUSH1 0x0 DUP4 ADD DUP6 PUSH2 0xED0 JUMP JUMPDEST PUSH2 0x10BB PUSH1 0x20 DUP4 ADD DUP5 PUSH2 0xFF5 JUMP JUMPDEST SWAP4 SWAP3 POP POP POP JUMP JUMPDEST PUSH1 0x0 PUSH1 0x20 DUP3 ADD SWAP1 POP PUSH2 0x10D7 PUSH1 0x0 DUP4 ADD DUP5 PUSH2 0xEDF JUMP JUMPDEST SWAP3 SWAP2 POP POP JUMP JUMPDEST PUSH1 0x0 PUSH1 0x20 DUP3 ADD SWAP1 POP PUSH2 0x10F2 PUSH1 0x0 DUP4 ADD DUP5 PUSH2 0xF14 JUMP JUMPDEST SWAP3 SWAP2 POP POP JUMP JUMPDEST PUSH1 0x0 PUSH1 0x20 DUP3 ADD SWAP1 POP DUP2 DUP2 SUB PUSH1 0x0 DUP4 ADD MSTORE PUSH2 0x1111 DUP2 PUSH2 0xF23 JUMP JUMPDEST SWAP1 POP SWAP2 SWAP1 POP JUMP JUMPDEST PUSH1 0x0 PUSH1 0x20 DUP3 ADD SWAP1 POP DUP2 DUP2 SUB PUSH1 0x0 DUP4 ADD MSTORE PUSH2 0x1131 DUP2 PUSH2 0xF46 JUMP JUMPDEST SWAP1 POP SWAP2 SWAP1 POP JUMP JUMPDEST PUSH1 0x0 PUSH1 0x20 DUP3 ADD SWAP1 POP DUP2 DUP2 SUB PUSH1 0x0 DUP4 ADD MSTORE PUSH2 0x1151 DUP2 PUSH2 0xF69 JUMP JUMPDEST SWAP1 POP SWAP2 SWAP1 POP JUMP JUMPDEST PUSH1 0x0 PUSH1 0x20 DUP3 ADD SWAP1 POP DUP2 DUP2 SUB PUSH1 0x0 DUP4 ADD MSTORE PUSH2 0x1171 DUP2 PUSH2 0xF8C JUMP JUMPDEST SWAP1 POP SWAP2 SWAP1 POP JUMP JUMPDEST PUSH1 0x0 PUSH1 0x20 DUP3 ADD SWAP1 POP DUP2 DUP2 SUB PUSH1 0x0 DUP4 ADD MSTORE PUSH2 0x1191 DUP2 PUSH2 0xFAF JUMP JUMPDEST SWAP1 POP SWAP2 SWAP1 POP JUMP JUMPDEST PUSH1 0x0 PUSH1 0x20 DUP3 ADD SWAP1 POP DUP2 DUP2 SUB PUSH1 0x0 DUP4 ADD MSTORE PUSH2 0x11B1 DUP2 PUSH2 0xFD2 JUMP JUMPDEST SWAP1 POP SWAP2 SWAP1 POP JUMP JUMPDEST PUSH1 0x0 PUSH1 0x20 DUP3 ADD SWAP1 POP PUSH2 0x11CD PUSH1 0x0 DUP4 ADD DUP5 PUSH2 0xFF5 JUMP JUMPDEST SWAP3 SWAP2 POP POP JUMP JUMPDEST PUSH1 0x0 PUSH1 0xC0 DUP3 ADD SWAP1 POP PUSH2 0x11E8 PUSH1 0x0 DUP4 ADD DUP10 PUSH2 0xFF5 JUMP JUMPDEST PUSH2 0x11F5 PUSH1 0x20 DUP4 ADD DUP9 PUSH2 0xF05 JUMP JUMPDEST PUSH2 0x1202 PUSH1 0x40 DUP4 ADD DUP8 PUSH2 0xEDF JUMP JUMPDEST PUSH2 0x120F PUSH1 0x60 DUP4 ADD DUP7 PUSH2 0xEDF JUMP JUMPDEST PUSH2 0x121C PUSH1 0x80 DUP4 ADD DUP6 PUSH2 0xEDF JUMP JUMPDEST PUSH2 0x1229 PUSH1 0xA0 DUP4 ADD DUP5 PUSH2 0xFF5 JUMP JUMPDEST SWAP8 SWAP7 POP POP POP POP POP POP POP JUMP JUMPDEST PUSH1 0x0 DUP3 DUP3 MSTORE PUSH1 0x20 DUP3 ADD SWAP1 POP SWAP3 SWAP2 POP POP JUMP JUMPDEST PUSH1 0x0 PUSH2 0x1250 DUP3 PUSH2 0x13A2 JUMP JUMPDEST SWAP2 POP PUSH2 0x125B DUP4 PUSH2 0x13A2 JUMP JUMPDEST SWAP3 POP DUP3 PUSH32 0xFFFFFFFFFFFFFFFFFFFFFFFFFFFFFFFFFFFFFFFFFFFFFFFFFFFFFFFFFFFFFFFF SUB DUP3 GT ISZERO PUSH2 0x1290 JUMPI PUSH2 0x128F PUSH2 0x1459 JUMP JUMPDEST JUMPDEST DUP3 DUP3 ADD SWAP1 POP SWAP3 SWAP2 POP POP JUMP JUMPDEST PUSH1 0x0 PUSH2 0x12A6 DUP3 PUSH2 0x13A2 JUMP JUMPDEST SWAP2 POP PUSH2 0x12B1 DUP4 PUSH2 0x13A2 JUMP JUMPDEST SWAP3 POP DUP3 PUSH2 0x12C1 JUMPI PUSH2 0x12C0 PUSH2 0x1488 JUMP JUMPDEST JUMPDEST DUP3 DUP3 DIV SWAP1 POP SWAP3 SWAP2 POP POP JUMP JUMPDEST PUSH1 0x0 PUSH2 0x12D7 DUP3 PUSH2 0x13A2 JUMP JUMPDEST SWAP2 POP PUSH2 0x12E2 DUP4 PUSH2 0x13A2 JUMP JUMPDEST SWAP3 POP DUP2 PUSH32 0xFFFFFFFFFFFFFFFFFFFFFFFFFFFFFFFFFFFFFFFFFFFFFFFFFFFFFFFFFFFFFFFF DIV DUP4 GT DUP3 ISZERO ISZERO AND ISZERO PUSH2 0x131B JUMPI PUSH2 0x131A PUSH2 0x1459 JUMP JUMPDEST JUMPDEST DUP3 DUP3 MUL SWAP1 POP SWAP3 SWAP2 POP POP JUMP JUMPDEST PUSH1 0x0 PUSH2 0x1331 DUP3 PUSH2 0x13A2 JUMP JUMPDEST SWAP2 POP PUSH2 0x133C DUP4 PUSH2 0x13A2 JUMP JUMPDEST SWAP3 POP DUP3 DUP3 LT ISZERO PUSH2 0x134F JUMPI PUSH2 0x134E PUSH2 0x1459 JUMP JUMPDEST JUMPDEST DUP3 DUP3 SUB SWAP1 POP SWAP3 SWAP2 POP POP JUMP JUMPDEST PUSH1 0x0 PUSH2 0x1365 DUP3 PUSH2 0x1382 JUMP JUMPDEST SWAP1 POP SWAP2 SWAP1 POP JUMP JUMPDEST PUSH1 0x0 DUP2 ISZERO ISZERO SWAP1 POP SWAP2 SWAP1 POP JUMP JUMPDEST PUSH1 0x0 DUP2 SWAP1 POP SWAP2 SWAP1 POP JUMP JUMPDEST PUSH1 0x0 PUSH20 0xFFFFFFFFFFFFFFFFFFFFFFFFFFFFFFFFFFFFFFFF DUP3 AND SWAP1 POP SWAP2 SWAP1 POP JUMP JUMPDEST PUSH1 0x0 DUP2 SWAP1 POP SWAP2 SWAP1 POP JUMP JUMPDEST PUSH1 0x0 PUSH2 0x13B7 DUP3 PUSH2 0x13BE JUMP JUMPDEST SWAP1 POP SWAP2 SWAP1 POP JUMP JUMPDEST PUSH1 0x0 PUSH2 0x13C9 DUP3 PUSH2 0x13D0 JUMP JUMPDEST SWAP1 POP SWAP2 SWAP1 POP JUMP JUMPDEST PUSH1 0x0 PUSH2 0x13DB DUP3 PUSH2 0x1382 JUMP JUMPDEST SWAP1 POP SWAP2 SWAP1 POP JUMP JUMPDEST PUSH1 0x0 PUSH2 0x13ED DUP3 PUSH2 0x13A2 JUMP JUMPDEST SWAP2 POP PUSH32 0xFFFFFFFFFFFFFFFFFFFFFFFFFFFFFFFFFFFFFFFFFFFFFFFFFFFFFFFFFFFFFFFF DUP3 EQ ISZERO PUSH2 0x1420 JUMPI PUSH2 0x141F PUSH2 0x1459 JUMP JUMPDEST JUMPDEST PUSH1 0x1 DUP3 ADD SWAP1 POP SWAP2 SWAP1 POP JUMP JUMPDEST PUSH1 0x0 PUSH2 0x1436 DUP3 PUSH2 0x1447 JUMP JUMPDEST SWAP1 POP SWAP2 SWAP1 POP JUMP JUMPDEST PUSH1 0x0 DUP2 SWAP1 POP SWAP2 SWAP1 POP JUMP JUMPDEST PUSH1 0x0 PUSH2 0x1452 DUP3 PUSH2 0x14EB JUMP JUMPDEST SWAP1 POP SWAP2 SWAP1 POP JUMP JUMPDEST PUSH32 0x4E487B7100000000000000000000000000000000000000000000000000000000 PUSH1 0x0 MSTORE PUSH1 0x11 PUSH1 0x4 MSTORE PUSH1 0x24 PUSH1 0x0 REVERT JUMPDEST PUSH32 0x4E487B7100000000000000000000000000000000000000000000000000000000 PUSH1 0x0 MSTORE PUSH1 0x12 PUSH1 0x4 MSTORE PUSH1 0x24 PUSH1 0x0 REVERT JUMPDEST PUSH32 0x4E487B7100000000000000000000000000000000000000000000000000000000 PUSH1 0x0 MSTORE PUSH1 0x32 PUSH1 0x4 MSTORE PUSH1 0x24 PUSH1 0x0 REVERT JUMPDEST PUSH1 0x0 DUP1 REVERT JUMPDEST PUSH1 0x0 DUP2 PUSH1 0xF8 SHL SWAP1 POP SWAP2 SWAP1 POP JUMP JUMPDEST PUSH32 0x4E6F742061207061727469636970616E74000000000000000000000000000000 PUSH1 0x0 DUP3 ADD MSTORE POP JUMP JUMPDEST PUSH32 0x43757272656E7420726F756E64207374696C6C206F6E676F696E670000000000 PUSH1 0x0 DUP3 ADD MSTORE POP JUMP JUMPDEST PUSH32 0x5472616E73666572206661696C65640000000000000000000000000000000000 PUSH1 0x0 DUP3 ADD MSTORE POP JUMP JUMPDEST PUSH32 0x4E6F20726F756E6420746F2066696E616C697A65000000000000000000000000 PUSH1 0x0 DUP3 ADD MSTORE POP JUMP JUMPDEST PUSH32 0x416C7265616479206A6F696E6564207468697320726F756E6400000000000000 PUSH1 0x0 DUP3 ADD MSTORE POP JUMP JUMPDEST PUSH32 0x43686F69636520616C7265616479206D61646500000000000000000000000000 PUSH1 0x0 DUP3 ADD MSTORE POP JUMP JUMPDEST PUSH2 0x15F7 DUP2 PUSH2 0x135A JUMP JUMPDEST DUP2 EQ PUSH2 0x1602 JUMPI PUSH1 0x0 DUP1 REVERT JUMPDEST POP JUMP JUMPDEST PUSH2 0x160E DUP2 PUSH2 0x136C JUMP JUMPDEST DUP2 EQ PUSH2 0x1619 JUMPI PUSH1 0x0 DUP1 REVERT JUMPDEST POP JUMP JUMPDEST PUSH2 0x1625 DUP2 PUSH2 0x13A2 JUMP JUMPDEST DUP2 EQ PUSH2 0x1630 JUMPI PUSH1 0x0 DUP1 REVERT JUMPDEST POP JUMP INVALID LOG2 PUSH5 0x6970667358 0x22 SLT KECCAK256 0xC7 0x1E CALLCODE 0xB7 0xEB RETURNDATACOPY SWAP16 0xD2 MSTORE8 CHAINID 0xCA SHR 0xE6 OR SWAP8 PUSH26 0x41C4DC3BF9C1CCDE02F0CAEFCD28F23D64736F6C634300080700 CALLER "
				},
				"gasEstimates": {
					"creation": {
						"codeDepositCost": "1147400",
						"executionCost": "infinite",
						"totalCost": "infinite"
					},
					"external": {
						"commitChoice(bool,uint256)": "infinite",
						"currentRound()": "2429",
						"entryFee()": "2430",
						"finalizeRound()": "infinite",
						"joinGame()": "infinite",
						"owner()": "2536",
						"participants(uint256)": "5023",
						"pdcToken()": "2642",
						"players(address)": "infinite",
						"roundDuration()": "2539",
						"roundEndTime()": "2517"
					}
				},
				"methodIdentifiers": {
					"commitChoice(bool,uint256)": "38983ef8",
					"currentRound()": "8a19c8bc",
					"entryFee()": "072ea61c",
					"finalizeRound()": "1e820325",
					"joinGame()": "d4f77b1c",
					"owner()": "8da5cb5b",
					"participants(uint256)": "35c1d349",
					"pdcToken()": "2967c373",
					"players(address)": "e2eb41ff",
					"roundDuration()": "f7cb789a",
					"roundEndTime()": "e40205d6"
				}
			},
			"storageLayout": {
				"storage": [
					{
						"astId": 85,
						"contract": "Solidity/PrisonerDillemaGame.sol:PrisonersDilemmaGame",
						"label": "pdcToken",
						"offset": 0,
						"slot": "0",
						"type": "t_contract(PrisonerDilemmaCoin)66"
					},
					{
						"astId": 87,
						"contract": "Solidity/PrisonerDillemaGame.sol:PrisonersDilemmaGame",
						"label": "entryFee",
						"offset": 0,
						"slot": "1",
						"type": "t_uint256"
					},
					{
						"astId": 89,
						"contract": "Solidity/PrisonerDillemaGame.sol:PrisonersDilemmaGame",
						"label": "roundDuration",
						"offset": 0,
						"slot": "2",
						"type": "t_uint256"
					},
					{
						"astId": 91,
						"contract": "Solidity/PrisonerDillemaGame.sol:PrisonersDilemmaGame",
						"label": "roundEndTime",
						"offset": 0,
						"slot": "3",
						"type": "t_uint256"
					},
					{
						"astId": 93,
						"contract": "Solidity/PrisonerDillemaGame.sol:PrisonersDilemmaGame",
						"label": "owner",
						"offset": 0,
						"slot": "4",
						"type": "t_address"
					},
					{
						"astId": 95,
						"contract": "Solidity/PrisonerDillemaGame.sol:PrisonersDilemmaGame",
						"label": "currentRound",
						"offset": 0,
						"slot": "5",
						"type": "t_uint256"
					},
					{
						"astId": 100,
						"contract": "Solidity/PrisonerDillemaGame.sol:PrisonersDilemmaGame",
						"label": "players",
						"offset": 0,
						"slot": "6",
						"type": "t_mapping(t_address,t_struct(Player)82_storage)"
					},
					{
						"astId": 103,
						"contract": "Solidity/PrisonerDillemaGame.sol:PrisonersDilemmaGame",
						"label": "participants",
						"offset": 0,
						"slot": "7",
						"type": "t_array(t_address)dyn_storage"
					}
				],
				"types": {
					"t_address": {
						"encoding": "inplace",
						"label": "address",
						"numberOfBytes": "20"
					},
					"t_array(t_address)dyn_storage": {
						"base": "t_address",
						"encoding": "dynamic_array",
						"label": "address[]",
						"numberOfBytes": "32"
					},
					"t_bool": {
						"encoding": "inplace",
						"label": "bool",
						"numberOfBytes": "1"
					},
					"t_bytes32": {
						"encoding": "inplace",
						"label": "bytes32",
						"numberOfBytes": "32"
					},
					"t_contract(PrisonerDilemmaCoin)66": {
						"encoding": "inplace",
						"label": "contract PrisonerDilemmaCoin",
						"numberOfBytes": "20"
					},
					"t_mapping(t_address,t_struct(Player)82_storage)": {
						"encoding": "mapping",
						"key": "t_address",
						"label": "mapping(address => struct PrisonersDilemmaGame.Player)",
						"numberOfBytes": "32",
						"value": "t_struct(Player)82_storage"
					},
					"t_struct(Player)82_storage": {
						"encoding": "inplace",
						"label": "struct PrisonersDilemmaGame.Player",
						"members": [
							{
								"astId": 71,
								"contract": "Solidity/PrisonerDillemaGame.sol:PrisonersDilemmaGame",
								"label": "deposit",
								"offset": 0,
								"slot": "0",
								"type": "t_uint256"
							},
							{
								"astId": 73,
								"contract": "Solidity/PrisonerDillemaGame.sol:PrisonersDilemmaGame",
								"label": "commitment",
								"offset": 0,
								"slot": "1",
								"type": "t_bytes32"
							},
							{
								"astId": 75,
								"contract": "Solidity/PrisonerDillemaGame.sol:PrisonersDilemmaGame",
								"label": "hasChosen",
								"offset": 0,
								"slot": "2",
								"type": "t_bool"
							},
							{
								"astId": 77,
								"contract": "Solidity/PrisonerDillemaGame.sol:PrisonersDilemmaGame",
								"label": "hasRevealed",
								"offset": 1,
								"slot": "2",
								"type": "t_bool"
							},
							{
								"astId": 79,
								"contract": "Solidity/PrisonerDillemaGame.sol:PrisonersDilemmaGame",
								"label": "choice",
								"offset": 2,
								"slot": "2",
								"type": "t_bool"
							},
							{
								"astId": 81,
								"contract": "Solidity/PrisonerDillemaGame.sol:PrisonersDilemmaGame",
								"label": "roundJoined",
								"offset": 0,
								"slot": "3",
								"type": "t_uint256"
							}
						],
						"numberOfBytes": "128"
					},
					"t_uint256": {
						"encoding": "inplace",
						"label": "uint256",
						"numberOfBytes": "32"
					}
				}
			},
			"userdoc": {
				"kind": "user",
				"methods": {},
				"version": 1
			}
		}
	}
}